{"contracts/Treasury.sol":{"Treasury":{"abi":[{"inputs":[{"internalType":"address","name":"factory","type":"address"}],"stateMutability":"nonpayable","type":"constructor"},{"anonymous":false,"inputs":[{"indexed":true,"internalType":"address","name":"from","type":"address"},{"indexed":false,"internalType":"uint256","name":"amount","type":"uint256"}],"name":"FundsReceived","type":"event"},{"anonymous":false,"inputs":[{"indexed":true,"internalType":"address","name":"to","type":"address"},{"indexed":false,"internalType":"uint256","name":"amount","type":"uint256"}],"name":"FundsWithdrawn","type":"event"},{"inputs":[],"name":"factoryAddress","outputs":[{"internalType":"address","name":"","type":"address"}],"stateMutability":"view","type":"function"},{"inputs":[],"name":"getBalance","outputs":[{"internalType":"uint256","name":"","type":"uint256"}],"stateMutability":"view","type":"function"},{"inputs":[],"name":"owner","outputs":[{"internalType":"address","name":"","type":"address"}],"stateMutability":"view","type":"function"},{"inputs":[{"internalType":"address payable","name":"to","type":"address"},{"internalType":"uint256","name":"amount","type":"uint256"}],"name":"withdrawFunds","outputs":[],"stateMutability":"nonpayable","type":"function"},{"stateMutability":"payable","type":"receive"}],"evm":{"bytecode":{"linkReferences":{},"object":"60803461007a57601f6102f938819003918201601f19168301916001600160401b0383118484101761007f5780849260209460405283398101031261007a57516001600160a01b0381169081900361007a5760018060a01b031933816000541617600055600154161760015560405161026390816100968239f35b600080fd5b634e487b7160e01b600052604160045260246000fdfe60806040908082526004361015610049575b50361561001d57600080fd5b513481527f8e47b87b0ef542cdfa1659c551d88bad38aa7f452d2bbb349ab7530dfec8be8f60203392a2005b600090813560e01c90816312065fe014610213575080638da5cb5b146101e0578063966dae0e146101ab5763c1075329036100115790346101a757806003193601126101a7576004359073ffffffffffffffffffffffffffffffffffffffff908183168093036101a3576024359184541633036101605781471061011d57838284828215610114575b839283928392f11561010b577feaff4b37086828766ad3268786972c0cd24259d4c87a80f9d3963a3c3d999b0d9160209151908152a280f35b513d84823e3d90fd5b506108fc6100d2565b6064905162461bcd60e51b815260206004820152601460248201527f496e73756666696369656e742062616c616e63650000000000000000000000006044820152fd5b6064905162461bcd60e51b815260206004820152601760248201527f43616c6c6572206973206e6f7420746865206f776e65720000000000000000006044820152fd5b8380fd5b5080fd5b5090346101a757816003193601126101a75760209073ffffffffffffffffffffffffffffffffffffffff600154169051908152f35b5090346101a757816003193601126101a75773ffffffffffffffffffffffffffffffffffffffff60209254169051908152f35b9050346101a757816003193601126101a757602090478152f3fea26469706673582212204111022b463ef3cad162c2ad0f01b89c54b9de1970907c4481edfb370b5addea64736f6c63430008180033","opcodes":"PUSH1 0x80 CALLVALUE PUSH2 0x7A JUMPI PUSH1 0x1F PUSH2 0x2F9 CODESIZE DUP2 SWAP1 SUB SWAP2 DUP3 ADD PUSH1 0x1F NOT AND DUP4 ADD SWAP2 PUSH1 0x1 PUSH1 0x1 PUSH1 0x40 SHL SUB DUP4 GT DUP5 DUP5 LT OR PUSH2 0x7F JUMPI DUP1 DUP5 SWAP3 PUSH1 0x20 SWAP5 PUSH1 0x40 MSTORE DUP4 CODECOPY DUP2 ADD SUB SLT PUSH2 0x7A JUMPI MLOAD PUSH1 0x1 PUSH1 0x1 PUSH1 0xA0 SHL SUB DUP2 AND SWAP1 DUP2 SWAP1 SUB PUSH2 0x7A JUMPI PUSH1 0x1 DUP1 PUSH1 0xA0 SHL SUB NOT CALLER DUP2 PUSH1 0x0 SLOAD AND OR PUSH1 0x0 SSTORE PUSH1 0x1 SLOAD AND OR PUSH1 0x1 SSTORE PUSH1 0x40 MLOAD PUSH2 0x263 SWAP1 DUP2 PUSH2 0x96 DUP3 CODECOPY RETURN JUMPDEST PUSH1 0x0 DUP1 REVERT JUMPDEST PUSH4 0x4E487B71 PUSH1 0xE0 SHL PUSH1 0x0 MSTORE PUSH1 0x41 PUSH1 0x4 MSTORE PUSH1 0x24 PUSH1 0x0 REVERT INVALID PUSH1 0x80 PUSH1 0x40 SWAP1 DUP1 DUP3 MSTORE PUSH1 0x4 CALLDATASIZE LT ISZERO PUSH2 0x49 JUMPI JUMPDEST POP CALLDATASIZE ISZERO PUSH2 0x1D JUMPI PUSH1 0x0 DUP1 REVERT JUMPDEST MLOAD CALLVALUE DUP2 MSTORE PUSH32 0x8E47B87B0EF542CDFA1659C551D88BAD38AA7F452D2BBB349AB7530DFEC8BE8F PUSH1 0x20 CALLER SWAP3 LOG2 STOP JUMPDEST PUSH1 0x0 SWAP1 DUP2 CALLDATALOAD PUSH1 0xE0 SHR SWAP1 DUP2 PUSH4 0x12065FE0 EQ PUSH2 0x213 JUMPI POP DUP1 PUSH4 0x8DA5CB5B EQ PUSH2 0x1E0 JUMPI DUP1 PUSH4 0x966DAE0E EQ PUSH2 0x1AB JUMPI PUSH4 0xC1075329 SUB PUSH2 0x11 JUMPI SWAP1 CALLVALUE PUSH2 0x1A7 JUMPI DUP1 PUSH1 0x3 NOT CALLDATASIZE ADD SLT PUSH2 0x1A7 JUMPI PUSH1 0x4 CALLDATALOAD SWAP1 PUSH20 0xFFFFFFFFFFFFFFFFFFFFFFFFFFFFFFFFFFFFFFFF SWAP1 DUP2 DUP4 AND DUP1 SWAP4 SUB PUSH2 0x1A3 JUMPI PUSH1 0x24 CALLDATALOAD SWAP2 DUP5 SLOAD AND CALLER SUB PUSH2 0x160 JUMPI DUP2 SELFBALANCE LT PUSH2 0x11D JUMPI DUP4 DUP3 DUP5 DUP3 DUP3 ISZERO PUSH2 0x114 JUMPI JUMPDEST DUP4 SWAP3 DUP4 SWAP3 DUP4 SWAP3 CALL ISZERO PUSH2 0x10B JUMPI PUSH32 0xEAFF4B37086828766AD3268786972C0CD24259D4C87A80F9D3963A3C3D999B0D SWAP2 PUSH1 0x20 SWAP2 MLOAD SWAP1 DUP2 MSTORE LOG2 DUP1 RETURN JUMPDEST MLOAD RETURNDATASIZE DUP5 DUP3 RETURNDATACOPY RETURNDATASIZE SWAP1 REVERT JUMPDEST POP PUSH2 0x8FC PUSH2 0xD2 JUMP JUMPDEST PUSH1 0x64 SWAP1 MLOAD PUSH3 0x461BCD PUSH1 0xE5 SHL DUP2 MSTORE PUSH1 0x20 PUSH1 0x4 DUP3 ADD MSTORE PUSH1 0x14 PUSH1 0x24 DUP3 ADD MSTORE PUSH32 0x496E73756666696369656E742062616C616E6365000000000000000000000000 PUSH1 0x44 DUP3 ADD MSTORE REVERT JUMPDEST PUSH1 0x64 SWAP1 MLOAD PUSH3 0x461BCD PUSH1 0xE5 SHL DUP2 MSTORE PUSH1 0x20 PUSH1 0x4 DUP3 ADD MSTORE PUSH1 0x17 PUSH1 0x24 DUP3 ADD MSTORE PUSH32 0x43616C6C6572206973206E6F7420746865206F776E6572000000000000000000 PUSH1 0x44 DUP3 ADD MSTORE REVERT JUMPDEST DUP4 DUP1 REVERT JUMPDEST POP DUP1 REVERT JUMPDEST POP SWAP1 CALLVALUE PUSH2 0x1A7 JUMPI DUP2 PUSH1 0x3 NOT CALLDATASIZE ADD SLT PUSH2 0x1A7 JUMPI PUSH1 0x20 SWAP1 PUSH20 0xFFFFFFFFFFFFFFFFFFFFFFFFFFFFFFFFFFFFFFFF PUSH1 0x1 SLOAD AND SWAP1 MLOAD SWAP1 DUP2 MSTORE RETURN JUMPDEST POP SWAP1 CALLVALUE PUSH2 0x1A7 JUMPI DUP2 PUSH1 0x3 NOT CALLDATASIZE ADD SLT PUSH2 0x1A7 JUMPI PUSH20 0xFFFFFFFFFFFFFFFFFFFFFFFFFFFFFFFFFFFFFFFF PUSH1 0x20 SWAP3 SLOAD AND SWAP1 MLOAD SWAP1 DUP2 MSTORE RETURN JUMPDEST SWAP1 POP CALLVALUE PUSH2 0x1A7 JUMPI DUP2 PUSH1 0x3 NOT CALLDATASIZE ADD SLT PUSH2 0x1A7 JUMPI PUSH1 0x20 SWAP1 SELFBALANCE DUP2 MSTORE RETURN INVALID LOG2 PUSH5 0x6970667358 0x22 SLT KECCAK256 COINBASE GT MUL 0x2B CHAINID RETURNDATACOPY RETURN 0xCA 0xD1 PUSH3 0xC2AD0F ADD 0xB8 SWAP13 SLOAD 0xB9 0xDE NOT PUSH17 0x907C4481EDFB370B5ADDEA64736F6C6343 STOP ADDMOD XOR STOP CALLER "},"methodIdentifiers":{"factoryAddress()":"966dae0e","getBalance()":"12065fe0","owner()":"8da5cb5b","withdrawFunds(address,uint256)":"c1075329"}}}}}