{"contracts/Swap.sol":{"VortexSwapper":{"abi":[{"inputs":[{"internalType":"address","name":"_positionManager","type":"address"},{"internalType":"address","name":"_weth","type":"address"},{"internalType":"address","name":"_uniswapFactory","type":"address"},{"internalType":"address","name":"_swapRouter","type":"address"},{"internalType":"address","name":"_quoterAddress","type":"address"}],"stateMutability":"nonpayable","type":"constructor"},{"stateMutability":"payable","type":"fallback"},{"inputs":[],"name":"activeTokenCount","outputs":[{"internalType":"uint256","name":"","type":"uint256"}],"stateMutability":"view","type":"function"},{"inputs":[{"internalType":"address","name":"token","type":"address"},{"internalType":"address","name":"spender","type":"address"},{"internalType":"uint256","name":"amount","type":"uint256"}],"name":"approveToken","outputs":[],"stateMutability":"nonpayable","type":"function"},{"inputs":[],"name":"deadAddress","outputs":[{"internalType":"address","name":"","type":"address"}],"stateMutability":"view","type":"function"},{"inputs":[{"internalType":"uint256","name":"amountIn","type":"uint256"},{"internalType":"address","name":"tokenAddress","type":"address"}],"name":"externalFunction","outputs":[{"internalType":"uint256","name":"ethReceived","type":"uint256"}],"stateMutability":"nonpayable","type":"function"},{"inputs":[{"internalType":"uint256","name":"","type":"uint256"}],"name":"feeTiers","outputs":[{"internalType":"uint24","name":"","type":"uint24"}],"stateMutability":"view","type":"function"},{"inputs":[{"internalType":"address","name":"tokenIn","type":"address"},{"internalType":"address","name":"tokenOut","type":"address"},{"internalType":"uint256","name":"amountIn","type":"uint256"}],"name":"getEstimatedAmountOut","outputs":[{"internalType":"uint256","name":"amountOut","type":"uint256"}],"stateMutability":"nonpayable","type":"function"},{"inputs":[{"internalType":"address","name":"tokenIn","type":"address"},{"internalType":"address","name":"tokenOut","type":"address"}],"name":"getOptimalFee","outputs":[{"internalType":"uint24","name":"","type":"uint24"}],"stateMutability":"view","type":"function"},{"inputs":[],"name":"owner","outputs":[{"internalType":"address","name":"","type":"address"}],"stateMutability":"view","type":"function"},{"inputs":[],"name":"positionManager","outputs":[{"internalType":"contract INonfungiblePositionManager","name":"","type":"address"}],"stateMutability":"view","type":"function"},{"inputs":[],"name":"quoter","outputs":[{"internalType":"contract IQuoterV2","name":"","type":"address"}],"stateMutability":"view","type":"function"},{"inputs":[],"name":"swapRouter","outputs":[{"internalType":"contract ISwapRouter","name":"","type":"address"}],"stateMutability":"view","type":"function"},{"inputs":[{"internalType":"uint256","name":"amountIn","type":"uint256"},{"internalType":"address","name":"tokenAddress","type":"address"}],"name":"swapTokensforWETH","outputs":[{"internalType":"uint256","name":"amountOut","type":"uint256"}],"stateMutability":"nonpayable","type":"function"},{"inputs":[{"internalType":"uint256","name":"amountIn","type":"uint256"},{"internalType":"address","name":"tokenAddress","type":"address"}],"name":"swapWETHforTokens","outputs":[{"internalType":"uint256","name":"amountOut","type":"uint256"}],"stateMutability":"payable","type":"function"},{"inputs":[],"name":"tokenCount","outputs":[{"internalType":"uint256","name":"","type":"uint256"}],"stateMutability":"view","type":"function"},{"inputs":[],"name":"totalFees","outputs":[{"internalType":"uint256","name":"","type":"uint256"}],"stateMutability":"view","type":"function"},{"inputs":[],"name":"uniswapFactory","outputs":[{"internalType":"contract IUniswapV3Factory","name":"","type":"address"}],"stateMutability":"view","type":"function"},{"inputs":[],"name":"weth","outputs":[{"internalType":"address","name":"","type":"address"}],"stateMutability":"view","type":"function"},{"stateMutability":"payable","type":"receive"}],"evm":{"bytecode":{"linkReferences":{},"object":"608034610179576001600160401b03601f610e9338819003918201601f1916840191908383118584101761017e578160a092869260409586528339810103126101795761004b83610194565b9060209161005b60208601610194565b94610067838201610194565b92610080608061007960608501610194565b9301610194565b95600092838055600198846001558460025560018060a01b03199261dead8460045416176004558451906060820190828210908211176101655785526101f48152610bb86020820152612710818601529496875b600390818a1015610106578c918b9162ffffff61ffff8b5116928d8102901b92831b921b1916179701980197956100d4565b8b91508890600a5560018060a01b039485809481809416896005541617600555168760065416176006551685600754161760075516836008541617600855168160035416176003553390600954161760095551610cea90816101a98239f35b634e487b7160e01b87526041600452602487fd5b600080fd5b634e487b7160e01b600052604160045260246000fd5b51906001600160a01b03821682036101795756fe6040608081526004908136101561001d575b5050361561001b57005b005b600090813560e01c8062b3af631461040c57806313114a9d14610578578063230ed44a1461053b57806327c8f835146105145780633205fae0146104cb5780633fc8cef3146104a4578063791b98bc1461047d5780638b68e0381461045f5780638bdb2afa146104385780638da5cb5b1461041157806399021a7c1461040c5780639f181b5e146103f0578063c31c9c07146103c9578063c6bbd5a7146103a2578063cd863ef5146101b857909180938263da3e33971461010957505063e6ce06e2036100115734610105576020906100fe6100f8366108b9565b91610ab0565b9051908152f35b5080fd5b909150346101055761015c916001600160a01b03602092610129366108b9565b885163095ea7b360e01b81526001600160a01b039092169382019384526020840152958694919385939091849160400190565b0393165af19081156101ac5761017a9250839161017d575b5061095a565b80f35b61019f915060203d6020116101a5575b6101978183610920565b810190610942565b38610174565b503d61018d565b505051903d90823e3d90fd5b50806003193601126101055782356101ce610596565b906001600160a01b03946101e782848860035416610ab0565b95605f870296808804605f149015171561038f5780600354169681600754169786519889809263095ea7b360e01b8252818b60209d8e958b8b83019161024292602090939291936001600160a01b0360408201951681520152565b03925af180156103855761030e9694928a969492606492610368575b50828060035416968a5197610272896108ee565b88521687870152612710898701523360608701528460808701520460a08501528760c0850152600754169186518096819582946304e45aaf60e01b8452830191909160c060e0820193816001600160a01b039182815116855282602082015116602086015262ffffff60408201511660408601528260608201511660608601526080810151608086015260a081015160a0860152015116910152565b03925af192831561035d578093610328575b505051908152f35b909192508382813d8311610356575b6103418183610920565b81010312610353575051903880610320565b80fd5b503d610337565b8251903d90823e3d90fd5b61037e90883d8a116101a5576101978183610920565b503861025e565b87513d8a823e3d90fd5b602486601184634e487b7160e01b835252fd5b50346101055781600319360112610105576020906001600160a01b03600854169051908152f35b50346101055781600319360112610105576020906001600160a01b03600754169051908152f35b5034610105578160031936011261010557602091549051908152f35b6105b1565b50346101055781600319360112610105576020906001600160a01b03600954169051908152f35b50346101055781600319360112610105576020906001600160a01b03600654169051908152f35b50346101055781600319360112610105576020906001549051908152f35b50346101055781600319360112610105576020906001600160a01b03600554169051908152f35b50346101055781600319360112610105576020906001600160a01b03600354169051908152f35b50823461051057816003193601126105105735916001600160a01b0383168303610353575062ffffff610508602093610502610596565b906109a5565b915191168152f35b8280fd5b509034610353578060031936011261035357506001600160a01b0360209254169051908152f35b5082346105105760203660031901126105105735916003831015610353575062ffffff61056960209361088a565b90549060031b1c169051908152f35b50346101055781600319360112610105576020906002549051908152f35b602435906001600160a01b03821682036105ac57565b600080fd5b346105ac576040806003193601126105ac5760048035916105d0610596565b92801561084757815192602094858501947f23b872dd0000000000000000000000000000000000000000000000000000000086523360248201523060448201528360648201526064815260a081019067ffffffffffffffff9181811083821117610832578652600080978192519082865af1903d1561082a573d90811161081757855190610667601f8201601f19168a0183610920565b81523d878983013e5b816107e7575b50156107a557600754845163095ea7b360e01b81526001600160a01b039182168482019081526020810186905292821694919288908290819060400103818a895af190811561079b57916106d861030e9694928a96948a91610784575061095a565b81600354168751946106e9866108ee565b8552858501526127108785015233606085015260808401528660a08401528660c084015260075416908686518096819582946304e45aaf60e01b8452830191909160c060e0820193816001600160a01b039182815116855282602082015116602086015262ffffff60408201511660408601528260608201511660608601526080810151608086015260a081015160a0860152015116910152565b61019f9150873d89116101a5576101978183610920565b86513d89823e3d90fd5b6064828786519162461bcd60e51b8352820152600360248201527f53544600000000000000000000000000000000000000000000000000000000006044820152fd5b805180159250889083156107ff575b50505038610676565b61080f9350820181019101610942565b3887816107f6565b602487604186634e487b7160e01b835252fd5b506060610670565b604185634e487b7160e01b6000525260246000fd5b606483602084519162461bcd60e51b8352820152602060248201527f416d6f756e74206d7573742062652067726561746572207468616e207a65726f6044820152fd5b9060038210156108a3576003600a808404810193060290565b634e487b7160e01b600052603260045260246000fd5b60609060031901126105ac576001600160a01b039060043582811681036105ac579160243590811681036105ac579060443590565b60e0810190811067ffffffffffffffff82111761090a57604052565b634e487b7160e01b600052604160045260246000fd5b90601f8019910116810190811067ffffffffffffffff82111761090a57604052565b908160209103126105ac575180151581036105ac5790565b1561096157565b606460405162461bcd60e51b815260206004820152600f60248201527f417070726f76616c206661696c656400000000000000000000000000000000006044820152fd5b6000906001600160a01b038060065416925b600380821015610aa5576109ca8261088a565b919062ffffff9283915490831b1c166040908151907f1698ee820000000000000000000000000000000000000000000000000000000082528688166004830152868a1660248301526044820152602080826064818c5afa928315610a9b575090869291600092610a5f575b505016610a465750506001016109b7565b945094509050610a56915061088a565b9054911b1c1690565b9080929350813d8311610a94575b610a778183610920565b810103126101055751908582168203610353575084903880610a35565b503d610a6d565b513d6000823e3d90fd5b505050505050600090565b919062ffffff80610ac183866109a5565b16928315610c4a57604094855160a081019080821067ffffffffffffffff83111761090a5760809360a4928952886001600160a01b03809781809716855281602086019a168a52828501938452606085019a8b528785019060009b8c9586845284806008541696519d8e9b8c9a7fc6a5026a000000000000000000000000000000000000000000000000000000008c52511660048b01525116602489015251604488015251166064860152511660848401525af191839083610bf3575b505050610bee576084825162461bcd60e51b815260206004820152603960248201527f51756f7465722063616c6c206661696c6564206f72206e6f20617661696c616260448201527f6c65206c697175696469747920666f72207468652070616972000000000000006064820152fd5b905090565b90919293506080813d608011610c42575b81610c1160809383610920565b81010312610105578051926020820151908116036101055784015163ffffffff811603610353575090388080610b7e565b3d9150610c04565b608460405162461bcd60e51b815260206004820152602660248201527f4e6f2076616c696420706f6f6c20666f756e6420666f722074686520746f6b6560448201527f6e207061697200000000000000000000000000000000000000000000000000006064820152fdfea264697066735822122052435efdf565e1d1ac5d5cec3f6b25758233f1ba84f502a9f4512c84173299fb64736f6c63430008180033","opcodes":"PUSH1 0x80 CALLVALUE PUSH2 0x179 JUMPI PUSH1 0x1 PUSH1 0x1 PUSH1 0x40 SHL SUB PUSH1 0x1F PUSH2 0xE93 CODESIZE DUP2 SWAP1 SUB SWAP2 DUP3 ADD PUSH1 0x1F NOT AND DUP5 ADD SWAP2 SWAP1 DUP4 DUP4 GT DUP6 DUP5 LT OR PUSH2 0x17E JUMPI DUP2 PUSH1 0xA0 SWAP3 DUP7 SWAP3 PUSH1 0x40 SWAP6 DUP7 MSTORE DUP4 CODECOPY DUP2 ADD SUB SLT PUSH2 0x179 JUMPI PUSH2 0x4B DUP4 PUSH2 0x194 JUMP JUMPDEST SWAP1 PUSH1 0x20 SWAP2 PUSH2 0x5B PUSH1 0x20 DUP7 ADD PUSH2 0x194 JUMP JUMPDEST SWAP5 PUSH2 0x67 DUP4 DUP3 ADD PUSH2 0x194 JUMP JUMPDEST SWAP3 PUSH2 0x80 PUSH1 0x80 PUSH2 0x79 PUSH1 0x60 DUP6 ADD PUSH2 0x194 JUMP JUMPDEST SWAP4 ADD PUSH2 0x194 JUMP JUMPDEST SWAP6 PUSH1 0x0 SWAP3 DUP4 DUP1 SSTORE PUSH1 0x1 SWAP9 DUP5 PUSH1 0x1 SSTORE DUP5 PUSH1 0x2 SSTORE PUSH1 0x1 DUP1 PUSH1 0xA0 SHL SUB NOT SWAP3 PUSH2 0xDEAD DUP5 PUSH1 0x4 SLOAD AND OR PUSH1 0x4 SSTORE DUP5 MLOAD SWAP1 PUSH1 0x60 DUP3 ADD SWAP1 DUP3 DUP3 LT SWAP1 DUP3 GT OR PUSH2 0x165 JUMPI DUP6 MSTORE PUSH2 0x1F4 DUP2 MSTORE PUSH2 0xBB8 PUSH1 0x20 DUP3 ADD MSTORE PUSH2 0x2710 DUP2 DUP7 ADD MSTORE SWAP5 SWAP7 DUP8 JUMPDEST PUSH1 0x3 SWAP1 DUP2 DUP11 LT ISZERO PUSH2 0x106 JUMPI DUP13 SWAP2 DUP12 SWAP2 PUSH3 0xFFFFFF PUSH2 0xFFFF DUP12 MLOAD AND SWAP3 DUP14 DUP2 MUL SWAP1 SHL SWAP3 DUP4 SHL SWAP3 SHL NOT AND OR SWAP8 ADD SWAP9 ADD SWAP8 SWAP6 PUSH2 0xD4 JUMP JUMPDEST DUP12 SWAP2 POP DUP9 SWAP1 PUSH1 0xA SSTORE PUSH1 0x1 DUP1 PUSH1 0xA0 SHL SUB SWAP5 DUP6 DUP1 SWAP5 DUP2 DUP1 SWAP5 AND DUP10 PUSH1 0x5 SLOAD AND OR PUSH1 0x5 SSTORE AND DUP8 PUSH1 0x6 SLOAD AND OR PUSH1 0x6 SSTORE AND DUP6 PUSH1 0x7 SLOAD AND OR PUSH1 0x7 SSTORE AND DUP4 PUSH1 0x8 SLOAD AND OR PUSH1 0x8 SSTORE AND DUP2 PUSH1 0x3 SLOAD AND OR PUSH1 0x3 SSTORE CALLER SWAP1 PUSH1 0x9 SLOAD AND OR PUSH1 0x9 SSTORE MLOAD PUSH2 0xCEA SWAP1 DUP2 PUSH2 0x1A9 DUP3 CODECOPY RETURN JUMPDEST PUSH4 0x4E487B71 PUSH1 0xE0 SHL DUP8 MSTORE PUSH1 0x41 PUSH1 0x4 MSTORE PUSH1 0x24 DUP8 REVERT JUMPDEST PUSH1 0x0 DUP1 REVERT JUMPDEST PUSH4 0x4E487B71 PUSH1 0xE0 SHL PUSH1 0x0 MSTORE PUSH1 0x41 PUSH1 0x4 MSTORE PUSH1 0x24 PUSH1 0x0 REVERT JUMPDEST MLOAD SWAP1 PUSH1 0x1 PUSH1 0x1 PUSH1 0xA0 SHL SUB DUP3 AND DUP3 SUB PUSH2 0x179 JUMPI JUMP INVALID PUSH1 0x40 PUSH1 0x80 DUP2 MSTORE PUSH1 0x4 SWAP1 DUP2 CALLDATASIZE LT ISZERO PUSH2 0x1D JUMPI JUMPDEST POP POP CALLDATASIZE ISZERO PUSH2 0x1B JUMPI STOP JUMPDEST STOP JUMPDEST PUSH1 0x0 SWAP1 DUP2 CALLDATALOAD PUSH1 0xE0 SHR DUP1 PUSH3 0xB3AF63 EQ PUSH2 0x40C JUMPI DUP1 PUSH4 0x13114A9D EQ PUSH2 0x578 JUMPI DUP1 PUSH4 0x230ED44A EQ PUSH2 0x53B JUMPI DUP1 PUSH4 0x27C8F835 EQ PUSH2 0x514 JUMPI DUP1 PUSH4 0x3205FAE0 EQ PUSH2 0x4CB JUMPI DUP1 PUSH4 0x3FC8CEF3 EQ PUSH2 0x4A4 JUMPI DUP1 PUSH4 0x791B98BC EQ PUSH2 0x47D JUMPI DUP1 PUSH4 0x8B68E038 EQ PUSH2 0x45F JUMPI DUP1 PUSH4 0x8BDB2AFA EQ PUSH2 0x438 JUMPI DUP1 PUSH4 0x8DA5CB5B EQ PUSH2 0x411 JUMPI DUP1 PUSH4 0x99021A7C EQ PUSH2 0x40C JUMPI DUP1 PUSH4 0x9F181B5E EQ PUSH2 0x3F0 JUMPI DUP1 PUSH4 0xC31C9C07 EQ PUSH2 0x3C9 JUMPI DUP1 PUSH4 0xC6BBD5A7 EQ PUSH2 0x3A2 JUMPI DUP1 PUSH4 0xCD863EF5 EQ PUSH2 0x1B8 JUMPI SWAP1 SWAP2 DUP1 SWAP4 DUP3 PUSH4 0xDA3E3397 EQ PUSH2 0x109 JUMPI POP POP PUSH4 0xE6CE06E2 SUB PUSH2 0x11 JUMPI CALLVALUE PUSH2 0x105 JUMPI PUSH1 0x20 SWAP1 PUSH2 0xFE PUSH2 0xF8 CALLDATASIZE PUSH2 0x8B9 JUMP JUMPDEST SWAP2 PUSH2 0xAB0 JUMP JUMPDEST SWAP1 MLOAD SWAP1 DUP2 MSTORE RETURN JUMPDEST POP DUP1 REVERT JUMPDEST SWAP1 SWAP2 POP CALLVALUE PUSH2 0x105 JUMPI PUSH2 0x15C SWAP2 PUSH1 0x1 PUSH1 0x1 PUSH1 0xA0 SHL SUB PUSH1 0x20 SWAP3 PUSH2 0x129 CALLDATASIZE PUSH2 0x8B9 JUMP JUMPDEST DUP9 MLOAD PUSH4 0x95EA7B3 PUSH1 0xE0 SHL DUP2 MSTORE PUSH1 0x1 PUSH1 0x1 PUSH1 0xA0 SHL SUB SWAP1 SWAP3 AND SWAP4 DUP3 ADD SWAP4 DUP5 MSTORE PUSH1 0x20 DUP5 ADD MSTORE SWAP6 DUP7 SWAP5 SWAP2 SWAP4 DUP6 SWAP4 SWAP1 SWAP2 DUP5 SWAP2 PUSH1 0x40 ADD SWAP1 JUMP JUMPDEST SUB SWAP4 AND GAS CALL SWAP1 DUP2 ISZERO PUSH2 0x1AC JUMPI PUSH2 0x17A SWAP3 POP DUP4 SWAP2 PUSH2 0x17D JUMPI JUMPDEST POP PUSH2 0x95A JUMP JUMPDEST DUP1 RETURN JUMPDEST PUSH2 0x19F SWAP2 POP PUSH1 0x20 RETURNDATASIZE PUSH1 0x20 GT PUSH2 0x1A5 JUMPI JUMPDEST PUSH2 0x197 DUP2 DUP4 PUSH2 0x920 JUMP JUMPDEST DUP2 ADD SWAP1 PUSH2 0x942 JUMP JUMPDEST CODESIZE PUSH2 0x174 JUMP JUMPDEST POP RETURNDATASIZE PUSH2 0x18D JUMP JUMPDEST POP POP MLOAD SWAP1 RETURNDATASIZE SWAP1 DUP3 RETURNDATACOPY RETURNDATASIZE SWAP1 REVERT JUMPDEST POP DUP1 PUSH1 0x3 NOT CALLDATASIZE ADD SLT PUSH2 0x105 JUMPI DUP3 CALLDATALOAD PUSH2 0x1CE PUSH2 0x596 JUMP JUMPDEST SWAP1 PUSH1 0x1 PUSH1 0x1 PUSH1 0xA0 SHL SUB SWAP5 PUSH2 0x1E7 DUP3 DUP5 DUP9 PUSH1 0x3 SLOAD AND PUSH2 0xAB0 JUMP JUMPDEST SWAP6 PUSH1 0x5F DUP8 MUL SWAP7 DUP1 DUP9 DIV PUSH1 0x5F EQ SWAP1 ISZERO OR ISZERO PUSH2 0x38F JUMPI DUP1 PUSH1 0x3 SLOAD AND SWAP7 DUP2 PUSH1 0x7 SLOAD AND SWAP8 DUP7 MLOAD SWAP9 DUP10 DUP1 SWAP3 PUSH4 0x95EA7B3 PUSH1 0xE0 SHL DUP3 MSTORE DUP2 DUP12 PUSH1 0x20 SWAP14 DUP15 SWAP6 DUP12 DUP12 DUP4 ADD SWAP2 PUSH2 0x242 SWAP3 PUSH1 0x20 SWAP1 SWAP4 SWAP3 SWAP2 SWAP4 PUSH1 0x1 PUSH1 0x1 PUSH1 0xA0 SHL SUB PUSH1 0x40 DUP3 ADD SWAP6 AND DUP2 MSTORE ADD MSTORE JUMP JUMPDEST SUB SWAP3 GAS CALL DUP1 ISZERO PUSH2 0x385 JUMPI PUSH2 0x30E SWAP7 SWAP5 SWAP3 DUP11 SWAP7 SWAP5 SWAP3 PUSH1 0x64 SWAP3 PUSH2 0x368 JUMPI JUMPDEST POP DUP3 DUP1 PUSH1 0x3 SLOAD AND SWAP7 DUP11 MLOAD SWAP8 PUSH2 0x272 DUP10 PUSH2 0x8EE JUMP JUMPDEST DUP9 MSTORE AND DUP8 DUP8 ADD MSTORE PUSH2 0x2710 DUP10 DUP8 ADD MSTORE CALLER PUSH1 0x60 DUP8 ADD MSTORE DUP5 PUSH1 0x80 DUP8 ADD MSTORE DIV PUSH1 0xA0 DUP6 ADD MSTORE DUP8 PUSH1 0xC0 DUP6 ADD MSTORE PUSH1 0x7 SLOAD AND SWAP2 DUP7 MLOAD DUP1 SWAP7 DUP2 SWAP6 DUP3 SWAP5 PUSH4 0x4E45AAF PUSH1 0xE0 SHL DUP5 MSTORE DUP4 ADD SWAP2 SWAP1 SWAP2 PUSH1 0xC0 PUSH1 0xE0 DUP3 ADD SWAP4 DUP2 PUSH1 0x1 PUSH1 0x1 PUSH1 0xA0 SHL SUB SWAP2 DUP3 DUP2 MLOAD AND DUP6 MSTORE DUP3 PUSH1 0x20 DUP3 ADD MLOAD AND PUSH1 0x20 DUP7 ADD MSTORE PUSH3 0xFFFFFF PUSH1 0x40 DUP3 ADD MLOAD AND PUSH1 0x40 DUP7 ADD MSTORE DUP3 PUSH1 0x60 DUP3 ADD MLOAD AND PUSH1 0x60 DUP7 ADD MSTORE PUSH1 0x80 DUP2 ADD MLOAD PUSH1 0x80 DUP7 ADD MSTORE PUSH1 0xA0 DUP2 ADD MLOAD PUSH1 0xA0 DUP7 ADD MSTORE ADD MLOAD AND SWAP2 ADD MSTORE JUMP JUMPDEST SUB SWAP3 GAS CALL SWAP3 DUP4 ISZERO PUSH2 0x35D JUMPI DUP1 SWAP4 PUSH2 0x328 JUMPI JUMPDEST POP POP MLOAD SWAP1 DUP2 MSTORE RETURN JUMPDEST SWAP1 SWAP2 SWAP3 POP DUP4 DUP3 DUP2 RETURNDATASIZE DUP4 GT PUSH2 0x356 JUMPI JUMPDEST PUSH2 0x341 DUP2 DUP4 PUSH2 0x920 JUMP JUMPDEST DUP2 ADD SUB SLT PUSH2 0x353 JUMPI POP MLOAD SWAP1 CODESIZE DUP1 PUSH2 0x320 JUMP JUMPDEST DUP1 REVERT JUMPDEST POP RETURNDATASIZE PUSH2 0x337 JUMP JUMPDEST DUP3 MLOAD SWAP1 RETURNDATASIZE SWAP1 DUP3 RETURNDATACOPY RETURNDATASIZE SWAP1 REVERT JUMPDEST PUSH2 0x37E SWAP1 DUP9 RETURNDATASIZE DUP11 GT PUSH2 0x1A5 JUMPI PUSH2 0x197 DUP2 DUP4 PUSH2 0x920 JUMP JUMPDEST POP CODESIZE PUSH2 0x25E JUMP JUMPDEST DUP8 MLOAD RETURNDATASIZE DUP11 DUP3 RETURNDATACOPY RETURNDATASIZE SWAP1 REVERT JUMPDEST PUSH1 0x24 DUP7 PUSH1 0x11 DUP5 PUSH4 0x4E487B71 PUSH1 0xE0 SHL DUP4 MSTORE MSTORE REVERT JUMPDEST POP CALLVALUE PUSH2 0x105 JUMPI DUP2 PUSH1 0x3 NOT CALLDATASIZE ADD SLT PUSH2 0x105 JUMPI PUSH1 0x20 SWAP1 PUSH1 0x1 PUSH1 0x1 PUSH1 0xA0 SHL SUB PUSH1 0x8 SLOAD AND SWAP1 MLOAD SWAP1 DUP2 MSTORE RETURN JUMPDEST POP CALLVALUE PUSH2 0x105 JUMPI DUP2 PUSH1 0x3 NOT CALLDATASIZE ADD SLT PUSH2 0x105 JUMPI PUSH1 0x20 SWAP1 PUSH1 0x1 PUSH1 0x1 PUSH1 0xA0 SHL SUB PUSH1 0x7 SLOAD AND SWAP1 MLOAD SWAP1 DUP2 MSTORE RETURN JUMPDEST POP CALLVALUE PUSH2 0x105 JUMPI DUP2 PUSH1 0x3 NOT CALLDATASIZE ADD SLT PUSH2 0x105 JUMPI PUSH1 0x20 SWAP2 SLOAD SWAP1 MLOAD SWAP1 DUP2 MSTORE RETURN JUMPDEST PUSH2 0x5B1 JUMP JUMPDEST POP CALLVALUE PUSH2 0x105 JUMPI DUP2 PUSH1 0x3 NOT CALLDATASIZE ADD SLT PUSH2 0x105 JUMPI PUSH1 0x20 SWAP1 PUSH1 0x1 PUSH1 0x1 PUSH1 0xA0 SHL SUB PUSH1 0x9 SLOAD AND SWAP1 MLOAD SWAP1 DUP2 MSTORE RETURN JUMPDEST POP CALLVALUE PUSH2 0x105 JUMPI DUP2 PUSH1 0x3 NOT CALLDATASIZE ADD SLT PUSH2 0x105 JUMPI PUSH1 0x20 SWAP1 PUSH1 0x1 PUSH1 0x1 PUSH1 0xA0 SHL SUB PUSH1 0x6 SLOAD AND SWAP1 MLOAD SWAP1 DUP2 MSTORE RETURN JUMPDEST POP CALLVALUE PUSH2 0x105 JUMPI DUP2 PUSH1 0x3 NOT CALLDATASIZE ADD SLT PUSH2 0x105 JUMPI PUSH1 0x20 SWAP1 PUSH1 0x1 SLOAD SWAP1 MLOAD SWAP1 DUP2 MSTORE RETURN JUMPDEST POP CALLVALUE PUSH2 0x105 JUMPI DUP2 PUSH1 0x3 NOT CALLDATASIZE ADD SLT PUSH2 0x105 JUMPI PUSH1 0x20 SWAP1 PUSH1 0x1 PUSH1 0x1 PUSH1 0xA0 SHL SUB PUSH1 0x5 SLOAD AND SWAP1 MLOAD SWAP1 DUP2 MSTORE RETURN JUMPDEST POP CALLVALUE PUSH2 0x105 JUMPI DUP2 PUSH1 0x3 NOT CALLDATASIZE ADD SLT PUSH2 0x105 JUMPI PUSH1 0x20 SWAP1 PUSH1 0x1 PUSH1 0x1 PUSH1 0xA0 SHL SUB PUSH1 0x3 SLOAD AND SWAP1 MLOAD SWAP1 DUP2 MSTORE RETURN JUMPDEST POP DUP3 CALLVALUE PUSH2 0x510 JUMPI DUP2 PUSH1 0x3 NOT CALLDATASIZE ADD SLT PUSH2 0x510 JUMPI CALLDATALOAD SWAP2 PUSH1 0x1 PUSH1 0x1 PUSH1 0xA0 SHL SUB DUP4 AND DUP4 SUB PUSH2 0x353 JUMPI POP PUSH3 0xFFFFFF PUSH2 0x508 PUSH1 0x20 SWAP4 PUSH2 0x502 PUSH2 0x596 JUMP JUMPDEST SWAP1 PUSH2 0x9A5 JUMP JUMPDEST SWAP2 MLOAD SWAP2 AND DUP2 MSTORE RETURN JUMPDEST DUP3 DUP1 REVERT JUMPDEST POP SWAP1 CALLVALUE PUSH2 0x353 JUMPI DUP1 PUSH1 0x3 NOT CALLDATASIZE ADD SLT PUSH2 0x353 JUMPI POP PUSH1 0x1 PUSH1 0x1 PUSH1 0xA0 SHL SUB PUSH1 0x20 SWAP3 SLOAD AND SWAP1 MLOAD SWAP1 DUP2 MSTORE RETURN JUMPDEST POP DUP3 CALLVALUE PUSH2 0x510 JUMPI PUSH1 0x20 CALLDATASIZE PUSH1 0x3 NOT ADD SLT PUSH2 0x510 JUMPI CALLDATALOAD SWAP2 PUSH1 0x3 DUP4 LT ISZERO PUSH2 0x353 JUMPI POP PUSH3 0xFFFFFF PUSH2 0x569 PUSH1 0x20 SWAP4 PUSH2 0x88A JUMP JUMPDEST SWAP1 SLOAD SWAP1 PUSH1 0x3 SHL SHR AND SWAP1 MLOAD SWAP1 DUP2 MSTORE RETURN JUMPDEST POP CALLVALUE PUSH2 0x105 JUMPI DUP2 PUSH1 0x3 NOT CALLDATASIZE ADD SLT PUSH2 0x105 JUMPI PUSH1 0x20 SWAP1 PUSH1 0x2 SLOAD SWAP1 MLOAD SWAP1 DUP2 MSTORE RETURN JUMPDEST PUSH1 0x24 CALLDATALOAD SWAP1 PUSH1 0x1 PUSH1 0x1 PUSH1 0xA0 SHL SUB DUP3 AND DUP3 SUB PUSH2 0x5AC JUMPI JUMP JUMPDEST PUSH1 0x0 DUP1 REVERT JUMPDEST CALLVALUE PUSH2 0x5AC JUMPI PUSH1 0x40 DUP1 PUSH1 0x3 NOT CALLDATASIZE ADD SLT PUSH2 0x5AC JUMPI PUSH1 0x4 DUP1 CALLDATALOAD SWAP2 PUSH2 0x5D0 PUSH2 0x596 JUMP JUMPDEST SWAP3 DUP1 ISZERO PUSH2 0x847 JUMPI DUP2 MLOAD SWAP3 PUSH1 0x20 SWAP5 DUP6 DUP6 ADD SWAP5 PUSH32 0x23B872DD00000000000000000000000000000000000000000000000000000000 DUP7 MSTORE CALLER PUSH1 0x24 DUP3 ADD MSTORE ADDRESS PUSH1 0x44 DUP3 ADD MSTORE DUP4 PUSH1 0x64 DUP3 ADD MSTORE PUSH1 0x64 DUP2 MSTORE PUSH1 0xA0 DUP2 ADD SWAP1 PUSH8 0xFFFFFFFFFFFFFFFF SWAP2 DUP2 DUP2 LT DUP4 DUP3 GT OR PUSH2 0x832 JUMPI DUP7 MSTORE PUSH1 0x0 DUP1 SWAP8 DUP2 SWAP3 MLOAD SWAP1 DUP3 DUP7 GAS CALL SWAP1 RETURNDATASIZE ISZERO PUSH2 0x82A JUMPI RETURNDATASIZE SWAP1 DUP2 GT PUSH2 0x817 JUMPI DUP6 MLOAD SWAP1 PUSH2 0x667 PUSH1 0x1F DUP3 ADD PUSH1 0x1F NOT AND DUP11 ADD DUP4 PUSH2 0x920 JUMP JUMPDEST DUP2 MSTORE RETURNDATASIZE DUP8 DUP10 DUP4 ADD RETURNDATACOPY JUMPDEST DUP2 PUSH2 0x7E7 JUMPI JUMPDEST POP ISZERO PUSH2 0x7A5 JUMPI PUSH1 0x7 SLOAD DUP5 MLOAD PUSH4 0x95EA7B3 PUSH1 0xE0 SHL DUP2 MSTORE PUSH1 0x1 PUSH1 0x1 PUSH1 0xA0 SHL SUB SWAP2 DUP3 AND DUP5 DUP3 ADD SWAP1 DUP2 MSTORE PUSH1 0x20 DUP2 ADD DUP7 SWAP1 MSTORE SWAP3 DUP3 AND SWAP5 SWAP2 SWAP3 DUP9 SWAP1 DUP3 SWAP1 DUP2 SWAP1 PUSH1 0x40 ADD SUB DUP2 DUP11 DUP10 GAS CALL SWAP1 DUP2 ISZERO PUSH2 0x79B JUMPI SWAP2 PUSH2 0x6D8 PUSH2 0x30E SWAP7 SWAP5 SWAP3 DUP11 SWAP7 SWAP5 DUP11 SWAP2 PUSH2 0x784 JUMPI POP PUSH2 0x95A JUMP JUMPDEST DUP2 PUSH1 0x3 SLOAD AND DUP8 MLOAD SWAP5 PUSH2 0x6E9 DUP7 PUSH2 0x8EE JUMP JUMPDEST DUP6 MSTORE DUP6 DUP6 ADD MSTORE PUSH2 0x2710 DUP8 DUP6 ADD MSTORE CALLER PUSH1 0x60 DUP6 ADD MSTORE PUSH1 0x80 DUP5 ADD MSTORE DUP7 PUSH1 0xA0 DUP5 ADD MSTORE DUP7 PUSH1 0xC0 DUP5 ADD MSTORE PUSH1 0x7 SLOAD AND SWAP1 DUP7 DUP7 MLOAD DUP1 SWAP7 DUP2 SWAP6 DUP3 SWAP5 PUSH4 0x4E45AAF PUSH1 0xE0 SHL DUP5 MSTORE DUP4 ADD SWAP2 SWAP1 SWAP2 PUSH1 0xC0 PUSH1 0xE0 DUP3 ADD SWAP4 DUP2 PUSH1 0x1 PUSH1 0x1 PUSH1 0xA0 SHL SUB SWAP2 DUP3 DUP2 MLOAD AND DUP6 MSTORE DUP3 PUSH1 0x20 DUP3 ADD MLOAD AND PUSH1 0x20 DUP7 ADD MSTORE PUSH3 0xFFFFFF PUSH1 0x40 DUP3 ADD MLOAD AND PUSH1 0x40 DUP7 ADD MSTORE DUP3 PUSH1 0x60 DUP3 ADD MLOAD AND PUSH1 0x60 DUP7 ADD MSTORE PUSH1 0x80 DUP2 ADD MLOAD PUSH1 0x80 DUP7 ADD MSTORE PUSH1 0xA0 DUP2 ADD MLOAD PUSH1 0xA0 DUP7 ADD MSTORE ADD MLOAD AND SWAP2 ADD MSTORE JUMP JUMPDEST PUSH2 0x19F SWAP2 POP DUP8 RETURNDATASIZE DUP10 GT PUSH2 0x1A5 JUMPI PUSH2 0x197 DUP2 DUP4 PUSH2 0x920 JUMP JUMPDEST DUP7 MLOAD RETURNDATASIZE DUP10 DUP3 RETURNDATACOPY RETURNDATASIZE SWAP1 REVERT JUMPDEST PUSH1 0x64 DUP3 DUP8 DUP7 MLOAD SWAP2 PUSH3 0x461BCD PUSH1 0xE5 SHL DUP4 MSTORE DUP3 ADD MSTORE PUSH1 0x3 PUSH1 0x24 DUP3 ADD MSTORE PUSH32 0x5354460000000000000000000000000000000000000000000000000000000000 PUSH1 0x44 DUP3 ADD MSTORE REVERT JUMPDEST DUP1 MLOAD DUP1 ISZERO SWAP3 POP DUP9 SWAP1 DUP4 ISZERO PUSH2 0x7FF JUMPI JUMPDEST POP POP POP CODESIZE PUSH2 0x676 JUMP JUMPDEST PUSH2 0x80F SWAP4 POP DUP3 ADD DUP2 ADD SWAP2 ADD PUSH2 0x942 JUMP JUMPDEST CODESIZE DUP8 DUP2 PUSH2 0x7F6 JUMP JUMPDEST PUSH1 0x24 DUP8 PUSH1 0x41 DUP7 PUSH4 0x4E487B71 PUSH1 0xE0 SHL DUP4 MSTORE MSTORE REVERT JUMPDEST POP PUSH1 0x60 PUSH2 0x670 JUMP JUMPDEST PUSH1 0x41 DUP6 PUSH4 0x4E487B71 PUSH1 0xE0 SHL PUSH1 0x0 MSTORE MSTORE PUSH1 0x24 PUSH1 0x0 REVERT JUMPDEST PUSH1 0x64 DUP4 PUSH1 0x20 DUP5 MLOAD SWAP2 PUSH3 0x461BCD PUSH1 0xE5 SHL DUP4 MSTORE DUP3 ADD MSTORE PUSH1 0x20 PUSH1 0x24 DUP3 ADD MSTORE PUSH32 0x416D6F756E74206D7573742062652067726561746572207468616E207A65726F PUSH1 0x44 DUP3 ADD MSTORE REVERT JUMPDEST SWAP1 PUSH1 0x3 DUP3 LT ISZERO PUSH2 0x8A3 JUMPI PUSH1 0x3 PUSH1 0xA DUP1 DUP5 DIV DUP2 ADD SWAP4 MOD MUL SWAP1 JUMP JUMPDEST PUSH4 0x4E487B71 PUSH1 0xE0 SHL PUSH1 0x0 MSTORE PUSH1 0x32 PUSH1 0x4 MSTORE PUSH1 0x24 PUSH1 0x0 REVERT JUMPDEST PUSH1 0x60 SWAP1 PUSH1 0x3 NOT ADD SLT PUSH2 0x5AC JUMPI PUSH1 0x1 PUSH1 0x1 PUSH1 0xA0 SHL SUB SWAP1 PUSH1 0x4 CALLDATALOAD DUP3 DUP2 AND DUP2 SUB PUSH2 0x5AC JUMPI SWAP2 PUSH1 0x24 CALLDATALOAD SWAP1 DUP2 AND DUP2 SUB PUSH2 0x5AC JUMPI SWAP1 PUSH1 0x44 CALLDATALOAD SWAP1 JUMP JUMPDEST PUSH1 0xE0 DUP2 ADD SWAP1 DUP2 LT PUSH8 0xFFFFFFFFFFFFFFFF DUP3 GT OR PUSH2 0x90A JUMPI PUSH1 0x40 MSTORE JUMP JUMPDEST PUSH4 0x4E487B71 PUSH1 0xE0 SHL PUSH1 0x0 MSTORE PUSH1 0x41 PUSH1 0x4 MSTORE PUSH1 0x24 PUSH1 0x0 REVERT JUMPDEST SWAP1 PUSH1 0x1F DUP1 NOT SWAP2 ADD AND DUP2 ADD SWAP1 DUP2 LT PUSH8 0xFFFFFFFFFFFFFFFF DUP3 GT OR PUSH2 0x90A JUMPI PUSH1 0x40 MSTORE JUMP JUMPDEST SWAP1 DUP2 PUSH1 0x20 SWAP2 SUB SLT PUSH2 0x5AC JUMPI MLOAD DUP1 ISZERO ISZERO DUP2 SUB PUSH2 0x5AC JUMPI SWAP1 JUMP JUMPDEST ISZERO PUSH2 0x961 JUMPI JUMP JUMPDEST PUSH1 0x64 PUSH1 0x40 MLOAD PUSH3 0x461BCD PUSH1 0xE5 SHL DUP2 MSTORE PUSH1 0x20 PUSH1 0x4 DUP3 ADD MSTORE PUSH1 0xF PUSH1 0x24 DUP3 ADD MSTORE PUSH32 0x417070726F76616C206661696C65640000000000000000000000000000000000 PUSH1 0x44 DUP3 ADD MSTORE REVERT JUMPDEST PUSH1 0x0 SWAP1 PUSH1 0x1 PUSH1 0x1 PUSH1 0xA0 SHL SUB DUP1 PUSH1 0x6 SLOAD AND SWAP3 JUMPDEST PUSH1 0x3 DUP1 DUP3 LT ISZERO PUSH2 0xAA5 JUMPI PUSH2 0x9CA DUP3 PUSH2 0x88A JUMP JUMPDEST SWAP2 SWAP1 PUSH3 0xFFFFFF SWAP3 DUP4 SWAP2 SLOAD SWAP1 DUP4 SHL SHR AND PUSH1 0x40 SWAP1 DUP2 MLOAD SWAP1 PUSH32 0x1698EE8200000000000000000000000000000000000000000000000000000000 DUP3 MSTORE DUP7 DUP9 AND PUSH1 0x4 DUP4 ADD MSTORE DUP7 DUP11 AND PUSH1 0x24 DUP4 ADD MSTORE PUSH1 0x44 DUP3 ADD MSTORE PUSH1 0x20 DUP1 DUP3 PUSH1 0x64 DUP2 DUP13 GAS STATICCALL SWAP3 DUP4 ISZERO PUSH2 0xA9B JUMPI POP SWAP1 DUP7 SWAP3 SWAP2 PUSH1 0x0 SWAP3 PUSH2 0xA5F JUMPI JUMPDEST POP POP AND PUSH2 0xA46 JUMPI POP POP PUSH1 0x1 ADD PUSH2 0x9B7 JUMP JUMPDEST SWAP5 POP SWAP5 POP SWAP1 POP PUSH2 0xA56 SWAP2 POP PUSH2 0x88A JUMP JUMPDEST SWAP1 SLOAD SWAP2 SHL SHR AND SWAP1 JUMP JUMPDEST SWAP1 DUP1 SWAP3 SWAP4 POP DUP2 RETURNDATASIZE DUP4 GT PUSH2 0xA94 JUMPI JUMPDEST PUSH2 0xA77 DUP2 DUP4 PUSH2 0x920 JUMP JUMPDEST DUP2 ADD SUB SLT PUSH2 0x105 JUMPI MLOAD SWAP1 DUP6 DUP3 AND DUP3 SUB PUSH2 0x353 JUMPI POP DUP5 SWAP1 CODESIZE DUP1 PUSH2 0xA35 JUMP JUMPDEST POP RETURNDATASIZE PUSH2 0xA6D JUMP JUMPDEST MLOAD RETURNDATASIZE PUSH1 0x0 DUP3 RETURNDATACOPY RETURNDATASIZE SWAP1 REVERT JUMPDEST POP POP POP POP POP POP PUSH1 0x0 SWAP1 JUMP JUMPDEST SWAP2 SWAP1 PUSH3 0xFFFFFF DUP1 PUSH2 0xAC1 DUP4 DUP7 PUSH2 0x9A5 JUMP JUMPDEST AND SWAP3 DUP4 ISZERO PUSH2 0xC4A JUMPI PUSH1 0x40 SWAP5 DUP6 MLOAD PUSH1 0xA0 DUP2 ADD SWAP1 DUP1 DUP3 LT PUSH8 0xFFFFFFFFFFFFFFFF DUP4 GT OR PUSH2 0x90A JUMPI PUSH1 0x80 SWAP4 PUSH1 0xA4 SWAP3 DUP10 MSTORE DUP9 PUSH1 0x1 PUSH1 0x1 PUSH1 0xA0 SHL SUB DUP1 SWAP8 DUP2 DUP1 SWAP8 AND DUP6 MSTORE DUP2 PUSH1 0x20 DUP7 ADD SWAP11 AND DUP11 MSTORE DUP3 DUP6 ADD SWAP4 DUP5 MSTORE PUSH1 0x60 DUP6 ADD SWAP11 DUP12 MSTORE DUP8 DUP6 ADD SWAP1 PUSH1 0x0 SWAP12 DUP13 SWAP6 DUP7 DUP5 MSTORE DUP5 DUP1 PUSH1 0x8 SLOAD AND SWAP7 MLOAD SWAP14 DUP15 SWAP12 DUP13 SWAP11 PUSH32 0xC6A5026A00000000000000000000000000000000000000000000000000000000 DUP13 MSTORE MLOAD AND PUSH1 0x4 DUP12 ADD MSTORE MLOAD AND PUSH1 0x24 DUP10 ADD MSTORE MLOAD PUSH1 0x44 DUP9 ADD MSTORE MLOAD AND PUSH1 0x64 DUP7 ADD MSTORE MLOAD AND PUSH1 0x84 DUP5 ADD MSTORE GAS CALL SWAP2 DUP4 SWAP1 DUP4 PUSH2 0xBF3 JUMPI JUMPDEST POP POP POP PUSH2 0xBEE JUMPI PUSH1 0x84 DUP3 MLOAD PUSH3 0x461BCD PUSH1 0xE5 SHL DUP2 MSTORE PUSH1 0x20 PUSH1 0x4 DUP3 ADD MSTORE PUSH1 0x39 PUSH1 0x24 DUP3 ADD MSTORE PUSH32 0x51756F7465722063616C6C206661696C6564206F72206E6F20617661696C6162 PUSH1 0x44 DUP3 ADD MSTORE PUSH32 0x6C65206C697175696469747920666F7220746865207061697200000000000000 PUSH1 0x64 DUP3 ADD MSTORE REVERT JUMPDEST SWAP1 POP SWAP1 JUMP JUMPDEST SWAP1 SWAP2 SWAP3 SWAP4 POP PUSH1 0x80 DUP2 RETURNDATASIZE PUSH1 0x80 GT PUSH2 0xC42 JUMPI JUMPDEST DUP2 PUSH2 0xC11 PUSH1 0x80 SWAP4 DUP4 PUSH2 0x920 JUMP JUMPDEST DUP2 ADD SUB SLT PUSH2 0x105 JUMPI DUP1 MLOAD SWAP3 PUSH1 0x20 DUP3 ADD MLOAD SWAP1 DUP2 AND SUB PUSH2 0x105 JUMPI DUP5 ADD MLOAD PUSH4 0xFFFFFFFF DUP2 AND SUB PUSH2 0x353 JUMPI POP SWAP1 CODESIZE DUP1 DUP1 PUSH2 0xB7E JUMP JUMPDEST RETURNDATASIZE SWAP2 POP PUSH2 0xC04 JUMP JUMPDEST PUSH1 0x84 PUSH1 0x40 MLOAD PUSH3 0x461BCD PUSH1 0xE5 SHL DUP2 MSTORE PUSH1 0x20 PUSH1 0x4 DUP3 ADD MSTORE PUSH1 0x26 PUSH1 0x24 DUP3 ADD MSTORE PUSH32 0x4E6F2076616C696420706F6F6C20666F756E6420666F722074686520746F6B65 PUSH1 0x44 DUP3 ADD MSTORE PUSH32 0x6E20706169720000000000000000000000000000000000000000000000000000 PUSH1 0x64 DUP3 ADD MSTORE REVERT INVALID LOG2 PUSH5 0x6970667358 0x22 SLT KECCAK256 MSTORE NUMBER MCOPY REVERT CREATE2 PUSH6 0xE1D1AC5D5CEC EXTCODEHASH PUSH12 0x25758233F1BA84F502A9F451 0x2C DUP5 OR ORIGIN SWAP10 0xFB PUSH5 0x736F6C6343 STOP ADDMOD XOR STOP CALLER "},"methodIdentifiers":{"activeTokenCount()":"8b68e038","approveToken(address,address,uint256)":"da3e3397","deadAddress()":"27c8f835","externalFunction(uint256,address)":"99021a7c","feeTiers(uint256)":"230ed44a","getEstimatedAmountOut(address,address,uint256)":"e6ce06e2","getOptimalFee(address,address)":"3205fae0","owner()":"8da5cb5b","positionManager()":"791b98bc","quoter()":"c6bbd5a7","swapRouter()":"c31c9c07","swapTokensforWETH(uint256,address)":"00b3af63","swapWETHforTokens(uint256,address)":"cd863ef5","tokenCount()":"9f181b5e","totalFees()":"13114a9d","uniswapFactory()":"8bdb2afa","weth()":"3fc8cef3"}}}}}