{"contracts/TokenSwapper.sol":{"TokenSwapper":{"abi":[{"inputs":[{"internalType":"address","name":"_positionManager","type":"address"},{"internalType":"address","name":"_swapRouter","type":"address"},{"internalType":"address","name":"_weth","type":"address"}],"stateMutability":"nonpayable","type":"constructor"},{"anonymous":false,"inputs":[{"indexed":true,"internalType":"address","name":"tokenIn","type":"address"},{"indexed":false,"internalType":"uint256","name":"amountIn","type":"uint256"},{"indexed":true,"internalType":"address","name":"tokenOut","type":"address"},{"indexed":false,"internalType":"uint256","name":"amountOut","type":"uint256"}],"name":"Swap","type":"event"},{"inputs":[],"name":"IWETH","outputs":[{"internalType":"address","name":"","type":"address"}],"stateMutability":"view","type":"function"},{"inputs":[{"internalType":"address","name":"token","type":"address"}],"name":"addSupportedToken","outputs":[],"stateMutability":"nonpayable","type":"function"},{"inputs":[],"name":"owner","outputs":[{"internalType":"address","name":"","type":"address"}],"stateMutability":"view","type":"function"},{"inputs":[],"name":"positionManager","outputs":[{"internalType":"contract INonfungiblePositionManager","name":"","type":"address"}],"stateMutability":"view","type":"function"},{"inputs":[{"internalType":"address","name":"token","type":"address"}],"name":"removeSupportedToken","outputs":[],"stateMutability":"nonpayable","type":"function"},{"inputs":[{"internalType":"address","name":"","type":"address"}],"name":"supportedTokens","outputs":[{"internalType":"bool","name":"","type":"bool"}],"stateMutability":"view","type":"function"},{"inputs":[],"name":"swapRouter","outputs":[{"internalType":"contract ISwapRouter","name":"","type":"address"}],"stateMutability":"view","type":"function"},{"inputs":[{"internalType":"address","name":"tokenIn","type":"address"},{"internalType":"uint256","name":"amountIn","type":"uint256"},{"internalType":"address","name":"tokenOut","type":"address"}],"name":"swapTokens","outputs":[],"stateMutability":"nonpayable","type":"function"},{"inputs":[{"internalType":"address","name":"token","type":"address"},{"internalType":"uint256","name":"amount","type":"uint256"}],"name":"withdrawERC20","outputs":[],"stateMutability":"nonpayable","type":"function"},{"inputs":[{"internalType":"uint256","name":"amount","type":"uint256"}],"name":"withdrawETH","outputs":[],"stateMutability":"nonpayable","type":"function"},{"stateMutability":"payable","type":"receive"}],"evm":{"bytecode":{"linkReferences":{},"object":"6080346100aa57601f6106fe38819003918201601f19168301916001600160401b038311848410176100af578084926060946040528339810103126100aa57610047816100c5565b906100606040610059602084016100c5565b92016100c5565b60018060a01b0380928160018060a01b0319951685600254161760025516836003541617600355168160045416176004553390600054161760005560405161062490816100da8239f35b600080fd5b634e487b7160e01b600052604160045260246000fd5b51906001600160a01b03821682036100aa5756fe6080604081815260049182361015610022575b505050361561002057600080fd5b005b600090813560e01c90816368c4ac26146104bf575080636d69fcaf14610475578063763191901461042e578063791b98bc146104065780638da5cb5b146103e0578063a1db9782146102eb578063c31c9c07146102c3578063cbc7879814610119578063f14210a6146100c15763fcb313b50361001257346100be57806003193601126100be57506001600160a01b0360209254169051908152f35b80fd5b508092346101155760203660031901126101155781808092356001600160a01b038254166100f0813314610514565b82821561010c575bf115610102575080f35b51903d90823e3d90fd5b506108fc6100f8565b5080fd5b5091346102bf5760603660031901126102bf576101346104f9565b91602435604435936001600160a01b03908186168096036102bb5716928386526020906001825260ff8488205416806102ab575b1561026a5783517f23b872dd000000000000000000000000000000000000000000000000000000008152338282015230602482015283604482015282816064818b8a5af1908115610260578891610233575b50156101f25750908583927fe5aa1cf5889c85b4317294c95f7f50feb57435a6defc7fa30823011ec18212a19451928352820152a380f35b60649184519162461bcd60e51b8352820152601360248201527f5472616e7366657246726f6d206661696c6564000000000000000000000000006044820152fd5b6102539150833d8511610259575b61024b8183610585565b8101906105d6565b386101ba565b503d610241565b85513d8a823e3d90fd5b60649184519162461bcd60e51b8352820152601460248201527f546f6b656e73206e6f7420737570706f727465640000000000000000000000006044820152fd5b5085875260ff8488205416610168565b8680fd5b8280fd5b5090346101155781600319360112610115576020906001600160a01b03600354169051908152f35b509190346102bf57806003193601126102bf576103066104f9565b60206001600160a01b0391604483875416610322813314610514565b87865195869485937fa9059cbb0000000000000000000000000000000000000000000000000000000085528a8501526024356024850152165af19081156103d65784916103b7575b5015610374578280f35b906020606492519162461bcd60e51b8352820152600f60248201527f5472616e73666572206661696c656400000000000000000000000000000000006044820152fd5b6103d0915060203d6020116102595761024b8183610585565b3861036a565b82513d86823e3d90fd5b5090346101155781600319360112610115576001600160a01b0360209254169051908152f35b5090346101155781600319360112610115576020906001600160a01b03600254169051908152f35b509034610115576020366003190112610115576104496104f9565b6001600160a01b0390610460828554163314610514565b16825260016020528120805460ff1916905580f35b509034610115576020366003190112610115576104906104f9565b6001600160a01b03906104a7828554163314610514565b16825260016020528120600160ff1982541617905580f35b905082346102bf5760203660031901126102bf5760ff906020936001600160a01b036104e96104f9565b1681526001855220541615158152f35b600435906001600160a01b038216820361050f57565b600080fd5b1561051b57565b608460405162461bcd60e51b815260206004820152602160248201527f4f6e6c79206f776e65722063616e2063616c6c20746869732066756e6374696f60448201527f6e000000000000000000000000000000000000000000000000000000000000006064820152fd5b90601f8019910116810190811067ffffffffffffffff8211176105a757604052565b7f4e487b7100000000000000000000000000000000000000000000000000000000600052604160045260246000fd5b9081602091031261050f5751801515810361050f579056fea26469706673582212203f35dd19a5741d0cf2c29384cad597ee6f0982948f66c8bb5bd1a414802c943064736f6c63430008180033","opcodes":"PUSH1 0x80 CALLVALUE PUSH2 0xAA JUMPI PUSH1 0x1F PUSH2 0x6FE CODESIZE DUP2 SWAP1 SUB SWAP2 DUP3 ADD PUSH1 0x1F NOT AND DUP4 ADD SWAP2 PUSH1 0x1 PUSH1 0x1 PUSH1 0x40 SHL SUB DUP4 GT DUP5 DUP5 LT OR PUSH2 0xAF JUMPI DUP1 DUP5 SWAP3 PUSH1 0x60 SWAP5 PUSH1 0x40 MSTORE DUP4 CODECOPY DUP2 ADD SUB SLT PUSH2 0xAA JUMPI PUSH2 0x47 DUP2 PUSH2 0xC5 JUMP JUMPDEST SWAP1 PUSH2 0x60 PUSH1 0x40 PUSH2 0x59 PUSH1 0x20 DUP5 ADD PUSH2 0xC5 JUMP JUMPDEST SWAP3 ADD PUSH2 0xC5 JUMP JUMPDEST PUSH1 0x1 DUP1 PUSH1 0xA0 SHL SUB DUP1 SWAP3 DUP2 PUSH1 0x1 DUP1 PUSH1 0xA0 SHL SUB NOT SWAP6 AND DUP6 PUSH1 0x2 SLOAD AND OR PUSH1 0x2 SSTORE AND DUP4 PUSH1 0x3 SLOAD AND OR PUSH1 0x3 SSTORE AND DUP2 PUSH1 0x4 SLOAD AND OR PUSH1 0x4 SSTORE CALLER SWAP1 PUSH1 0x0 SLOAD AND OR PUSH1 0x0 SSTORE PUSH1 0x40 MLOAD PUSH2 0x624 SWAP1 DUP2 PUSH2 0xDA DUP3 CODECOPY RETURN JUMPDEST PUSH1 0x0 DUP1 REVERT JUMPDEST PUSH4 0x4E487B71 PUSH1 0xE0 SHL PUSH1 0x0 MSTORE PUSH1 0x41 PUSH1 0x4 MSTORE PUSH1 0x24 PUSH1 0x0 REVERT JUMPDEST MLOAD SWAP1 PUSH1 0x1 PUSH1 0x1 PUSH1 0xA0 SHL SUB DUP3 AND DUP3 SUB PUSH2 0xAA JUMPI JUMP INVALID PUSH1 0x80 PUSH1 0x40 DUP2 DUP2 MSTORE PUSH1 0x4 SWAP2 DUP3 CALLDATASIZE LT ISZERO PUSH2 0x22 JUMPI JUMPDEST POP POP POP CALLDATASIZE ISZERO PUSH2 0x20 JUMPI PUSH1 0x0 DUP1 REVERT JUMPDEST STOP JUMPDEST PUSH1 0x0 SWAP1 DUP2 CALLDATALOAD PUSH1 0xE0 SHR SWAP1 DUP2 PUSH4 0x68C4AC26 EQ PUSH2 0x4BF JUMPI POP DUP1 PUSH4 0x6D69FCAF EQ PUSH2 0x475 JUMPI DUP1 PUSH4 0x76319190 EQ PUSH2 0x42E JUMPI DUP1 PUSH4 0x791B98BC EQ PUSH2 0x406 JUMPI DUP1 PUSH4 0x8DA5CB5B EQ PUSH2 0x3E0 JUMPI DUP1 PUSH4 0xA1DB9782 EQ PUSH2 0x2EB JUMPI DUP1 PUSH4 0xC31C9C07 EQ PUSH2 0x2C3 JUMPI DUP1 PUSH4 0xCBC78798 EQ PUSH2 0x119 JUMPI DUP1 PUSH4 0xF14210A6 EQ PUSH2 0xC1 JUMPI PUSH4 0xFCB313B5 SUB PUSH2 0x12 JUMPI CALLVALUE PUSH2 0xBE JUMPI DUP1 PUSH1 0x3 NOT CALLDATASIZE ADD SLT PUSH2 0xBE JUMPI POP PUSH1 0x1 PUSH1 0x1 PUSH1 0xA0 SHL SUB PUSH1 0x20 SWAP3 SLOAD AND SWAP1 MLOAD SWAP1 DUP2 MSTORE RETURN JUMPDEST DUP1 REVERT JUMPDEST POP DUP1 SWAP3 CALLVALUE PUSH2 0x115 JUMPI PUSH1 0x20 CALLDATASIZE PUSH1 0x3 NOT ADD SLT PUSH2 0x115 JUMPI DUP2 DUP1 DUP1 SWAP3 CALLDATALOAD PUSH1 0x1 PUSH1 0x1 PUSH1 0xA0 SHL SUB DUP3 SLOAD AND PUSH2 0xF0 DUP2 CALLER EQ PUSH2 0x514 JUMP JUMPDEST DUP3 DUP3 ISZERO PUSH2 0x10C JUMPI JUMPDEST CALL ISZERO PUSH2 0x102 JUMPI POP DUP1 RETURN JUMPDEST MLOAD SWAP1 RETURNDATASIZE SWAP1 DUP3 RETURNDATACOPY RETURNDATASIZE SWAP1 REVERT JUMPDEST POP PUSH2 0x8FC PUSH2 0xF8 JUMP JUMPDEST POP DUP1 REVERT JUMPDEST POP SWAP2 CALLVALUE PUSH2 0x2BF JUMPI PUSH1 0x60 CALLDATASIZE PUSH1 0x3 NOT ADD SLT PUSH2 0x2BF JUMPI PUSH2 0x134 PUSH2 0x4F9 JUMP JUMPDEST SWAP2 PUSH1 0x24 CALLDATALOAD PUSH1 0x44 CALLDATALOAD SWAP4 PUSH1 0x1 PUSH1 0x1 PUSH1 0xA0 SHL SUB SWAP1 DUP2 DUP7 AND DUP1 SWAP7 SUB PUSH2 0x2BB JUMPI AND SWAP3 DUP4 DUP7 MSTORE PUSH1 0x20 SWAP1 PUSH1 0x1 DUP3 MSTORE PUSH1 0xFF DUP5 DUP9 KECCAK256 SLOAD AND DUP1 PUSH2 0x2AB JUMPI JUMPDEST ISZERO PUSH2 0x26A JUMPI DUP4 MLOAD PUSH32 0x23B872DD00000000000000000000000000000000000000000000000000000000 DUP2 MSTORE CALLER DUP3 DUP3 ADD MSTORE ADDRESS PUSH1 0x24 DUP3 ADD MSTORE DUP4 PUSH1 0x44 DUP3 ADD MSTORE DUP3 DUP2 PUSH1 0x64 DUP2 DUP12 DUP11 GAS CALL SWAP1 DUP2 ISZERO PUSH2 0x260 JUMPI DUP9 SWAP2 PUSH2 0x233 JUMPI JUMPDEST POP ISZERO PUSH2 0x1F2 JUMPI POP SWAP1 DUP6 DUP4 SWAP3 PUSH32 0xE5AA1CF5889C85B4317294C95F7F50FEB57435A6DEFC7FA30823011EC18212A1 SWAP5 MLOAD SWAP3 DUP4 MSTORE DUP3 ADD MSTORE LOG3 DUP1 RETURN JUMPDEST PUSH1 0x64 SWAP2 DUP5 MLOAD SWAP2 PUSH3 0x461BCD PUSH1 0xE5 SHL DUP4 MSTORE DUP3 ADD MSTORE PUSH1 0x13 PUSH1 0x24 DUP3 ADD MSTORE PUSH32 0x5472616E7366657246726F6D206661696C656400000000000000000000000000 PUSH1 0x44 DUP3 ADD MSTORE REVERT JUMPDEST PUSH2 0x253 SWAP2 POP DUP4 RETURNDATASIZE DUP6 GT PUSH2 0x259 JUMPI JUMPDEST PUSH2 0x24B DUP2 DUP4 PUSH2 0x585 JUMP JUMPDEST DUP2 ADD SWAP1 PUSH2 0x5D6 JUMP JUMPDEST CODESIZE PUSH2 0x1BA JUMP JUMPDEST POP RETURNDATASIZE PUSH2 0x241 JUMP JUMPDEST DUP6 MLOAD RETURNDATASIZE DUP11 DUP3 RETURNDATACOPY RETURNDATASIZE SWAP1 REVERT JUMPDEST PUSH1 0x64 SWAP2 DUP5 MLOAD SWAP2 PUSH3 0x461BCD PUSH1 0xE5 SHL DUP4 MSTORE DUP3 ADD MSTORE PUSH1 0x14 PUSH1 0x24 DUP3 ADD MSTORE PUSH32 0x546F6B656E73206E6F7420737570706F72746564000000000000000000000000 PUSH1 0x44 DUP3 ADD MSTORE REVERT JUMPDEST POP DUP6 DUP8 MSTORE PUSH1 0xFF DUP5 DUP9 KECCAK256 SLOAD AND PUSH2 0x168 JUMP JUMPDEST DUP7 DUP1 REVERT JUMPDEST DUP3 DUP1 REVERT JUMPDEST POP SWAP1 CALLVALUE PUSH2 0x115 JUMPI DUP2 PUSH1 0x3 NOT CALLDATASIZE ADD SLT PUSH2 0x115 JUMPI PUSH1 0x20 SWAP1 PUSH1 0x1 PUSH1 0x1 PUSH1 0xA0 SHL SUB PUSH1 0x3 SLOAD AND SWAP1 MLOAD SWAP1 DUP2 MSTORE RETURN JUMPDEST POP SWAP2 SWAP1 CALLVALUE PUSH2 0x2BF JUMPI DUP1 PUSH1 0x3 NOT CALLDATASIZE ADD SLT PUSH2 0x2BF JUMPI PUSH2 0x306 PUSH2 0x4F9 JUMP JUMPDEST PUSH1 0x20 PUSH1 0x1 PUSH1 0x1 PUSH1 0xA0 SHL SUB SWAP2 PUSH1 0x44 DUP4 DUP8 SLOAD AND PUSH2 0x322 DUP2 CALLER EQ PUSH2 0x514 JUMP JUMPDEST DUP8 DUP7 MLOAD SWAP6 DUP7 SWAP5 DUP6 SWAP4 PUSH32 0xA9059CBB00000000000000000000000000000000000000000000000000000000 DUP6 MSTORE DUP11 DUP6 ADD MSTORE PUSH1 0x24 CALLDATALOAD PUSH1 0x24 DUP6 ADD MSTORE AND GAS CALL SWAP1 DUP2 ISZERO PUSH2 0x3D6 JUMPI DUP5 SWAP2 PUSH2 0x3B7 JUMPI JUMPDEST POP ISZERO PUSH2 0x374 JUMPI DUP3 DUP1 RETURN JUMPDEST SWAP1 PUSH1 0x20 PUSH1 0x64 SWAP3 MLOAD SWAP2 PUSH3 0x461BCD PUSH1 0xE5 SHL DUP4 MSTORE DUP3 ADD MSTORE PUSH1 0xF PUSH1 0x24 DUP3 ADD MSTORE PUSH32 0x5472616E73666572206661696C65640000000000000000000000000000000000 PUSH1 0x44 DUP3 ADD MSTORE REVERT JUMPDEST PUSH2 0x3D0 SWAP2 POP PUSH1 0x20 RETURNDATASIZE PUSH1 0x20 GT PUSH2 0x259 JUMPI PUSH2 0x24B DUP2 DUP4 PUSH2 0x585 JUMP JUMPDEST CODESIZE PUSH2 0x36A JUMP JUMPDEST DUP3 MLOAD RETURNDATASIZE DUP7 DUP3 RETURNDATACOPY RETURNDATASIZE SWAP1 REVERT JUMPDEST POP SWAP1 CALLVALUE PUSH2 0x115 JUMPI DUP2 PUSH1 0x3 NOT CALLDATASIZE ADD SLT PUSH2 0x115 JUMPI PUSH1 0x1 PUSH1 0x1 PUSH1 0xA0 SHL SUB PUSH1 0x20 SWAP3 SLOAD AND SWAP1 MLOAD SWAP1 DUP2 MSTORE RETURN JUMPDEST POP SWAP1 CALLVALUE PUSH2 0x115 JUMPI DUP2 PUSH1 0x3 NOT CALLDATASIZE ADD SLT PUSH2 0x115 JUMPI PUSH1 0x20 SWAP1 PUSH1 0x1 PUSH1 0x1 PUSH1 0xA0 SHL SUB PUSH1 0x2 SLOAD AND SWAP1 MLOAD SWAP1 DUP2 MSTORE RETURN JUMPDEST POP SWAP1 CALLVALUE PUSH2 0x115 JUMPI PUSH1 0x20 CALLDATASIZE PUSH1 0x3 NOT ADD SLT PUSH2 0x115 JUMPI PUSH2 0x449 PUSH2 0x4F9 JUMP JUMPDEST PUSH1 0x1 PUSH1 0x1 PUSH1 0xA0 SHL SUB SWAP1 PUSH2 0x460 DUP3 DUP6 SLOAD AND CALLER EQ PUSH2 0x514 JUMP JUMPDEST AND DUP3 MSTORE PUSH1 0x1 PUSH1 0x20 MSTORE DUP2 KECCAK256 DUP1 SLOAD PUSH1 0xFF NOT AND SWAP1 SSTORE DUP1 RETURN JUMPDEST POP SWAP1 CALLVALUE PUSH2 0x115 JUMPI PUSH1 0x20 CALLDATASIZE PUSH1 0x3 NOT ADD SLT PUSH2 0x115 JUMPI PUSH2 0x490 PUSH2 0x4F9 JUMP JUMPDEST PUSH1 0x1 PUSH1 0x1 PUSH1 0xA0 SHL SUB SWAP1 PUSH2 0x4A7 DUP3 DUP6 SLOAD AND CALLER EQ PUSH2 0x514 JUMP JUMPDEST AND DUP3 MSTORE PUSH1 0x1 PUSH1 0x20 MSTORE DUP2 KECCAK256 PUSH1 0x1 PUSH1 0xFF NOT DUP3 SLOAD AND OR SWAP1 SSTORE DUP1 RETURN JUMPDEST SWAP1 POP DUP3 CALLVALUE PUSH2 0x2BF JUMPI PUSH1 0x20 CALLDATASIZE PUSH1 0x3 NOT ADD SLT PUSH2 0x2BF JUMPI PUSH1 0xFF SWAP1 PUSH1 0x20 SWAP4 PUSH1 0x1 PUSH1 0x1 PUSH1 0xA0 SHL SUB PUSH2 0x4E9 PUSH2 0x4F9 JUMP JUMPDEST AND DUP2 MSTORE PUSH1 0x1 DUP6 MSTORE KECCAK256 SLOAD AND ISZERO ISZERO DUP2 MSTORE RETURN JUMPDEST PUSH1 0x4 CALLDATALOAD SWAP1 PUSH1 0x1 PUSH1 0x1 PUSH1 0xA0 SHL SUB DUP3 AND DUP3 SUB PUSH2 0x50F JUMPI JUMP JUMPDEST PUSH1 0x0 DUP1 REVERT JUMPDEST ISZERO PUSH2 0x51B JUMPI JUMP JUMPDEST PUSH1 0x84 PUSH1 0x40 MLOAD PUSH3 0x461BCD PUSH1 0xE5 SHL DUP2 MSTORE PUSH1 0x20 PUSH1 0x4 DUP3 ADD MSTORE PUSH1 0x21 PUSH1 0x24 DUP3 ADD MSTORE PUSH32 0x4F6E6C79206F776E65722063616E2063616C6C20746869732066756E6374696F PUSH1 0x44 DUP3 ADD MSTORE PUSH32 0x6E00000000000000000000000000000000000000000000000000000000000000 PUSH1 0x64 DUP3 ADD MSTORE REVERT JUMPDEST SWAP1 PUSH1 0x1F DUP1 NOT SWAP2 ADD AND DUP2 ADD SWAP1 DUP2 LT PUSH8 0xFFFFFFFFFFFFFFFF DUP3 GT OR PUSH2 0x5A7 JUMPI PUSH1 0x40 MSTORE JUMP JUMPDEST PUSH32 0x4E487B7100000000000000000000000000000000000000000000000000000000 PUSH1 0x0 MSTORE PUSH1 0x41 PUSH1 0x4 MSTORE PUSH1 0x24 PUSH1 0x0 REVERT JUMPDEST SWAP1 DUP2 PUSH1 0x20 SWAP2 SUB SLT PUSH2 0x50F JUMPI MLOAD DUP1 ISZERO ISZERO DUP2 SUB PUSH2 0x50F JUMPI SWAP1 JUMP INVALID LOG2 PUSH5 0x6970667358 0x22 SLT KECCAK256 EXTCODEHASH CALLDATALOAD 0xDD NOT 0xA5 PUSH21 0x1D0CF2C29384CAD597EE6F0982948F66C8BB5BD1A4 EQ DUP1 0x2C SWAP5 ADDRESS PUSH5 0x736F6C6343 STOP ADDMOD XOR STOP CALLER "},"methodIdentifiers":{"IWETH()":"fcb313b5","addSupportedToken(address)":"6d69fcaf","owner()":"8da5cb5b","positionManager()":"791b98bc","removeSupportedToken(address)":"76319190","supportedTokens(address)":"68c4ac26","swapRouter()":"c31c9c07","swapTokens(address,uint256,address)":"cbc78798","withdrawERC20(address,uint256)":"a1db9782","withdrawETH(uint256)":"f14210a6"}}}}}