{"contracts/Token.sol":{"MyToken":{"abi":[{"inputs":[{"internalType":"string","name":"name","type":"string"},{"internalType":"string","name":"symbol","type":"string"},{"internalType":"uint256","name":"totalSupply","type":"uint256"},{"internalType":"address","name":"factory","type":"address"}],"stateMutability":"nonpayable","type":"constructor"},{"inputs":[{"internalType":"address","name":"spender","type":"address"},{"internalType":"uint256","name":"allowance","type":"uint256"},{"internalType":"uint256","name":"needed","type":"uint256"}],"name":"ERC20InsufficientAllowance","type":"error"},{"inputs":[{"internalType":"address","name":"sender","type":"address"},{"internalType":"uint256","name":"balance","type":"uint256"},{"internalType":"uint256","name":"needed","type":"uint256"}],"name":"ERC20InsufficientBalance","type":"error"},{"inputs":[{"internalType":"address","name":"approver","type":"address"}],"name":"ERC20InvalidApprover","type":"error"},{"inputs":[{"internalType":"address","name":"receiver","type":"address"}],"name":"ERC20InvalidReceiver","type":"error"},{"inputs":[{"internalType":"address","name":"sender","type":"address"}],"name":"ERC20InvalidSender","type":"error"},{"inputs":[{"internalType":"address","name":"spender","type":"address"}],"name":"ERC20InvalidSpender","type":"error"},{"anonymous":false,"inputs":[{"indexed":true,"internalType":"address","name":"owner","type":"address"},{"indexed":true,"internalType":"address","name":"spender","type":"address"},{"indexed":false,"internalType":"uint256","name":"value","type":"uint256"}],"name":"Approval","type":"event"},{"anonymous":false,"inputs":[{"indexed":true,"internalType":"address","name":"from","type":"address"},{"indexed":true,"internalType":"address","name":"to","type":"address"},{"indexed":false,"internalType":"uint256","name":"value","type":"uint256"}],"name":"Transfer","type":"event"},{"inputs":[],"name":"MAX_WALLET_PERCENTAGE","outputs":[{"internalType":"uint256","name":"","type":"uint256"}],"stateMutability":"view","type":"function"},{"inputs":[{"internalType":"uint256","name":"","type":"uint256"}],"name":"allTokens","outputs":[{"internalType":"address","name":"tokenAddress","type":"address"},{"internalType":"bool","name":"maxWalletEnabled","type":"bool"},{"internalType":"address","name":"poolAddress","type":"address"}],"stateMutability":"view","type":"function"},{"inputs":[{"internalType":"address","name":"owner","type":"address"},{"internalType":"address","name":"spender","type":"address"}],"name":"allowance","outputs":[{"internalType":"uint256","name":"","type":"uint256"}],"stateMutability":"view","type":"function"},{"inputs":[{"internalType":"address","name":"spender","type":"address"},{"internalType":"uint256","name":"value","type":"uint256"}],"name":"approve","outputs":[{"internalType":"bool","name":"","type":"bool"}],"stateMutability":"nonpayable","type":"function"},{"inputs":[{"internalType":"address","name":"account","type":"address"}],"name":"balanceOf","outputs":[{"internalType":"uint256","name":"","type":"uint256"}],"stateMutability":"view","type":"function"},{"inputs":[],"name":"deadAddress","outputs":[{"internalType":"address","name":"","type":"address"}],"stateMutability":"view","type":"function"},{"inputs":[],"name":"decimals","outputs":[{"internalType":"uint8","name":"","type":"uint8"}],"stateMutability":"view","type":"function"},{"inputs":[{"internalType":"address","name":"poolAddress","type":"address"}],"name":"enableMaxWalletLimit","outputs":[],"stateMutability":"nonpayable","type":"function"},{"inputs":[],"name":"factoryAddress","outputs":[{"internalType":"address","name":"","type":"address"}],"stateMutability":"view","type":"function"},{"inputs":[],"name":"maxHolding","outputs":[{"internalType":"uint256","name":"","type":"uint256"}],"stateMutability":"view","type":"function"},{"inputs":[],"name":"maxWalletAmount","outputs":[{"internalType":"uint256","name":"","type":"uint256"}],"stateMutability":"view","type":"function"},{"inputs":[],"name":"maxWalletEnabled","outputs":[{"internalType":"bool","name":"","type":"bool"}],"stateMutability":"view","type":"function"},{"inputs":[],"name":"name","outputs":[{"internalType":"string","name":"","type":"string"}],"stateMutability":"view","type":"function"},{"inputs":[],"name":"symbol","outputs":[{"internalType":"string","name":"","type":"string"}],"stateMutability":"view","type":"function"},{"inputs":[],"name":"totalSupply","outputs":[{"internalType":"uint256","name":"","type":"uint256"}],"stateMutability":"view","type":"function"},{"inputs":[{"internalType":"address","name":"to","type":"address"},{"internalType":"uint256","name":"value","type":"uint256"}],"name":"transfer","outputs":[{"internalType":"bool","name":"","type":"bool"}],"stateMutability":"nonpayable","type":"function"},{"inputs":[{"internalType":"address","name":"from","type":"address"},{"internalType":"address","name":"to","type":"address"},{"internalType":"uint256","name":"value","type":"uint256"}],"name":"transferFrom","outputs":[{"internalType":"bool","name":"","type":"bool"}],"stateMutability":"nonpayable","type":"function"}],"evm":{"bytecode":{"linkReferences":{},"object":"60406080815234620006a35762001333803803806200001e81620006a8565b9283398101608082820312620006a35781516001600160401b0390818111620006a357826200004f918501620006ce565b6020928385015190838211620006a3576200006c918601620006ce565b8585015160609095015190926001600160a01b039182811690819003620006a3578351828111620005a35760038054916001968784811c9416801562000698575b8a85101462000682578190601f948581116200062c575b508a90858311600114620005c557600092620005b9575b505060001982841b1c191690871b1781555b865191848311620005a35760049788548881811c9116801562000598575b8b8210146200058357908183869594931162000529575b508a918411600114620004be57600093620004b2575b505082871b92600019911b1c19161785555b60018060a01b03199061dead8260085416176008556005600a5560ff19600c5416600c55670de0b6b3a76400009788810298818a0414811517156200049d57674563918244f4000002888104600514891517156200049d576064900460055581600754161760075587519160608301908382109082111762000488578852308252858201916000835288810192308452600d546801000000000000000081101562000473578087620002009201600d5562000740565b9290926200045f5751825491516001600160a81b03199092169086161790151560a01b60ff60a01b1617815591519184018054909116918316919091179055600d5460001981019081116200044a5730600052600e855286600020553315620004335730600052600e84528560002054918060ff6200027f8562000740565b505460a01c16151514928362000422575b8362000413575b8362000402575b83620003f6575b83620003ec575b83620003ce575b50505062000317575b507fddf252ad1be2c89b69c2b068fc378daa952ba7f163c4a11628f55a4df523b3ef600091620002ef8460025462000776565b60025533835282815284832084815401905584519384523393a351610b9890816200079b8239f35b600254600a5490818102918183041490151715620003b9576064903360005260008452046200034b84866000205462000776565b1115620002bc5760849184519162461bcd60e51b8352820152603660248201527f4d79546f6b656e3a205472616e7366657220616d6f756e74206578636565647360448201527f20746865206d617820686f6c64696e67206c696d6974000000000000000000006064820152fd5b601182634e487b7160e01b6000525260246000fd5b620003dc9192935062000740565b50015416331415388080620002b3565b92508092620002ac565b333014159350620002a5565b92508160085416331415926200029e565b60075483161515935062000297565b925081600754163314159262000290565b855163ec442f0560e01b8152600081850152602490fd5b601184634e487b7160e01b6000525260246000fd5b600088634e487b7160e01b82525260246000fd5b604188634e487b7160e01b6000525260246000fd5b604186634e487b7160e01b6000525260246000fd5b601187634e487b7160e01b6000525260246000fd5b01519150388062000138565b9190889450601f198416928a6000528b6000209360005b8d828210620005125750508511620004f7575b50505050811b0185556200014a565b01519060f884600019921b161c1916905538808080620004e8565b8385015187558c98909601959384019301620004d5565b9091929350896000528a6000208380870160051c8201928d881062000579575b918b918897969594930160051c01915b8281106200056957505062000122565b600081558796508b910162000559565b9250819262000549565b60228a634e487b7160e01b6000525260246000fd5b90607f16906200010b565b634e487b7160e01b600052604160045260246000fd5b015190503880620000db565b60008581528c81208b9550929190601f198516908e5b828210620006145750508411620005fb575b505050811b018155620000ed565b015160001983861b60f8161c19169055388080620005ed565b8385015186558d979095019493840193018e620005db565b909150836000528a6000208580850160051c8201928d861062000678575b918b91869594930160051c01915b82811062000668575050620000c4565b600081558594508b910162000658565b925081926200064a565b634e487b7160e01b600052602260045260246000fd5b93607f1693620000ad565b600080fd5b6040519190601f01601f191682016001600160401b03811183821017620005a357604052565b919080601f84011215620006a35782516001600160401b038111620005a35760209062000704601f8201601f19168301620006a8565b92818452828287010111620006a35760005b8181106200072c57508260009394955001015290565b858101830151848201840152820162000716565b600d548110156200076057600d60005260206000209060011b0190600090565b634e487b7160e01b600052603260045260246000fd5b919082018092116200078457565b634e487b7160e01b600052601160045260246000fdfe608060408181526004918236101561001657600080fd5b600092833560e01c91826306647125146107d45750816306fdde03146106f8578163095ea7b31461065057816318160ddd1461063157816323b872dd1461052557816327c8f835146104fd578163313ce567146104e1578163333e6f06146104c25781635edfd7ce14610378578163634282af1461031a57816370a08231146102e457816395d89b41146101c357508063966dae0e1461019c578063a9059cbb1461016c578063aa4bde281461014e578063d045a3291461012b5763dd62ed3e146100e057600080fd5b34610127578060031936011261012757806020926100fc610839565b610104610854565b6001600160a01b0391821683526001865283832091168252845220549051908152f35b5080fd5b503461012757816003193601126101275760209060ff600c541690519015158152f35b5034610127578160031936011261012757602090600b549051908152f35b503461012757806003193601126101275760209061019561018b610839565b60243590336108e3565b5160018152f35b50346101275781600319360112610127576020906001600160a01b03600754169051908152f35b83833461012757816003193601126101275780519082845460018160011c90600183169283156102da575b60209384841081146102c7578388529081156102ab5750600114610256575b505050829003601f01601f191682019267ffffffffffffffff841183851017610243575082918261023f9252826107f0565b0390f35b80604186634e487b7160e01b6024945252fd5b8787529192508591837f8a35acfbc15ff81a39ae7d344fd709f28e8600b4aa8c65c6b64bfe7fe36bd19b5b838510610297575050505083010185808061020d565b805488860183015293019284908201610281565b60ff1916878501525050151560051b840101905085808061020d565b60248960228c634e487b7160e01b835252fd5b91607f16916101ee565b50503461012757602036600319011261012757806020926001600160a01b0361030b610839565b16815280845220549051908152f35b83915034610127576020366003190112610127573590600d548210156103755760606001846103488561086a565b509060ff8254926001600160a01b03948591015416928251948116855260a01c1615156020840152820152f35b80fd5b9050346104be5760203660031901126104be57610393610839565b916001600160a01b0391826007541633036104565750610406600191308652600e6020528520546103c38161086a565b50740100000000000000000000000000000000000000007fffffffffffffffffffffff00ffffffffffffffffffffffffffffffffffffffff82541617905561086a565b500191167fffffffffffffffffffffffff00000000000000000000000000000000000000008254161790556064610442600254600a54906108ba565b04600b55600160ff19600c541617600c5580f35b6020608492519162461bcd60e51b8352820152602d60248201527f43616c6c6572206973206e6f7420617574686f72697a656420746f20656e616260448201527f6c65206d61782077616c6c6574000000000000000000000000000000000000006064820152fd5b8280fd5b5050346101275781600319360112610127576020906005549051908152f35b5050346101275781600319360112610127576020905160128152f35b5050346101275781600319360112610127576020906001600160a01b03600854169051908152f35b9050823461037557606036600319011261037557610541610839565b610549610854565b91604435936001600160a01b038316808352600160205286832033845260205286832054916000198303610586575b6020886101958989896108e3565b8683106105ec5781156105d65733156105c05750825260016020908152868320338452815291869020908590039055829061019587610578565b60249084895191634a1406b160e11b8352820152fd5b6024908489519163e602df0560e01b8352820152fd5b87517ffb8f41b2000000000000000000000000000000000000000000000000000000008152339181019182526020820193909352604081018790528291506060010390fd5b5050346101275781600319360112610127576020906002549051908152f35b9050346104be57816003193601126104be5761066a610839565b6024359033156106e2576001600160a01b03169182156106cc57508083602095338152600187528181208582528752205582519081527f8c5be1e5ebec7d5bd14f71427d1e84f3dd0314c0f7b2291e5b200ac8c7c3b925843392a35160018152f35b60249085855191634a1406b160e11b8352820152fd5b6024838686519163e602df0560e01b8352820152fd5b8383346101275781600319360112610127578051908260035460018160011c90600183169283156107ca575b60209384841081146102c7578388529081156102ab575060011461077457505050829003601f01601f191682019267ffffffffffffffff841183851017610243575082918261023f9252826107f0565b600387529192508591837fc2575a0e9e593c00f959f8c92f12db2869c3395a3b0502d05e2516446f71f85b5b8385106107b6575050505083010185808061020d565b8054888601830152930192849082016107a0565b91607f1691610724565b849034610127578160031936011261012757602090600a548152f35b6020808252825181830181905290939260005b82811061082557505060409293506000838284010152601f8019910116010190565b818101860151848201604001528501610803565b600435906001600160a01b038216820361084f57565b600080fd5b602435906001600160a01b038216820361084f57565b600d548110156108a457600d60005260011b7fd7b6990105719101dabeb77144f2a3385c8033acd3af97e9423a695e81ad1eb50190600090565b634e487b7160e01b600052603260045260246000fd5b818102929181159184041417156108cd57565b634e487b7160e01b600052601160045260246000fd5b9291906001600160a01b03808516918215610b31578116928315610b0057600091308352602092600e84526040918282205490600160ff6109238461086a565b505460a01c161515149182610af1575b82610ae2575b82610ad3575b82610ac8575b82610abd575b82610aa1575b50506109f8575b84815280845281812054978389106109af57508083869798997fddf252ad1be2c89b69c2b068fc378daa952ba7f163c4a11628f55a4df523b3ef9785945282875203828220558781522082815401905551908152a3565b82517fe450d38c0000000000000000000000000000000000000000000000000000000081526001600160a01b039190911660048201526024810189905260448101849052606490fd5b6064610a09600254600a54906108ba565b0486825281855282822054848101809111610a8d5711156109585760848483519062461bcd60e51b82526004820152603660248201527f4d79546f6b656e3a205472616e7366657220616d6f756e74206578636565647360448201527f20746865206d617820686f6c64696e67206c696d6974000000000000000000006064820152fd5b602483634e487b7160e01b81526011600452fd5b6001919250610aaf9061086a565b500154168614153880610951565b87891415925061094b565b308914159250610945565b6008548216891415925061093f565b60075482168814159250610939565b60075482168914159250610933565b60246040517fec442f0500000000000000000000000000000000000000000000000000000000815260006004820152fd5b60246040517f96c6fd1e00000000000000000000000000000000000000000000000000000000815260006004820152fdfea2646970667358221220741e1f177a41be94b6c53b93befb7ffe49223e4dccc60144888e02d9feaaf35964736f6c63430008180033","opcodes":"PUSH1 0x40 PUSH1 0x80 DUP2 MSTORE CALLVALUE PUSH3 0x6A3 JUMPI PUSH3 0x1333 DUP1 CODESIZE SUB DUP1 PUSH3 0x1E DUP2 PUSH3 0x6A8 JUMP JUMPDEST SWAP3 DUP4 CODECOPY DUP2 ADD PUSH1 0x80 DUP3 DUP3 SUB SLT PUSH3 0x6A3 JUMPI DUP2 MLOAD PUSH1 0x1 PUSH1 0x1 PUSH1 0x40 SHL SUB SWAP1 DUP2 DUP2 GT PUSH3 0x6A3 JUMPI DUP3 PUSH3 0x4F SWAP2 DUP6 ADD PUSH3 0x6CE JUMP JUMPDEST PUSH1 0x20 SWAP3 DUP4 DUP6 ADD MLOAD SWAP1 DUP4 DUP3 GT PUSH3 0x6A3 JUMPI PUSH3 0x6C SWAP2 DUP7 ADD PUSH3 0x6CE JUMP JUMPDEST DUP6 DUP6 ADD MLOAD PUSH1 0x60 SWAP1 SWAP6 ADD MLOAD SWAP1 SWAP3 PUSH1 0x1 PUSH1 0x1 PUSH1 0xA0 SHL SUB SWAP2 DUP3 DUP2 AND SWAP1 DUP2 SWAP1 SUB PUSH3 0x6A3 JUMPI DUP4 MLOAD DUP3 DUP2 GT PUSH3 0x5A3 JUMPI PUSH1 0x3 DUP1 SLOAD SWAP2 PUSH1 0x1 SWAP7 DUP8 DUP5 DUP2 SHR SWAP5 AND DUP1 ISZERO PUSH3 0x698 JUMPI JUMPDEST DUP11 DUP6 LT EQ PUSH3 0x682 JUMPI DUP2 SWAP1 PUSH1 0x1F SWAP5 DUP6 DUP2 GT PUSH3 0x62C JUMPI JUMPDEST POP DUP11 SWAP1 DUP6 DUP4 GT PUSH1 0x1 EQ PUSH3 0x5C5 JUMPI PUSH1 0x0 SWAP3 PUSH3 0x5B9 JUMPI JUMPDEST POP POP PUSH1 0x0 NOT DUP3 DUP5 SHL SHR NOT AND SWAP1 DUP8 SHL OR DUP2 SSTORE JUMPDEST DUP7 MLOAD SWAP2 DUP5 DUP4 GT PUSH3 0x5A3 JUMPI PUSH1 0x4 SWAP8 DUP9 SLOAD DUP9 DUP2 DUP2 SHR SWAP2 AND DUP1 ISZERO PUSH3 0x598 JUMPI JUMPDEST DUP12 DUP3 LT EQ PUSH3 0x583 JUMPI SWAP1 DUP2 DUP4 DUP7 SWAP6 SWAP5 SWAP4 GT PUSH3 0x529 JUMPI JUMPDEST POP DUP11 SWAP2 DUP5 GT PUSH1 0x1 EQ PUSH3 0x4BE JUMPI PUSH1 0x0 SWAP4 PUSH3 0x4B2 JUMPI JUMPDEST POP POP DUP3 DUP8 SHL SWAP3 PUSH1 0x0 NOT SWAP2 SHL SHR NOT AND OR DUP6 SSTORE JUMPDEST PUSH1 0x1 DUP1 PUSH1 0xA0 SHL SUB NOT SWAP1 PUSH2 0xDEAD DUP3 PUSH1 0x8 SLOAD AND OR PUSH1 0x8 SSTORE PUSH1 0x5 PUSH1 0xA SSTORE PUSH1 0xFF NOT PUSH1 0xC SLOAD AND PUSH1 0xC SSTORE PUSH8 0xDE0B6B3A7640000 SWAP8 DUP9 DUP2 MUL SWAP9 DUP2 DUP11 DIV EQ DUP2 ISZERO OR ISZERO PUSH3 0x49D JUMPI PUSH8 0x4563918244F40000 MUL DUP9 DUP2 DIV PUSH1 0x5 EQ DUP10 ISZERO OR ISZERO PUSH3 0x49D JUMPI PUSH1 0x64 SWAP1 DIV PUSH1 0x5 SSTORE DUP2 PUSH1 0x7 SLOAD AND OR PUSH1 0x7 SSTORE DUP8 MLOAD SWAP2 PUSH1 0x60 DUP4 ADD SWAP1 DUP4 DUP3 LT SWAP1 DUP3 GT OR PUSH3 0x488 JUMPI DUP9 MSTORE ADDRESS DUP3 MSTORE DUP6 DUP3 ADD SWAP2 PUSH1 0x0 DUP4 MSTORE DUP9 DUP2 ADD SWAP3 ADDRESS DUP5 MSTORE PUSH1 0xD SLOAD PUSH9 0x10000000000000000 DUP2 LT ISZERO PUSH3 0x473 JUMPI DUP1 DUP8 PUSH3 0x200 SWAP3 ADD PUSH1 0xD SSTORE PUSH3 0x740 JUMP JUMPDEST SWAP3 SWAP1 SWAP3 PUSH3 0x45F JUMPI MLOAD DUP3 SLOAD SWAP2 MLOAD PUSH1 0x1 PUSH1 0x1 PUSH1 0xA8 SHL SUB NOT SWAP1 SWAP3 AND SWAP1 DUP7 AND OR SWAP1 ISZERO ISZERO PUSH1 0xA0 SHL PUSH1 0xFF PUSH1 0xA0 SHL AND OR DUP2 SSTORE SWAP2 MLOAD SWAP2 DUP5 ADD DUP1 SLOAD SWAP1 SWAP2 AND SWAP2 DUP4 AND SWAP2 SWAP1 SWAP2 OR SWAP1 SSTORE PUSH1 0xD SLOAD PUSH1 0x0 NOT DUP2 ADD SWAP1 DUP2 GT PUSH3 0x44A JUMPI ADDRESS PUSH1 0x0 MSTORE PUSH1 0xE DUP6 MSTORE DUP7 PUSH1 0x0 KECCAK256 SSTORE CALLER ISZERO PUSH3 0x433 JUMPI ADDRESS PUSH1 0x0 MSTORE PUSH1 0xE DUP5 MSTORE DUP6 PUSH1 0x0 KECCAK256 SLOAD SWAP2 DUP1 PUSH1 0xFF PUSH3 0x27F DUP6 PUSH3 0x740 JUMP JUMPDEST POP SLOAD PUSH1 0xA0 SHR AND ISZERO ISZERO EQ SWAP3 DUP4 PUSH3 0x422 JUMPI JUMPDEST DUP4 PUSH3 0x413 JUMPI JUMPDEST DUP4 PUSH3 0x402 JUMPI JUMPDEST DUP4 PUSH3 0x3F6 JUMPI JUMPDEST DUP4 PUSH3 0x3EC JUMPI JUMPDEST DUP4 PUSH3 0x3CE JUMPI JUMPDEST POP POP POP PUSH3 0x317 JUMPI JUMPDEST POP PUSH32 0xDDF252AD1BE2C89B69C2B068FC378DAA952BA7F163C4A11628F55A4DF523B3EF PUSH1 0x0 SWAP2 PUSH3 0x2EF DUP5 PUSH1 0x2 SLOAD PUSH3 0x776 JUMP JUMPDEST PUSH1 0x2 SSTORE CALLER DUP4 MSTORE DUP3 DUP2 MSTORE DUP5 DUP4 KECCAK256 DUP5 DUP2 SLOAD ADD SWAP1 SSTORE DUP5 MLOAD SWAP4 DUP5 MSTORE CALLER SWAP4 LOG3 MLOAD PUSH2 0xB98 SWAP1 DUP2 PUSH3 0x79B DUP3 CODECOPY RETURN JUMPDEST PUSH1 0x2 SLOAD PUSH1 0xA SLOAD SWAP1 DUP2 DUP2 MUL SWAP2 DUP2 DUP4 DIV EQ SWAP1 ISZERO OR ISZERO PUSH3 0x3B9 JUMPI PUSH1 0x64 SWAP1 CALLER PUSH1 0x0 MSTORE PUSH1 0x0 DUP5 MSTORE DIV PUSH3 0x34B DUP5 DUP7 PUSH1 0x0 KECCAK256 SLOAD PUSH3 0x776 JUMP JUMPDEST GT ISZERO PUSH3 0x2BC JUMPI PUSH1 0x84 SWAP2 DUP5 MLOAD SWAP2 PUSH3 0x461BCD PUSH1 0xE5 SHL DUP4 MSTORE DUP3 ADD MSTORE PUSH1 0x36 PUSH1 0x24 DUP3 ADD MSTORE PUSH32 0x4D79546F6B656E3A205472616E7366657220616D6F756E742065786365656473 PUSH1 0x44 DUP3 ADD MSTORE PUSH32 0x20746865206D617820686F6C64696E67206C696D697400000000000000000000 PUSH1 0x64 DUP3 ADD MSTORE REVERT JUMPDEST PUSH1 0x11 DUP3 PUSH4 0x4E487B71 PUSH1 0xE0 SHL PUSH1 0x0 MSTORE MSTORE PUSH1 0x24 PUSH1 0x0 REVERT JUMPDEST PUSH3 0x3DC SWAP2 SWAP3 SWAP4 POP PUSH3 0x740 JUMP JUMPDEST POP ADD SLOAD AND CALLER EQ ISZERO CODESIZE DUP1 DUP1 PUSH3 0x2B3 JUMP JUMPDEST SWAP3 POP DUP1 SWAP3 PUSH3 0x2AC JUMP JUMPDEST CALLER ADDRESS EQ ISZERO SWAP4 POP PUSH3 0x2A5 JUMP JUMPDEST SWAP3 POP DUP2 PUSH1 0x8 SLOAD AND CALLER EQ ISZERO SWAP3 PUSH3 0x29E JUMP JUMPDEST PUSH1 0x7 SLOAD DUP4 AND ISZERO ISZERO SWAP4 POP PUSH3 0x297 JUMP JUMPDEST SWAP3 POP DUP2 PUSH1 0x7 SLOAD AND CALLER EQ ISZERO SWAP3 PUSH3 0x290 JUMP JUMPDEST DUP6 MLOAD PUSH4 0xEC442F05 PUSH1 0xE0 SHL DUP2 MSTORE PUSH1 0x0 DUP2 DUP6 ADD MSTORE PUSH1 0x24 SWAP1 REVERT JUMPDEST PUSH1 0x11 DUP5 PUSH4 0x4E487B71 PUSH1 0xE0 SHL PUSH1 0x0 MSTORE MSTORE PUSH1 0x24 PUSH1 0x0 REVERT JUMPDEST PUSH1 0x0 DUP9 PUSH4 0x4E487B71 PUSH1 0xE0 SHL DUP3 MSTORE MSTORE PUSH1 0x24 PUSH1 0x0 REVERT JUMPDEST PUSH1 0x41 DUP9 PUSH4 0x4E487B71 PUSH1 0xE0 SHL PUSH1 0x0 MSTORE MSTORE PUSH1 0x24 PUSH1 0x0 REVERT JUMPDEST PUSH1 0x41 DUP7 PUSH4 0x4E487B71 PUSH1 0xE0 SHL PUSH1 0x0 MSTORE MSTORE PUSH1 0x24 PUSH1 0x0 REVERT JUMPDEST PUSH1 0x11 DUP8 PUSH4 0x4E487B71 PUSH1 0xE0 SHL PUSH1 0x0 MSTORE MSTORE PUSH1 0x24 PUSH1 0x0 REVERT JUMPDEST ADD MLOAD SWAP2 POP CODESIZE DUP1 PUSH3 0x138 JUMP JUMPDEST SWAP2 SWAP1 DUP9 SWAP5 POP PUSH1 0x1F NOT DUP5 AND SWAP3 DUP11 PUSH1 0x0 MSTORE DUP12 PUSH1 0x0 KECCAK256 SWAP4 PUSH1 0x0 JUMPDEST DUP14 DUP3 DUP3 LT PUSH3 0x512 JUMPI POP POP DUP6 GT PUSH3 0x4F7 JUMPI JUMPDEST POP POP POP POP DUP2 SHL ADD DUP6 SSTORE PUSH3 0x14A JUMP JUMPDEST ADD MLOAD SWAP1 PUSH1 0xF8 DUP5 PUSH1 0x0 NOT SWAP3 SHL AND SHR NOT AND SWAP1 SSTORE CODESIZE DUP1 DUP1 DUP1 PUSH3 0x4E8 JUMP JUMPDEST DUP4 DUP6 ADD MLOAD DUP8 SSTORE DUP13 SWAP9 SWAP1 SWAP7 ADD SWAP6 SWAP4 DUP5 ADD SWAP4 ADD PUSH3 0x4D5 JUMP JUMPDEST SWAP1 SWAP2 SWAP3 SWAP4 POP DUP10 PUSH1 0x0 MSTORE DUP11 PUSH1 0x0 KECCAK256 DUP4 DUP1 DUP8 ADD PUSH1 0x5 SHR DUP3 ADD SWAP3 DUP14 DUP9 LT PUSH3 0x579 JUMPI JUMPDEST SWAP2 DUP12 SWAP2 DUP9 SWAP8 SWAP7 SWAP6 SWAP5 SWAP4 ADD PUSH1 0x5 SHR ADD SWAP2 JUMPDEST DUP3 DUP2 LT PUSH3 0x569 JUMPI POP POP PUSH3 0x122 JUMP JUMPDEST PUSH1 0x0 DUP2 SSTORE DUP8 SWAP7 POP DUP12 SWAP2 ADD PUSH3 0x559 JUMP JUMPDEST SWAP3 POP DUP2 SWAP3 PUSH3 0x549 JUMP JUMPDEST PUSH1 0x22 DUP11 PUSH4 0x4E487B71 PUSH1 0xE0 SHL PUSH1 0x0 MSTORE MSTORE PUSH1 0x24 PUSH1 0x0 REVERT JUMPDEST SWAP1 PUSH1 0x7F AND SWAP1 PUSH3 0x10B JUMP JUMPDEST PUSH4 0x4E487B71 PUSH1 0xE0 SHL PUSH1 0x0 MSTORE PUSH1 0x41 PUSH1 0x4 MSTORE PUSH1 0x24 PUSH1 0x0 REVERT JUMPDEST ADD MLOAD SWAP1 POP CODESIZE DUP1 PUSH3 0xDB JUMP JUMPDEST PUSH1 0x0 DUP6 DUP2 MSTORE DUP13 DUP2 KECCAK256 DUP12 SWAP6 POP SWAP3 SWAP2 SWAP1 PUSH1 0x1F NOT DUP6 AND SWAP1 DUP15 JUMPDEST DUP3 DUP3 LT PUSH3 0x614 JUMPI POP POP DUP5 GT PUSH3 0x5FB JUMPI JUMPDEST POP POP POP DUP2 SHL ADD DUP2 SSTORE PUSH3 0xED JUMP JUMPDEST ADD MLOAD PUSH1 0x0 NOT DUP4 DUP7 SHL PUSH1 0xF8 AND SHR NOT AND SWAP1 SSTORE CODESIZE DUP1 DUP1 PUSH3 0x5ED JUMP JUMPDEST DUP4 DUP6 ADD MLOAD DUP7 SSTORE DUP14 SWAP8 SWAP1 SWAP6 ADD SWAP5 SWAP4 DUP5 ADD SWAP4 ADD DUP15 PUSH3 0x5DB JUMP JUMPDEST SWAP1 SWAP2 POP DUP4 PUSH1 0x0 MSTORE DUP11 PUSH1 0x0 KECCAK256 DUP6 DUP1 DUP6 ADD PUSH1 0x5 SHR DUP3 ADD SWAP3 DUP14 DUP7 LT PUSH3 0x678 JUMPI JUMPDEST SWAP2 DUP12 SWAP2 DUP7 SWAP6 SWAP5 SWAP4 ADD PUSH1 0x5 SHR ADD SWAP2 JUMPDEST DUP3 DUP2 LT PUSH3 0x668 JUMPI POP POP PUSH3 0xC4 JUMP JUMPDEST PUSH1 0x0 DUP2 SSTORE DUP6 SWAP5 POP DUP12 SWAP2 ADD PUSH3 0x658 JUMP JUMPDEST SWAP3 POP DUP2 SWAP3 PUSH3 0x64A JUMP JUMPDEST PUSH4 0x4E487B71 PUSH1 0xE0 SHL PUSH1 0x0 MSTORE PUSH1 0x22 PUSH1 0x4 MSTORE PUSH1 0x24 PUSH1 0x0 REVERT JUMPDEST SWAP4 PUSH1 0x7F AND SWAP4 PUSH3 0xAD JUMP JUMPDEST PUSH1 0x0 DUP1 REVERT JUMPDEST PUSH1 0x40 MLOAD SWAP2 SWAP1 PUSH1 0x1F ADD PUSH1 0x1F NOT AND DUP3 ADD PUSH1 0x1 PUSH1 0x1 PUSH1 0x40 SHL SUB DUP2 GT DUP4 DUP3 LT OR PUSH3 0x5A3 JUMPI PUSH1 0x40 MSTORE JUMP JUMPDEST SWAP2 SWAP1 DUP1 PUSH1 0x1F DUP5 ADD SLT ISZERO PUSH3 0x6A3 JUMPI DUP3 MLOAD PUSH1 0x1 PUSH1 0x1 PUSH1 0x40 SHL SUB DUP2 GT PUSH3 0x5A3 JUMPI PUSH1 0x20 SWAP1 PUSH3 0x704 PUSH1 0x1F DUP3 ADD PUSH1 0x1F NOT AND DUP4 ADD PUSH3 0x6A8 JUMP JUMPDEST SWAP3 DUP2 DUP5 MSTORE DUP3 DUP3 DUP8 ADD ADD GT PUSH3 0x6A3 JUMPI PUSH1 0x0 JUMPDEST DUP2 DUP2 LT PUSH3 0x72C JUMPI POP DUP3 PUSH1 0x0 SWAP4 SWAP5 SWAP6 POP ADD ADD MSTORE SWAP1 JUMP JUMPDEST DUP6 DUP2 ADD DUP4 ADD MLOAD DUP5 DUP3 ADD DUP5 ADD MSTORE DUP3 ADD PUSH3 0x716 JUMP JUMPDEST PUSH1 0xD SLOAD DUP2 LT ISZERO PUSH3 0x760 JUMPI PUSH1 0xD PUSH1 0x0 MSTORE PUSH1 0x20 PUSH1 0x0 KECCAK256 SWAP1 PUSH1 0x1 SHL ADD SWAP1 PUSH1 0x0 SWAP1 JUMP JUMPDEST PUSH4 0x4E487B71 PUSH1 0xE0 SHL PUSH1 0x0 MSTORE PUSH1 0x32 PUSH1 0x4 MSTORE PUSH1 0x24 PUSH1 0x0 REVERT JUMPDEST SWAP2 SWAP1 DUP3 ADD DUP1 SWAP3 GT PUSH3 0x784 JUMPI JUMP JUMPDEST PUSH4 0x4E487B71 PUSH1 0xE0 SHL PUSH1 0x0 MSTORE PUSH1 0x11 PUSH1 0x4 MSTORE PUSH1 0x24 PUSH1 0x0 REVERT INVALID PUSH1 0x80 PUSH1 0x40 DUP2 DUP2 MSTORE PUSH1 0x4 SWAP2 DUP3 CALLDATASIZE LT ISZERO PUSH2 0x16 JUMPI PUSH1 0x0 DUP1 REVERT JUMPDEST PUSH1 0x0 SWAP3 DUP4 CALLDATALOAD PUSH1 0xE0 SHR SWAP2 DUP3 PUSH4 0x6647125 EQ PUSH2 0x7D4 JUMPI POP DUP2 PUSH4 0x6FDDE03 EQ PUSH2 0x6F8 JUMPI DUP2 PUSH4 0x95EA7B3 EQ PUSH2 0x650 JUMPI DUP2 PUSH4 0x18160DDD EQ PUSH2 0x631 JUMPI DUP2 PUSH4 0x23B872DD EQ PUSH2 0x525 JUMPI DUP2 PUSH4 0x27C8F835 EQ PUSH2 0x4FD JUMPI DUP2 PUSH4 0x313CE567 EQ PUSH2 0x4E1 JUMPI DUP2 PUSH4 0x333E6F06 EQ PUSH2 0x4C2 JUMPI DUP2 PUSH4 0x5EDFD7CE EQ PUSH2 0x378 JUMPI DUP2 PUSH4 0x634282AF EQ PUSH2 0x31A JUMPI DUP2 PUSH4 0x70A08231 EQ PUSH2 0x2E4 JUMPI DUP2 PUSH4 0x95D89B41 EQ PUSH2 0x1C3 JUMPI POP DUP1 PUSH4 0x966DAE0E EQ PUSH2 0x19C JUMPI DUP1 PUSH4 0xA9059CBB EQ PUSH2 0x16C JUMPI DUP1 PUSH4 0xAA4BDE28 EQ PUSH2 0x14E JUMPI DUP1 PUSH4 0xD045A329 EQ PUSH2 0x12B JUMPI PUSH4 0xDD62ED3E EQ PUSH2 0xE0 JUMPI PUSH1 0x0 DUP1 REVERT JUMPDEST CALLVALUE PUSH2 0x127 JUMPI DUP1 PUSH1 0x3 NOT CALLDATASIZE ADD SLT PUSH2 0x127 JUMPI DUP1 PUSH1 0x20 SWAP3 PUSH2 0xFC PUSH2 0x839 JUMP JUMPDEST PUSH2 0x104 PUSH2 0x854 JUMP JUMPDEST PUSH1 0x1 PUSH1 0x1 PUSH1 0xA0 SHL SUB SWAP2 DUP3 AND DUP4 MSTORE PUSH1 0x1 DUP7 MSTORE DUP4 DUP4 KECCAK256 SWAP2 AND DUP3 MSTORE DUP5 MSTORE KECCAK256 SLOAD SWAP1 MLOAD SWAP1 DUP2 MSTORE RETURN JUMPDEST POP DUP1 REVERT JUMPDEST POP CALLVALUE PUSH2 0x127 JUMPI DUP2 PUSH1 0x3 NOT CALLDATASIZE ADD SLT PUSH2 0x127 JUMPI PUSH1 0x20 SWAP1 PUSH1 0xFF PUSH1 0xC SLOAD AND SWAP1 MLOAD SWAP1 ISZERO ISZERO DUP2 MSTORE RETURN JUMPDEST POP CALLVALUE PUSH2 0x127 JUMPI DUP2 PUSH1 0x3 NOT CALLDATASIZE ADD SLT PUSH2 0x127 JUMPI PUSH1 0x20 SWAP1 PUSH1 0xB SLOAD SWAP1 MLOAD SWAP1 DUP2 MSTORE RETURN JUMPDEST POP CALLVALUE PUSH2 0x127 JUMPI DUP1 PUSH1 0x3 NOT CALLDATASIZE ADD SLT PUSH2 0x127 JUMPI PUSH1 0x20 SWAP1 PUSH2 0x195 PUSH2 0x18B PUSH2 0x839 JUMP JUMPDEST PUSH1 0x24 CALLDATALOAD SWAP1 CALLER PUSH2 0x8E3 JUMP JUMPDEST MLOAD PUSH1 0x1 DUP2 MSTORE RETURN JUMPDEST POP CALLVALUE PUSH2 0x127 JUMPI DUP2 PUSH1 0x3 NOT CALLDATASIZE ADD SLT PUSH2 0x127 JUMPI PUSH1 0x20 SWAP1 PUSH1 0x1 PUSH1 0x1 PUSH1 0xA0 SHL SUB PUSH1 0x7 SLOAD AND SWAP1 MLOAD SWAP1 DUP2 MSTORE RETURN JUMPDEST DUP4 DUP4 CALLVALUE PUSH2 0x127 JUMPI DUP2 PUSH1 0x3 NOT CALLDATASIZE ADD SLT PUSH2 0x127 JUMPI DUP1 MLOAD SWAP1 DUP3 DUP5 SLOAD PUSH1 0x1 DUP2 PUSH1 0x1 SHR SWAP1 PUSH1 0x1 DUP4 AND SWAP3 DUP4 ISZERO PUSH2 0x2DA JUMPI JUMPDEST PUSH1 0x20 SWAP4 DUP5 DUP5 LT DUP2 EQ PUSH2 0x2C7 JUMPI DUP4 DUP9 MSTORE SWAP1 DUP2 ISZERO PUSH2 0x2AB JUMPI POP PUSH1 0x1 EQ PUSH2 0x256 JUMPI JUMPDEST POP POP POP DUP3 SWAP1 SUB PUSH1 0x1F ADD PUSH1 0x1F NOT AND DUP3 ADD SWAP3 PUSH8 0xFFFFFFFFFFFFFFFF DUP5 GT DUP4 DUP6 LT OR PUSH2 0x243 JUMPI POP DUP3 SWAP2 DUP3 PUSH2 0x23F SWAP3 MSTORE DUP3 PUSH2 0x7F0 JUMP JUMPDEST SUB SWAP1 RETURN JUMPDEST DUP1 PUSH1 0x41 DUP7 PUSH4 0x4E487B71 PUSH1 0xE0 SHL PUSH1 0x24 SWAP5 MSTORE MSTORE REVERT JUMPDEST DUP8 DUP8 MSTORE SWAP2 SWAP3 POP DUP6 SWAP2 DUP4 PUSH32 0x8A35ACFBC15FF81A39AE7D344FD709F28E8600B4AA8C65C6B64BFE7FE36BD19B JUMPDEST DUP4 DUP6 LT PUSH2 0x297 JUMPI POP POP POP POP DUP4 ADD ADD DUP6 DUP1 DUP1 PUSH2 0x20D JUMP JUMPDEST DUP1 SLOAD DUP9 DUP7 ADD DUP4 ADD MSTORE SWAP4 ADD SWAP3 DUP5 SWAP1 DUP3 ADD PUSH2 0x281 JUMP JUMPDEST PUSH1 0xFF NOT AND DUP8 DUP6 ADD MSTORE POP POP ISZERO ISZERO PUSH1 0x5 SHL DUP5 ADD ADD SWAP1 POP DUP6 DUP1 DUP1 PUSH2 0x20D JUMP JUMPDEST PUSH1 0x24 DUP10 PUSH1 0x22 DUP13 PUSH4 0x4E487B71 PUSH1 0xE0 SHL DUP4 MSTORE MSTORE REVERT JUMPDEST SWAP2 PUSH1 0x7F AND SWAP2 PUSH2 0x1EE JUMP JUMPDEST POP POP CALLVALUE PUSH2 0x127 JUMPI PUSH1 0x20 CALLDATASIZE PUSH1 0x3 NOT ADD SLT PUSH2 0x127 JUMPI DUP1 PUSH1 0x20 SWAP3 PUSH1 0x1 PUSH1 0x1 PUSH1 0xA0 SHL SUB PUSH2 0x30B PUSH2 0x839 JUMP JUMPDEST AND DUP2 MSTORE DUP1 DUP5 MSTORE KECCAK256 SLOAD SWAP1 MLOAD SWAP1 DUP2 MSTORE RETURN JUMPDEST DUP4 SWAP2 POP CALLVALUE PUSH2 0x127 JUMPI PUSH1 0x20 CALLDATASIZE PUSH1 0x3 NOT ADD SLT PUSH2 0x127 JUMPI CALLDATALOAD SWAP1 PUSH1 0xD SLOAD DUP3 LT ISZERO PUSH2 0x375 JUMPI PUSH1 0x60 PUSH1 0x1 DUP5 PUSH2 0x348 DUP6 PUSH2 0x86A JUMP JUMPDEST POP SWAP1 PUSH1 0xFF DUP3 SLOAD SWAP3 PUSH1 0x1 PUSH1 0x1 PUSH1 0xA0 SHL SUB SWAP5 DUP6 SWAP2 ADD SLOAD AND SWAP3 DUP3 MLOAD SWAP5 DUP2 AND DUP6 MSTORE PUSH1 0xA0 SHR AND ISZERO ISZERO PUSH1 0x20 DUP5 ADD MSTORE DUP3 ADD MSTORE RETURN JUMPDEST DUP1 REVERT JUMPDEST SWAP1 POP CALLVALUE PUSH2 0x4BE JUMPI PUSH1 0x20 CALLDATASIZE PUSH1 0x3 NOT ADD SLT PUSH2 0x4BE JUMPI PUSH2 0x393 PUSH2 0x839 JUMP JUMPDEST SWAP2 PUSH1 0x1 PUSH1 0x1 PUSH1 0xA0 SHL SUB SWAP2 DUP3 PUSH1 0x7 SLOAD AND CALLER SUB PUSH2 0x456 JUMPI POP PUSH2 0x406 PUSH1 0x1 SWAP2 ADDRESS DUP7 MSTORE PUSH1 0xE PUSH1 0x20 MSTORE DUP6 KECCAK256 SLOAD PUSH2 0x3C3 DUP2 PUSH2 0x86A JUMP JUMPDEST POP PUSH21 0x10000000000000000000000000000000000000000 PUSH32 0xFFFFFFFFFFFFFFFFFFFFFF00FFFFFFFFFFFFFFFFFFFFFFFFFFFFFFFFFFFFFFFF DUP3 SLOAD AND OR SWAP1 SSTORE PUSH2 0x86A JUMP JUMPDEST POP ADD SWAP2 AND PUSH32 0xFFFFFFFFFFFFFFFFFFFFFFFF0000000000000000000000000000000000000000 DUP3 SLOAD AND OR SWAP1 SSTORE PUSH1 0x64 PUSH2 0x442 PUSH1 0x2 SLOAD PUSH1 0xA SLOAD SWAP1 PUSH2 0x8BA JUMP JUMPDEST DIV PUSH1 0xB SSTORE PUSH1 0x1 PUSH1 0xFF NOT PUSH1 0xC SLOAD AND OR PUSH1 0xC SSTORE DUP1 RETURN JUMPDEST PUSH1 0x20 PUSH1 0x84 SWAP3 MLOAD SWAP2 PUSH3 0x461BCD PUSH1 0xE5 SHL DUP4 MSTORE DUP3 ADD MSTORE PUSH1 0x2D PUSH1 0x24 DUP3 ADD MSTORE PUSH32 0x43616C6C6572206973206E6F7420617574686F72697A656420746F20656E6162 PUSH1 0x44 DUP3 ADD MSTORE PUSH32 0x6C65206D61782077616C6C657400000000000000000000000000000000000000 PUSH1 0x64 DUP3 ADD MSTORE REVERT JUMPDEST DUP3 DUP1 REVERT JUMPDEST POP POP CALLVALUE PUSH2 0x127 JUMPI DUP2 PUSH1 0x3 NOT CALLDATASIZE ADD SLT PUSH2 0x127 JUMPI PUSH1 0x20 SWAP1 PUSH1 0x5 SLOAD SWAP1 MLOAD SWAP1 DUP2 MSTORE RETURN JUMPDEST POP POP CALLVALUE PUSH2 0x127 JUMPI DUP2 PUSH1 0x3 NOT CALLDATASIZE ADD SLT PUSH2 0x127 JUMPI PUSH1 0x20 SWAP1 MLOAD PUSH1 0x12 DUP2 MSTORE RETURN JUMPDEST POP POP CALLVALUE PUSH2 0x127 JUMPI DUP2 PUSH1 0x3 NOT CALLDATASIZE ADD SLT PUSH2 0x127 JUMPI PUSH1 0x20 SWAP1 PUSH1 0x1 PUSH1 0x1 PUSH1 0xA0 SHL SUB PUSH1 0x8 SLOAD AND SWAP1 MLOAD SWAP1 DUP2 MSTORE RETURN JUMPDEST SWAP1 POP DUP3 CALLVALUE PUSH2 0x375 JUMPI PUSH1 0x60 CALLDATASIZE PUSH1 0x3 NOT ADD SLT PUSH2 0x375 JUMPI PUSH2 0x541 PUSH2 0x839 JUMP JUMPDEST PUSH2 0x549 PUSH2 0x854 JUMP JUMPDEST SWAP2 PUSH1 0x44 CALLDATALOAD SWAP4 PUSH1 0x1 PUSH1 0x1 PUSH1 0xA0 SHL SUB DUP4 AND DUP1 DUP4 MSTORE PUSH1 0x1 PUSH1 0x20 MSTORE DUP7 DUP4 KECCAK256 CALLER DUP5 MSTORE PUSH1 0x20 MSTORE DUP7 DUP4 KECCAK256 SLOAD SWAP2 PUSH1 0x0 NOT DUP4 SUB PUSH2 0x586 JUMPI JUMPDEST PUSH1 0x20 DUP9 PUSH2 0x195 DUP10 DUP10 DUP10 PUSH2 0x8E3 JUMP JUMPDEST DUP7 DUP4 LT PUSH2 0x5EC JUMPI DUP2 ISZERO PUSH2 0x5D6 JUMPI CALLER ISZERO PUSH2 0x5C0 JUMPI POP DUP3 MSTORE PUSH1 0x1 PUSH1 0x20 SWAP1 DUP2 MSTORE DUP7 DUP4 KECCAK256 CALLER DUP5 MSTORE DUP2 MSTORE SWAP2 DUP7 SWAP1 KECCAK256 SWAP1 DUP6 SWAP1 SUB SWAP1 SSTORE DUP3 SWAP1 PUSH2 0x195 DUP8 PUSH2 0x578 JUMP JUMPDEST PUSH1 0x24 SWAP1 DUP5 DUP10 MLOAD SWAP2 PUSH4 0x4A1406B1 PUSH1 0xE1 SHL DUP4 MSTORE DUP3 ADD MSTORE REVERT JUMPDEST PUSH1 0x24 SWAP1 DUP5 DUP10 MLOAD SWAP2 PUSH4 0xE602DF05 PUSH1 0xE0 SHL DUP4 MSTORE DUP3 ADD MSTORE REVERT JUMPDEST DUP8 MLOAD PUSH32 0xFB8F41B200000000000000000000000000000000000000000000000000000000 DUP2 MSTORE CALLER SWAP2 DUP2 ADD SWAP2 DUP3 MSTORE PUSH1 0x20 DUP3 ADD SWAP4 SWAP1 SWAP4 MSTORE PUSH1 0x40 DUP2 ADD DUP8 SWAP1 MSTORE DUP3 SWAP2 POP PUSH1 0x60 ADD SUB SWAP1 REVERT JUMPDEST POP POP CALLVALUE PUSH2 0x127 JUMPI DUP2 PUSH1 0x3 NOT CALLDATASIZE ADD SLT PUSH2 0x127 JUMPI PUSH1 0x20 SWAP1 PUSH1 0x2 SLOAD SWAP1 MLOAD SWAP1 DUP2 MSTORE RETURN JUMPDEST SWAP1 POP CALLVALUE PUSH2 0x4BE JUMPI DUP2 PUSH1 0x3 NOT CALLDATASIZE ADD SLT PUSH2 0x4BE JUMPI PUSH2 0x66A PUSH2 0x839 JUMP JUMPDEST PUSH1 0x24 CALLDATALOAD SWAP1 CALLER ISZERO PUSH2 0x6E2 JUMPI PUSH1 0x1 PUSH1 0x1 PUSH1 0xA0 SHL SUB AND SWAP2 DUP3 ISZERO PUSH2 0x6CC JUMPI POP DUP1 DUP4 PUSH1 0x20 SWAP6 CALLER DUP2 MSTORE PUSH1 0x1 DUP8 MSTORE DUP2 DUP2 KECCAK256 DUP6 DUP3 MSTORE DUP8 MSTORE KECCAK256 SSTORE DUP3 MLOAD SWAP1 DUP2 MSTORE PUSH32 0x8C5BE1E5EBEC7D5BD14F71427D1E84F3DD0314C0F7B2291E5B200AC8C7C3B925 DUP5 CALLER SWAP3 LOG3 MLOAD PUSH1 0x1 DUP2 MSTORE RETURN JUMPDEST PUSH1 0x24 SWAP1 DUP6 DUP6 MLOAD SWAP2 PUSH4 0x4A1406B1 PUSH1 0xE1 SHL DUP4 MSTORE DUP3 ADD MSTORE REVERT JUMPDEST PUSH1 0x24 DUP4 DUP7 DUP7 MLOAD SWAP2 PUSH4 0xE602DF05 PUSH1 0xE0 SHL DUP4 MSTORE DUP3 ADD MSTORE REVERT JUMPDEST DUP4 DUP4 CALLVALUE PUSH2 0x127 JUMPI DUP2 PUSH1 0x3 NOT CALLDATASIZE ADD SLT PUSH2 0x127 JUMPI DUP1 MLOAD SWAP1 DUP3 PUSH1 0x3 SLOAD PUSH1 0x1 DUP2 PUSH1 0x1 SHR SWAP1 PUSH1 0x1 DUP4 AND SWAP3 DUP4 ISZERO PUSH2 0x7CA JUMPI JUMPDEST PUSH1 0x20 SWAP4 DUP5 DUP5 LT DUP2 EQ PUSH2 0x2C7 JUMPI DUP4 DUP9 MSTORE SWAP1 DUP2 ISZERO PUSH2 0x2AB JUMPI POP PUSH1 0x1 EQ PUSH2 0x774 JUMPI POP POP POP DUP3 SWAP1 SUB PUSH1 0x1F ADD PUSH1 0x1F NOT AND DUP3 ADD SWAP3 PUSH8 0xFFFFFFFFFFFFFFFF DUP5 GT DUP4 DUP6 LT OR PUSH2 0x243 JUMPI POP DUP3 SWAP2 DUP3 PUSH2 0x23F SWAP3 MSTORE DUP3 PUSH2 0x7F0 JUMP JUMPDEST PUSH1 0x3 DUP8 MSTORE SWAP2 SWAP3 POP DUP6 SWAP2 DUP4 PUSH32 0xC2575A0E9E593C00F959F8C92F12DB2869C3395A3B0502D05E2516446F71F85B JUMPDEST DUP4 DUP6 LT PUSH2 0x7B6 JUMPI POP POP POP POP DUP4 ADD ADD DUP6 DUP1 DUP1 PUSH2 0x20D JUMP JUMPDEST DUP1 SLOAD DUP9 DUP7 ADD DUP4 ADD MSTORE SWAP4 ADD SWAP3 DUP5 SWAP1 DUP3 ADD PUSH2 0x7A0 JUMP JUMPDEST SWAP2 PUSH1 0x7F AND SWAP2 PUSH2 0x724 JUMP JUMPDEST DUP5 SWAP1 CALLVALUE PUSH2 0x127 JUMPI DUP2 PUSH1 0x3 NOT CALLDATASIZE ADD SLT PUSH2 0x127 JUMPI PUSH1 0x20 SWAP1 PUSH1 0xA SLOAD DUP2 MSTORE RETURN JUMPDEST PUSH1 0x20 DUP1 DUP3 MSTORE DUP3 MLOAD DUP2 DUP4 ADD DUP2 SWAP1 MSTORE SWAP1 SWAP4 SWAP3 PUSH1 0x0 JUMPDEST DUP3 DUP2 LT PUSH2 0x825 JUMPI POP POP PUSH1 0x40 SWAP3 SWAP4 POP PUSH1 0x0 DUP4 DUP3 DUP5 ADD ADD MSTORE PUSH1 0x1F DUP1 NOT SWAP2 ADD AND ADD ADD SWAP1 JUMP JUMPDEST DUP2 DUP2 ADD DUP7 ADD MLOAD DUP5 DUP3 ADD PUSH1 0x40 ADD MSTORE DUP6 ADD PUSH2 0x803 JUMP JUMPDEST PUSH1 0x4 CALLDATALOAD SWAP1 PUSH1 0x1 PUSH1 0x1 PUSH1 0xA0 SHL SUB DUP3 AND DUP3 SUB PUSH2 0x84F JUMPI JUMP JUMPDEST PUSH1 0x0 DUP1 REVERT JUMPDEST PUSH1 0x24 CALLDATALOAD SWAP1 PUSH1 0x1 PUSH1 0x1 PUSH1 0xA0 SHL SUB DUP3 AND DUP3 SUB PUSH2 0x84F JUMPI JUMP JUMPDEST PUSH1 0xD SLOAD DUP2 LT ISZERO PUSH2 0x8A4 JUMPI PUSH1 0xD PUSH1 0x0 MSTORE PUSH1 0x1 SHL PUSH32 0xD7B6990105719101DABEB77144F2A3385C8033ACD3AF97E9423A695E81AD1EB5 ADD SWAP1 PUSH1 0x0 SWAP1 JUMP JUMPDEST PUSH4 0x4E487B71 PUSH1 0xE0 SHL PUSH1 0x0 MSTORE PUSH1 0x32 PUSH1 0x4 MSTORE PUSH1 0x24 PUSH1 0x0 REVERT JUMPDEST DUP2 DUP2 MUL SWAP3 SWAP2 DUP2 ISZERO SWAP2 DUP5 DIV EQ OR ISZERO PUSH2 0x8CD JUMPI JUMP JUMPDEST PUSH4 0x4E487B71 PUSH1 0xE0 SHL PUSH1 0x0 MSTORE PUSH1 0x11 PUSH1 0x4 MSTORE PUSH1 0x24 PUSH1 0x0 REVERT JUMPDEST SWAP3 SWAP2 SWAP1 PUSH1 0x1 PUSH1 0x1 PUSH1 0xA0 SHL SUB DUP1 DUP6 AND SWAP2 DUP3 ISZERO PUSH2 0xB31 JUMPI DUP2 AND SWAP3 DUP4 ISZERO PUSH2 0xB00 JUMPI PUSH1 0x0 SWAP2 ADDRESS DUP4 MSTORE PUSH1 0x20 SWAP3 PUSH1 0xE DUP5 MSTORE PUSH1 0x40 SWAP2 DUP3 DUP3 KECCAK256 SLOAD SWAP1 PUSH1 0x1 PUSH1 0xFF PUSH2 0x923 DUP5 PUSH2 0x86A JUMP JUMPDEST POP SLOAD PUSH1 0xA0 SHR AND ISZERO ISZERO EQ SWAP2 DUP3 PUSH2 0xAF1 JUMPI JUMPDEST DUP3 PUSH2 0xAE2 JUMPI JUMPDEST DUP3 PUSH2 0xAD3 JUMPI JUMPDEST DUP3 PUSH2 0xAC8 JUMPI JUMPDEST DUP3 PUSH2 0xABD JUMPI JUMPDEST DUP3 PUSH2 0xAA1 JUMPI JUMPDEST POP POP PUSH2 0x9F8 JUMPI JUMPDEST DUP5 DUP2 MSTORE DUP1 DUP5 MSTORE DUP2 DUP2 KECCAK256 SLOAD SWAP8 DUP4 DUP10 LT PUSH2 0x9AF JUMPI POP DUP1 DUP4 DUP7 SWAP8 SWAP9 SWAP10 PUSH32 0xDDF252AD1BE2C89B69C2B068FC378DAA952BA7F163C4A11628F55A4DF523B3EF SWAP8 DUP6 SWAP5 MSTORE DUP3 DUP8 MSTORE SUB DUP3 DUP3 KECCAK256 SSTORE DUP8 DUP2 MSTORE KECCAK256 DUP3 DUP2 SLOAD ADD SWAP1 SSTORE MLOAD SWAP1 DUP2 MSTORE LOG3 JUMP JUMPDEST DUP3 MLOAD PUSH32 0xE450D38C00000000000000000000000000000000000000000000000000000000 DUP2 MSTORE PUSH1 0x1 PUSH1 0x1 PUSH1 0xA0 SHL SUB SWAP2 SWAP1 SWAP2 AND PUSH1 0x4 DUP3 ADD MSTORE PUSH1 0x24 DUP2 ADD DUP10 SWAP1 MSTORE PUSH1 0x44 DUP2 ADD DUP5 SWAP1 MSTORE PUSH1 0x64 SWAP1 REVERT JUMPDEST PUSH1 0x64 PUSH2 0xA09 PUSH1 0x2 SLOAD PUSH1 0xA SLOAD SWAP1 PUSH2 0x8BA JUMP JUMPDEST DIV DUP7 DUP3 MSTORE DUP2 DUP6 MSTORE DUP3 DUP3 KECCAK256 SLOAD DUP5 DUP2 ADD DUP1 SWAP2 GT PUSH2 0xA8D JUMPI GT ISZERO PUSH2 0x958 JUMPI PUSH1 0x84 DUP5 DUP4 MLOAD SWAP1 PUSH3 0x461BCD PUSH1 0xE5 SHL DUP3 MSTORE PUSH1 0x4 DUP3 ADD MSTORE PUSH1 0x36 PUSH1 0x24 DUP3 ADD MSTORE PUSH32 0x4D79546F6B656E3A205472616E7366657220616D6F756E742065786365656473 PUSH1 0x44 DUP3 ADD MSTORE PUSH32 0x20746865206D617820686F6C64696E67206C696D697400000000000000000000 PUSH1 0x64 DUP3 ADD MSTORE REVERT JUMPDEST PUSH1 0x24 DUP4 PUSH4 0x4E487B71 PUSH1 0xE0 SHL DUP2 MSTORE PUSH1 0x11 PUSH1 0x4 MSTORE REVERT JUMPDEST PUSH1 0x1 SWAP2 SWAP3 POP PUSH2 0xAAF SWAP1 PUSH2 0x86A JUMP JUMPDEST POP ADD SLOAD AND DUP7 EQ ISZERO CODESIZE DUP1 PUSH2 0x951 JUMP JUMPDEST DUP8 DUP10 EQ ISZERO SWAP3 POP PUSH2 0x94B JUMP JUMPDEST ADDRESS DUP10 EQ ISZERO SWAP3 POP PUSH2 0x945 JUMP JUMPDEST PUSH1 0x8 SLOAD DUP3 AND DUP10 EQ ISZERO SWAP3 POP PUSH2 0x93F JUMP JUMPDEST PUSH1 0x7 SLOAD DUP3 AND DUP9 EQ ISZERO SWAP3 POP PUSH2 0x939 JUMP JUMPDEST PUSH1 0x7 SLOAD DUP3 AND DUP10 EQ ISZERO SWAP3 POP PUSH2 0x933 JUMP JUMPDEST PUSH1 0x24 PUSH1 0x40 MLOAD PUSH32 0xEC442F0500000000000000000000000000000000000000000000000000000000 DUP2 MSTORE PUSH1 0x0 PUSH1 0x4 DUP3 ADD MSTORE REVERT JUMPDEST PUSH1 0x24 PUSH1 0x40 MLOAD PUSH32 0x96C6FD1E00000000000000000000000000000000000000000000000000000000 DUP2 MSTORE PUSH1 0x0 PUSH1 0x4 DUP3 ADD MSTORE REVERT INVALID LOG2 PUSH5 0x6970667358 0x22 SLT KECCAK256 PUSH21 0x1E1F177A41BE94B6C53B93BEFB7FFE49223E4DCCC6 ADD PREVRANDAO DUP9 DUP15 MUL 0xD9 INVALID 0xAA RETURN MSIZE PUSH5 0x736F6C6343 STOP ADDMOD XOR STOP CALLER "},"methodIdentifiers":{"MAX_WALLET_PERCENTAGE()":"06647125","allTokens(uint256)":"634282af","allowance(address,address)":"dd62ed3e","approve(address,uint256)":"095ea7b3","balanceOf(address)":"70a08231","deadAddress()":"27c8f835","decimals()":"313ce567","enableMaxWalletLimit(address)":"5edfd7ce","factoryAddress()":"966dae0e","maxHolding()":"333e6f06","maxWalletAmount()":"aa4bde28","maxWalletEnabled()":"d045a329","name()":"06fdde03","symbol()":"95d89b41","totalSupply()":"18160ddd","transfer(address,uint256)":"a9059cbb","transferFrom(address,address,uint256)":"23b872dd"}}}}}