{"contracts/SwapExample.sol":{"SwapExamples":{"abi":[{"inputs":[{"internalType":"contract ISwapRouter","name":"_swapRouter","type":"address"}],"stateMutability":"nonpayable","type":"constructor"},{"inputs":[],"name":"VORTIX","outputs":[{"internalType":"address","name":"","type":"address"}],"stateMutability":"view","type":"function"},{"inputs":[],"name":"WETH","outputs":[{"internalType":"address","name":"","type":"address"}],"stateMutability":"view","type":"function"},{"inputs":[],"name":"poolFee","outputs":[{"internalType":"uint24","name":"","type":"uint24"}],"stateMutability":"view","type":"function"},{"inputs":[{"internalType":"uint256","name":"amountIn","type":"uint256"}],"name":"swapExactInputSingle","outputs":[{"internalType":"uint256","name":"amountOut","type":"uint256"}],"stateMutability":"nonpayable","type":"function"},{"inputs":[{"internalType":"uint256","name":"amountOut","type":"uint256"},{"internalType":"uint256","name":"amountInMaximum","type":"uint256"}],"name":"swapExactOutputSingle","outputs":[{"internalType":"uint256","name":"amountIn","type":"uint256"}],"stateMutability":"nonpayable","type":"function"},{"inputs":[],"name":"swapRouter","outputs":[{"internalType":"contract ISwapRouter","name":"","type":"address"}],"stateMutability":"view","type":"function"}],"evm":{"bytecode":{"linkReferences":{},"object":"60a03461007857601f61096038819003918201601f19168301916001600160401b0383118484101761007d5780849260209460405283398101031261007857516001600160a01b0381168103610078576080526040516108cc90816100948239608051818181610139015281816105b601526107500152f35b600080fd5b634e487b7160e01b600052604160045260246000fdfe6080604081815260048036101561001557600080fd5b600092833560e01c908163089fe6aa146107c85750806373bd43ad1461063c578063ad5c46481461060d578063c15c5eec146105de578063c31c9c07146105965763c4b69a181461006557600080fd5b346105925781600319360112610592576024918235815194602094858701917f23b872dd000000000000000000000000000000000000000000000000000000008352338289015260449230848a015260649480868b0152858a5260a08a019967ffffffffffffffff9a8181108c82111761058057849182918a52517394365bbf2e8f026279c22e8d94b534f8b3c58d8b9482865af1610102610839565b81610550575b50156105105786517f095ea7b3000000000000000000000000000000000000000000000000000000008a82018181527f00000000000000000000000000000000000000000000000000000000000000006001600160a01b031687840181815260208101869052909d9187918291908690604001039561018f601f1997888101835282610817565b519082895af161019d610839565b816104e0575b50156104ba578b9c6102898c9d610bb88d9e9c9d73fff9976782d46cc05630d1f6ebab18b2324d6b148151936101d8856107e4565b8b85528401528201523360608201524260808201528b3560a08201528660c08201528860e08201528d519e8f7fdb3e2198000000000000000000000000000000000000000000000000000000008152019060e090816001600160a01b039182815116855282602082015116602086015262ffffff60408201511660408601528260608201511660608601526080810151608086015260a081015160a086015260c081015160c0860152015116910152565b8d8d610104818a855af19c8d156104b057908e9291889e610474575b50858e106102b7575b828e8e51908152f35b8c51928301938452888301528689830152888252608082019082821090821117610462578b5251859182919082875af16102ef610839565b81610432575b501561040c578982039182116103f957908361035b6103678295948e8d519384918201967fa9059cbb000000000000000000000000000000000000000000000000000000008852338c8401602090939291936001600160a01b0360408201951681520152565b03908101835282610817565b51925af1610373610839565b816103c9575b501561038c5780808080808b81806102ae565b9060027f5354000000000000000000000000000000000000000000000000000000000000928887519562461bcd60e51b8752860152840152820152fd5b805180159250899083156103e1575b50505038610379565b6103f19350820181019101610879565b3888816103d8565b505050601184634e487b7160e01b835252fd5b5050505090600261534160f01b928887519562461bcd60e51b8752860152840152820152fd5b8051801592508d90831561044a575b505050386102f5565b61045a9350820181019101610879565b388c81610441565b878760418c634e487b7160e01b835252fd5b80929495969e508391933d83116104a9575b6104908183610817565b810103126104a557519b9392918d91856102a5565b8680fd5b503d610486565b8c513d89823e3d90fd5b5050868961534160f01b886002898f8e519562461bcd60e51b8752860152840152820152fd5b8051801592508e9083156104f8575b505050386101a3565b6105089350820181019101610879565b388d816104ef565b50505060039192957f535446000000000000000000000000000000000000000000000000000000000094519562461bcd60e51b8752860152840152820152fd5b8051801592508b908315610568575b50505038610108565b6105789350820181019101610879565b388a8161055f565b858560418c634e487b7160e01b835252fd5b8280fd5b5050346105da57816003193601126105da57602090516001600160a01b037f0000000000000000000000000000000000000000000000000000000000000000168152f35b5080fd5b5050346105da57816003193601126105da57602090517394365bbf2e8f026279c22e8d94b534f8b3c58d8b8152f35b5050346105da57816003193601126105da576020905173fff9976782d46cc05630d1f6ebab18b2324d6b148152f35b509190346105da57602092836003193601126105925761073f8251610660816107e4565b7394365bbf2e8f026279c22e8d94b534f8b3c58d8b815273fff9976782d46cc05630d1f6ebab18b2324d6b1486820152610bb884820152336060820152426080820152823560a08201528460c08201528460e08201528351927f414bf38900000000000000000000000000000000000000000000000000000000845283019060e090816001600160a01b039182815116855282602082015116602086015262ffffff60408201511660408601528260608201511660608601526080810151608086015260a081015160a086015260c081015160c0860152015116910152565b838161010481866001600160a01b037f0000000000000000000000000000000000000000000000000000000000000000165af19283156107bd578093610788575b505051908152f35b909192508382813d83116107b6575b6107a18183610817565b810103126107b3575051903880610780565b80fd5b503d610797565b8251903d90823e3d90fd5b8490346105da57816003193601126105da5780610bb860209252f35b610100810190811067ffffffffffffffff82111761080157604052565b634e487b7160e01b600052604160045260246000fd5b90601f8019910116810190811067ffffffffffffffff82111761080157604052565b3d15610874573d9067ffffffffffffffff82116108015760405191610868601f8201601f191660200184610817565b82523d6000602084013e565b606090565b90816020910312610891575180151581036108915790565b600080fdfea264697066735822122042da4d6f99c22b09cae65a24d0ae45bcf8404386da06c43e5c17de4389878fbe64736f6c63430008180033","opcodes":"PUSH1 0xA0 CALLVALUE PUSH2 0x78 JUMPI PUSH1 0x1F PUSH2 0x960 CODESIZE DUP2 SWAP1 SUB SWAP2 DUP3 ADD PUSH1 0x1F NOT AND DUP4 ADD SWAP2 PUSH1 0x1 PUSH1 0x1 PUSH1 0x40 SHL SUB DUP4 GT DUP5 DUP5 LT OR PUSH2 0x7D JUMPI DUP1 DUP5 SWAP3 PUSH1 0x20 SWAP5 PUSH1 0x40 MSTORE DUP4 CODECOPY DUP2 ADD SUB SLT PUSH2 0x78 JUMPI MLOAD PUSH1 0x1 PUSH1 0x1 PUSH1 0xA0 SHL SUB DUP2 AND DUP2 SUB PUSH2 0x78 JUMPI PUSH1 0x80 MSTORE PUSH1 0x40 MLOAD PUSH2 0x8CC SWAP1 DUP2 PUSH2 0x94 DUP3 CODECOPY PUSH1 0x80 MLOAD DUP2 DUP2 DUP2 PUSH2 0x139 ADD MSTORE DUP2 DUP2 PUSH2 0x5B6 ADD MSTORE PUSH2 0x750 ADD MSTORE RETURN JUMPDEST PUSH1 0x0 DUP1 REVERT JUMPDEST PUSH4 0x4E487B71 PUSH1 0xE0 SHL PUSH1 0x0 MSTORE PUSH1 0x41 PUSH1 0x4 MSTORE PUSH1 0x24 PUSH1 0x0 REVERT INVALID PUSH1 0x80 PUSH1 0x40 DUP2 DUP2 MSTORE PUSH1 0x4 DUP1 CALLDATASIZE LT ISZERO PUSH2 0x15 JUMPI PUSH1 0x0 DUP1 REVERT JUMPDEST PUSH1 0x0 SWAP3 DUP4 CALLDATALOAD PUSH1 0xE0 SHR SWAP1 DUP2 PUSH4 0x89FE6AA EQ PUSH2 0x7C8 JUMPI POP DUP1 PUSH4 0x73BD43AD EQ PUSH2 0x63C JUMPI DUP1 PUSH4 0xAD5C4648 EQ PUSH2 0x60D JUMPI DUP1 PUSH4 0xC15C5EEC EQ PUSH2 0x5DE JUMPI DUP1 PUSH4 0xC31C9C07 EQ PUSH2 0x596 JUMPI PUSH4 0xC4B69A18 EQ PUSH2 0x65 JUMPI PUSH1 0x0 DUP1 REVERT JUMPDEST CALLVALUE PUSH2 0x592 JUMPI DUP2 PUSH1 0x3 NOT CALLDATASIZE ADD SLT PUSH2 0x592 JUMPI PUSH1 0x24 SWAP2 DUP3 CALLDATALOAD DUP2 MLOAD SWAP5 PUSH1 0x20 SWAP5 DUP6 DUP8 ADD SWAP2 PUSH32 0x23B872DD00000000000000000000000000000000000000000000000000000000 DUP4 MSTORE CALLER DUP3 DUP10 ADD MSTORE PUSH1 0x44 SWAP3 ADDRESS DUP5 DUP11 ADD MSTORE PUSH1 0x64 SWAP5 DUP1 DUP7 DUP12 ADD MSTORE DUP6 DUP11 MSTORE PUSH1 0xA0 DUP11 ADD SWAP10 PUSH8 0xFFFFFFFFFFFFFFFF SWAP11 DUP2 DUP2 LT DUP13 DUP3 GT OR PUSH2 0x580 JUMPI DUP5 SWAP2 DUP3 SWAP2 DUP11 MSTORE MLOAD PUSH20 0x94365BBF2E8F026279C22E8D94B534F8B3C58D8B SWAP5 DUP3 DUP7 GAS CALL PUSH2 0x102 PUSH2 0x839 JUMP JUMPDEST DUP2 PUSH2 0x550 JUMPI JUMPDEST POP ISZERO PUSH2 0x510 JUMPI DUP7 MLOAD PUSH32 0x95EA7B300000000000000000000000000000000000000000000000000000000 DUP11 DUP3 ADD DUP2 DUP2 MSTORE PUSH32 0x0 PUSH1 0x1 PUSH1 0x1 PUSH1 0xA0 SHL SUB AND DUP8 DUP5 ADD DUP2 DUP2 MSTORE PUSH1 0x20 DUP2 ADD DUP7 SWAP1 MSTORE SWAP1 SWAP14 SWAP2 DUP8 SWAP2 DUP3 SWAP2 SWAP1 DUP7 SWAP1 PUSH1 0x40 ADD SUB SWAP6 PUSH2 0x18F PUSH1 0x1F NOT SWAP8 DUP9 DUP2 ADD DUP4 MSTORE DUP3 PUSH2 0x817 JUMP JUMPDEST MLOAD SWAP1 DUP3 DUP10 GAS CALL PUSH2 0x19D PUSH2 0x839 JUMP JUMPDEST DUP2 PUSH2 0x4E0 JUMPI JUMPDEST POP ISZERO PUSH2 0x4BA JUMPI DUP12 SWAP13 PUSH2 0x289 DUP13 SWAP14 PUSH2 0xBB8 DUP14 SWAP15 SWAP13 SWAP14 PUSH20 0xFFF9976782D46CC05630D1F6EBAB18B2324D6B14 DUP2 MLOAD SWAP4 PUSH2 0x1D8 DUP6 PUSH2 0x7E4 JUMP JUMPDEST DUP12 DUP6 MSTORE DUP5 ADD MSTORE DUP3 ADD MSTORE CALLER PUSH1 0x60 DUP3 ADD MSTORE TIMESTAMP PUSH1 0x80 DUP3 ADD MSTORE DUP12 CALLDATALOAD PUSH1 0xA0 DUP3 ADD MSTORE DUP7 PUSH1 0xC0 DUP3 ADD MSTORE DUP9 PUSH1 0xE0 DUP3 ADD MSTORE DUP14 MLOAD SWAP15 DUP16 PUSH32 0xDB3E219800000000000000000000000000000000000000000000000000000000 DUP2 MSTORE ADD SWAP1 PUSH1 0xE0 SWAP1 DUP2 PUSH1 0x1 PUSH1 0x1 PUSH1 0xA0 SHL SUB SWAP2 DUP3 DUP2 MLOAD AND DUP6 MSTORE DUP3 PUSH1 0x20 DUP3 ADD MLOAD AND PUSH1 0x20 DUP7 ADD MSTORE PUSH3 0xFFFFFF PUSH1 0x40 DUP3 ADD MLOAD AND PUSH1 0x40 DUP7 ADD MSTORE DUP3 PUSH1 0x60 DUP3 ADD MLOAD AND PUSH1 0x60 DUP7 ADD MSTORE PUSH1 0x80 DUP2 ADD MLOAD PUSH1 0x80 DUP7 ADD MSTORE PUSH1 0xA0 DUP2 ADD MLOAD PUSH1 0xA0 DUP7 ADD MSTORE PUSH1 0xC0 DUP2 ADD MLOAD PUSH1 0xC0 DUP7 ADD MSTORE ADD MLOAD AND SWAP2 ADD MSTORE JUMP JUMPDEST DUP14 DUP14 PUSH2 0x104 DUP2 DUP11 DUP6 GAS CALL SWAP13 DUP14 ISZERO PUSH2 0x4B0 JUMPI SWAP1 DUP15 SWAP3 SWAP2 DUP9 SWAP15 PUSH2 0x474 JUMPI JUMPDEST POP DUP6 DUP15 LT PUSH2 0x2B7 JUMPI JUMPDEST DUP3 DUP15 DUP15 MLOAD SWAP1 DUP2 MSTORE RETURN JUMPDEST DUP13 MLOAD SWAP3 DUP4 ADD SWAP4 DUP5 MSTORE DUP9 DUP4 ADD MSTORE DUP7 DUP10 DUP4 ADD MSTORE DUP9 DUP3 MSTORE PUSH1 0x80 DUP3 ADD SWAP1 DUP3 DUP3 LT SWAP1 DUP3 GT OR PUSH2 0x462 JUMPI DUP12 MSTORE MLOAD DUP6 SWAP2 DUP3 SWAP2 SWAP1 DUP3 DUP8 GAS CALL PUSH2 0x2EF PUSH2 0x839 JUMP JUMPDEST DUP2 PUSH2 0x432 JUMPI JUMPDEST POP ISZERO PUSH2 0x40C JUMPI DUP10 DUP3 SUB SWAP2 DUP3 GT PUSH2 0x3F9 JUMPI SWAP1 DUP4 PUSH2 0x35B PUSH2 0x367 DUP3 SWAP6 SWAP5 DUP15 DUP14 MLOAD SWAP4 DUP5 SWAP2 DUP3 ADD SWAP7 PUSH32 0xA9059CBB00000000000000000000000000000000000000000000000000000000 DUP9 MSTORE CALLER DUP13 DUP5 ADD PUSH1 0x20 SWAP1 SWAP4 SWAP3 SWAP2 SWAP4 PUSH1 0x1 PUSH1 0x1 PUSH1 0xA0 SHL SUB PUSH1 0x40 DUP3 ADD SWAP6 AND DUP2 MSTORE ADD MSTORE JUMP JUMPDEST SUB SWAP1 DUP2 ADD DUP4 MSTORE DUP3 PUSH2 0x817 JUMP JUMPDEST MLOAD SWAP3 GAS CALL PUSH2 0x373 PUSH2 0x839 JUMP JUMPDEST DUP2 PUSH2 0x3C9 JUMPI JUMPDEST POP ISZERO PUSH2 0x38C JUMPI DUP1 DUP1 DUP1 DUP1 DUP1 DUP12 DUP2 DUP1 PUSH2 0x2AE JUMP JUMPDEST SWAP1 PUSH1 0x2 PUSH32 0x5354000000000000000000000000000000000000000000000000000000000000 SWAP3 DUP9 DUP8 MLOAD SWAP6 PUSH3 0x461BCD PUSH1 0xE5 SHL DUP8 MSTORE DUP7 ADD MSTORE DUP5 ADD MSTORE DUP3 ADD MSTORE REVERT JUMPDEST DUP1 MLOAD DUP1 ISZERO SWAP3 POP DUP10 SWAP1 DUP4 ISZERO PUSH2 0x3E1 JUMPI JUMPDEST POP POP POP CODESIZE PUSH2 0x379 JUMP JUMPDEST PUSH2 0x3F1 SWAP4 POP DUP3 ADD DUP2 ADD SWAP2 ADD PUSH2 0x879 JUMP JUMPDEST CODESIZE DUP9 DUP2 PUSH2 0x3D8 JUMP JUMPDEST POP POP POP PUSH1 0x11 DUP5 PUSH4 0x4E487B71 PUSH1 0xE0 SHL DUP4 MSTORE MSTORE REVERT JUMPDEST POP POP POP POP SWAP1 PUSH1 0x2 PUSH2 0x5341 PUSH1 0xF0 SHL SWAP3 DUP9 DUP8 MLOAD SWAP6 PUSH3 0x461BCD PUSH1 0xE5 SHL DUP8 MSTORE DUP7 ADD MSTORE DUP5 ADD MSTORE DUP3 ADD MSTORE REVERT JUMPDEST DUP1 MLOAD DUP1 ISZERO SWAP3 POP DUP14 SWAP1 DUP4 ISZERO PUSH2 0x44A JUMPI JUMPDEST POP POP POP CODESIZE PUSH2 0x2F5 JUMP JUMPDEST PUSH2 0x45A SWAP4 POP DUP3 ADD DUP2 ADD SWAP2 ADD PUSH2 0x879 JUMP JUMPDEST CODESIZE DUP13 DUP2 PUSH2 0x441 JUMP JUMPDEST DUP8 DUP8 PUSH1 0x41 DUP13 PUSH4 0x4E487B71 PUSH1 0xE0 SHL DUP4 MSTORE MSTORE REVERT JUMPDEST DUP1 SWAP3 SWAP5 SWAP6 SWAP7 SWAP15 POP DUP4 SWAP2 SWAP4 RETURNDATASIZE DUP4 GT PUSH2 0x4A9 JUMPI JUMPDEST PUSH2 0x490 DUP2 DUP4 PUSH2 0x817 JUMP JUMPDEST DUP2 ADD SUB SLT PUSH2 0x4A5 JUMPI MLOAD SWAP12 SWAP4 SWAP3 SWAP2 DUP14 SWAP2 DUP6 PUSH2 0x2A5 JUMP JUMPDEST DUP7 DUP1 REVERT JUMPDEST POP RETURNDATASIZE PUSH2 0x486 JUMP JUMPDEST DUP13 MLOAD RETURNDATASIZE DUP10 DUP3 RETURNDATACOPY RETURNDATASIZE SWAP1 REVERT JUMPDEST POP POP DUP7 DUP10 PUSH2 0x5341 PUSH1 0xF0 SHL DUP9 PUSH1 0x2 DUP10 DUP16 DUP15 MLOAD SWAP6 PUSH3 0x461BCD PUSH1 0xE5 SHL DUP8 MSTORE DUP7 ADD MSTORE DUP5 ADD MSTORE DUP3 ADD MSTORE REVERT JUMPDEST DUP1 MLOAD DUP1 ISZERO SWAP3 POP DUP15 SWAP1 DUP4 ISZERO PUSH2 0x4F8 JUMPI JUMPDEST POP POP POP CODESIZE PUSH2 0x1A3 JUMP JUMPDEST PUSH2 0x508 SWAP4 POP DUP3 ADD DUP2 ADD SWAP2 ADD PUSH2 0x879 JUMP JUMPDEST CODESIZE DUP14 DUP2 PUSH2 0x4EF JUMP JUMPDEST POP POP POP PUSH1 0x3 SWAP2 SWAP3 SWAP6 PUSH32 0x5354460000000000000000000000000000000000000000000000000000000000 SWAP5 MLOAD SWAP6 PUSH3 0x461BCD PUSH1 0xE5 SHL DUP8 MSTORE DUP7 ADD MSTORE DUP5 ADD MSTORE DUP3 ADD MSTORE REVERT JUMPDEST DUP1 MLOAD DUP1 ISZERO SWAP3 POP DUP12 SWAP1 DUP4 ISZERO PUSH2 0x568 JUMPI JUMPDEST POP POP POP CODESIZE PUSH2 0x108 JUMP JUMPDEST PUSH2 0x578 SWAP4 POP DUP3 ADD DUP2 ADD SWAP2 ADD PUSH2 0x879 JUMP JUMPDEST CODESIZE DUP11 DUP2 PUSH2 0x55F JUMP JUMPDEST DUP6 DUP6 PUSH1 0x41 DUP13 PUSH4 0x4E487B71 PUSH1 0xE0 SHL DUP4 MSTORE MSTORE REVERT JUMPDEST DUP3 DUP1 REVERT JUMPDEST POP POP CALLVALUE PUSH2 0x5DA JUMPI DUP2 PUSH1 0x3 NOT CALLDATASIZE ADD SLT PUSH2 0x5DA JUMPI PUSH1 0x20 SWAP1 MLOAD PUSH1 0x1 PUSH1 0x1 PUSH1 0xA0 SHL SUB PUSH32 0x0 AND DUP2 MSTORE RETURN JUMPDEST POP DUP1 REVERT JUMPDEST POP POP CALLVALUE PUSH2 0x5DA JUMPI DUP2 PUSH1 0x3 NOT CALLDATASIZE ADD SLT PUSH2 0x5DA JUMPI PUSH1 0x20 SWAP1 MLOAD PUSH20 0x94365BBF2E8F026279C22E8D94B534F8B3C58D8B DUP2 MSTORE RETURN JUMPDEST POP POP CALLVALUE PUSH2 0x5DA JUMPI DUP2 PUSH1 0x3 NOT CALLDATASIZE ADD SLT PUSH2 0x5DA JUMPI PUSH1 0x20 SWAP1 MLOAD PUSH20 0xFFF9976782D46CC05630D1F6EBAB18B2324D6B14 DUP2 MSTORE RETURN JUMPDEST POP SWAP2 SWAP1 CALLVALUE PUSH2 0x5DA JUMPI PUSH1 0x20 SWAP3 DUP4 PUSH1 0x3 NOT CALLDATASIZE ADD SLT PUSH2 0x592 JUMPI PUSH2 0x73F DUP3 MLOAD PUSH2 0x660 DUP2 PUSH2 0x7E4 JUMP JUMPDEST PUSH20 0x94365BBF2E8F026279C22E8D94B534F8B3C58D8B DUP2 MSTORE PUSH20 0xFFF9976782D46CC05630D1F6EBAB18B2324D6B14 DUP7 DUP3 ADD MSTORE PUSH2 0xBB8 DUP5 DUP3 ADD MSTORE CALLER PUSH1 0x60 DUP3 ADD MSTORE TIMESTAMP PUSH1 0x80 DUP3 ADD MSTORE DUP3 CALLDATALOAD PUSH1 0xA0 DUP3 ADD MSTORE DUP5 PUSH1 0xC0 DUP3 ADD MSTORE DUP5 PUSH1 0xE0 DUP3 ADD MSTORE DUP4 MLOAD SWAP3 PUSH32 0x414BF38900000000000000000000000000000000000000000000000000000000 DUP5 MSTORE DUP4 ADD SWAP1 PUSH1 0xE0 SWAP1 DUP2 PUSH1 0x1 PUSH1 0x1 PUSH1 0xA0 SHL SUB SWAP2 DUP3 DUP2 MLOAD AND DUP6 MSTORE DUP3 PUSH1 0x20 DUP3 ADD MLOAD AND PUSH1 0x20 DUP7 ADD MSTORE PUSH3 0xFFFFFF PUSH1 0x40 DUP3 ADD MLOAD AND PUSH1 0x40 DUP7 ADD MSTORE DUP3 PUSH1 0x60 DUP3 ADD MLOAD AND PUSH1 0x60 DUP7 ADD MSTORE PUSH1 0x80 DUP2 ADD MLOAD PUSH1 0x80 DUP7 ADD MSTORE PUSH1 0xA0 DUP2 ADD MLOAD PUSH1 0xA0 DUP7 ADD MSTORE PUSH1 0xC0 DUP2 ADD MLOAD PUSH1 0xC0 DUP7 ADD MSTORE ADD MLOAD AND SWAP2 ADD MSTORE JUMP JUMPDEST DUP4 DUP2 PUSH2 0x104 DUP2 DUP7 PUSH1 0x1 PUSH1 0x1 PUSH1 0xA0 SHL SUB PUSH32 0x0 AND GAS CALL SWAP3 DUP4 ISZERO PUSH2 0x7BD JUMPI DUP1 SWAP4 PUSH2 0x788 JUMPI JUMPDEST POP POP MLOAD SWAP1 DUP2 MSTORE RETURN JUMPDEST SWAP1 SWAP2 SWAP3 POP DUP4 DUP3 DUP2 RETURNDATASIZE DUP4 GT PUSH2 0x7B6 JUMPI JUMPDEST PUSH2 0x7A1 DUP2 DUP4 PUSH2 0x817 JUMP JUMPDEST DUP2 ADD SUB SLT PUSH2 0x7B3 JUMPI POP MLOAD SWAP1 CODESIZE DUP1 PUSH2 0x780 JUMP JUMPDEST DUP1 REVERT JUMPDEST POP RETURNDATASIZE PUSH2 0x797 JUMP JUMPDEST DUP3 MLOAD SWAP1 RETURNDATASIZE SWAP1 DUP3 RETURNDATACOPY RETURNDATASIZE SWAP1 REVERT JUMPDEST DUP5 SWAP1 CALLVALUE PUSH2 0x5DA JUMPI DUP2 PUSH1 0x3 NOT CALLDATASIZE ADD SLT PUSH2 0x5DA JUMPI DUP1 PUSH2 0xBB8 PUSH1 0x20 SWAP3 MSTORE RETURN JUMPDEST PUSH2 0x100 DUP2 ADD SWAP1 DUP2 LT PUSH8 0xFFFFFFFFFFFFFFFF DUP3 GT OR PUSH2 0x801 JUMPI PUSH1 0x40 MSTORE JUMP JUMPDEST PUSH4 0x4E487B71 PUSH1 0xE0 SHL PUSH1 0x0 MSTORE PUSH1 0x41 PUSH1 0x4 MSTORE PUSH1 0x24 PUSH1 0x0 REVERT JUMPDEST SWAP1 PUSH1 0x1F DUP1 NOT SWAP2 ADD AND DUP2 ADD SWAP1 DUP2 LT PUSH8 0xFFFFFFFFFFFFFFFF DUP3 GT OR PUSH2 0x801 JUMPI PUSH1 0x40 MSTORE JUMP JUMPDEST RETURNDATASIZE ISZERO PUSH2 0x874 JUMPI RETURNDATASIZE SWAP1 PUSH8 0xFFFFFFFFFFFFFFFF DUP3 GT PUSH2 0x801 JUMPI PUSH1 0x40 MLOAD SWAP2 PUSH2 0x868 PUSH1 0x1F DUP3 ADD PUSH1 0x1F NOT AND PUSH1 0x20 ADD DUP5 PUSH2 0x817 JUMP JUMPDEST DUP3 MSTORE RETURNDATASIZE PUSH1 0x0 PUSH1 0x20 DUP5 ADD RETURNDATACOPY JUMP JUMPDEST PUSH1 0x60 SWAP1 JUMP JUMPDEST SWAP1 DUP2 PUSH1 0x20 SWAP2 SUB SLT PUSH2 0x891 JUMPI MLOAD DUP1 ISZERO ISZERO DUP2 SUB PUSH2 0x891 JUMPI SWAP1 JUMP JUMPDEST PUSH1 0x0 DUP1 REVERT INVALID LOG2 PUSH5 0x6970667358 0x22 SLT KECCAK256 TIMESTAMP 0xDA 0x4D PUSH16 0x99C22B09CAE65A24D0AE45BCF8404386 0xDA MOD 0xC4 RETURNDATACOPY TLOAD OR 0xDE NUMBER DUP10 DUP8 DUP16 0xBE PUSH5 0x736F6C6343 STOP ADDMOD XOR STOP CALLER "},"methodIdentifiers":{"VORTIX()":"c15c5eec","WETH()":"ad5c4648","poolFee()":"089fe6aa","swapExactInputSingle(uint256)":"73bd43ad","swapExactOutputSingle(uint256,uint256)":"c4b69a18","swapRouter()":"c31c9c07"}}}}}