{"contracts/FactoryExtra.sol":{"FactoryHelper":{"abi":[{"inputs":[{"internalType":"address","name":"_factoryAddress","type":"address"},{"internalType":"address","name":"_positionManager","type":"address"},{"internalType":"address","name":"_weth","type":"address"},{"internalType":"address","name":"_uniswapFactory","type":"address"},{"internalType":"address","name":"_swapRouter","type":"address"},{"internalType":"address","name":"_lockerAddress","type":"address"},{"internalType":"address","name":"_teamWallet","type":"address"},{"internalType":"address","name":"_quoterAddress","type":"address"}],"stateMutability":"nonpayable","type":"constructor"},{"anonymous":false,"inputs":[{"indexed":true,"internalType":"address","name":"token","type":"address"},{"indexed":false,"internalType":"uint256","name":"tokenId","type":"uint256"},{"indexed":false,"internalType":"string","name":"eventType","type":"string"},{"indexed":false,"internalType":"uint256","name":"amount0","type":"uint256"},{"indexed":false,"internalType":"uint256","name":"amount1","type":"uint256"}],"name":"LiquidityEvent","type":"event"},{"anonymous":false,"inputs":[{"indexed":false,"internalType":"uint256","name":"amountOut","type":"uint256"}],"name":"TokensSwapped","type":"event"},{"inputs":[{"internalType":"address","name":"token0","type":"address"},{"internalType":"address","name":"token1","type":"address"},{"internalType":"uint160","name":"sqrtPriceX96","type":"uint160"}],"name":"createAndInitializePoolIfNecessary","outputs":[{"internalType":"address","name":"pool","type":"address"}],"stateMutability":"nonpayable","type":"function"},{"inputs":[],"name":"deadAddress","outputs":[{"internalType":"address","name":"","type":"address"}],"stateMutability":"view","type":"function"},{"inputs":[{"internalType":"address","name":"tokenIn","type":"address"},{"internalType":"address","name":"tokenOut","type":"address"},{"internalType":"uint256","name":"amountIn","type":"uint256"},{"internalType":"uint256","name":"amountOutMinimum","type":"uint256"},{"internalType":"address","name":"recipient","type":"address"}],"name":"executeSwap","outputs":[{"internalType":"uint256","name":"amountOut","type":"uint256"}],"stateMutability":"payable","type":"function"},{"inputs":[],"name":"factoryAddress","outputs":[{"internalType":"address","name":"","type":"address"}],"stateMutability":"view","type":"function"},{"inputs":[],"name":"factoryHelper","outputs":[{"internalType":"contract FactoryHelper","name":"","type":"address"}],"stateMutability":"view","type":"function"},{"inputs":[{"internalType":"address","name":"tokenIn","type":"address"},{"internalType":"address","name":"tokenOut","type":"address"},{"internalType":"uint256","name":"amountIn","type":"uint256"}],"name":"getEstimatedAmountOut","outputs":[{"internalType":"uint256","name":"amountOut","type":"uint256"}],"stateMutability":"nonpayable","type":"function"},{"inputs":[{"internalType":"address","name":"poolAddress","type":"address"},{"internalType":"uint32","name":"twapInterval","type":"uint32"}],"name":"getTWAPPrice","outputs":[{"internalType":"uint256","name":"price","type":"uint256"}],"stateMutability":"view","type":"function"},{"inputs":[],"name":"locker","outputs":[{"internalType":"contract ILiquidityLocker","name":"","type":"address"}],"stateMutability":"view","type":"function"},{"inputs":[],"name":"lockerAddress","outputs":[{"internalType":"address","name":"","type":"address"}],"stateMutability":"view","type":"function"},{"inputs":[],"name":"nftAddress","outputs":[{"internalType":"address","name":"","type":"address"}],"stateMutability":"view","type":"function"},{"inputs":[],"name":"owner","outputs":[{"internalType":"address","name":"","type":"address"}],"stateMutability":"view","type":"function"},{"inputs":[],"name":"positionManager","outputs":[{"internalType":"contract INonfungiblePositionManager","name":"","type":"address"}],"stateMutability":"view","type":"function"},{"inputs":[],"name":"quoter","outputs":[{"internalType":"contract IQuoterV2","name":"","type":"address"}],"stateMutability":"view","type":"function"},{"inputs":[{"internalType":"uint256","name":"tokenId","type":"uint256"},{"internalType":"uint128","name":"liquidityToRemove","type":"uint128"}],"name":"removeLiquidity","outputs":[{"internalType":"uint256","name":"","type":"uint256"},{"internalType":"uint256","name":"","type":"uint256"}],"stateMutability":"nonpayable","type":"function"},{"inputs":[{"internalType":"uint256","name":"amountIn","type":"uint256"},{"internalType":"address","name":"tokenAddress","type":"address"}],"name":"swapETHforTokens","outputs":[{"internalType":"uint256","name":"amountOut","type":"uint256"}],"stateMutability":"payable","type":"function"},{"inputs":[],"name":"swapRouter","outputs":[{"internalType":"contract ISwapRouter","name":"","type":"address"}],"stateMutability":"view","type":"function"},{"inputs":[],"name":"teamWallet","outputs":[{"internalType":"address","name":"","type":"address"}],"stateMutability":"view","type":"function"},{"inputs":[],"name":"uniswapFactory","outputs":[{"internalType":"contract IUniswapV3Factory","name":"","type":"address"}],"stateMutability":"view","type":"function"},{"inputs":[],"name":"weth","outputs":[{"internalType":"address","name":"","type":"address"}],"stateMutability":"view","type":"function"}],"evm":{"bytecode":{"linkReferences":{},"object":"6080346200015e57601f620016e938819003918201601f19168301916001600160401b038311848410176200016357808492610100946040528339810103126200015e576200004e8162000179565b906200005d6020820162000179565b916200006c6040830162000179565b6200007a6060840162000179565b620000886080850162000179565b916200009760a0860162000179565b94620000b460e0620000ac60c0840162000179565b920162000179565b9260018060a01b031997889361dead85600154161760015560018060a01b03809981809981988280809816988983600254161760025516906003541617600355168c60045416176004551692838b60075416176007558a600a541617600a55168860005416176000553388600854161760085587600b541617600b551685600c541617600c55168360055416176005551690600954161760095560405161155a90816200018f8239f35b600080fd5b634e487b7160e01b600052604160045260246000fd5b51906001600160a01b03821682036200015e5756fe60806040908082526004918236101561001757600080fd5b600091823560e01c90816327c8f83514611239575080633675f29b146112125780633fc8cef3146111ed57806351246d6e146110f557806359927044146110ce5780635bf8633a146110a757806373d84e4214610f40578063791b98bc14610f195780638bdb2afa14610ef25780638be32a411461060b5780638da5cb5b146105e4578063911757ba146103ff578063966dae0e146103d8578063c31c9c07146103b1578063c6bbd5a71461038a578063d7b96d4e14610363578063e6ce06e21461032b578063fd53f53b146103045763fde16ed3146100f657600080fd5b8060031936011261030057823561010b611279565b6001600160a01b0391610122818385885416611416565b605f810290808204605f14901517156102ed579585968487541685835416908751917f095ea7b3000000000000000000000000000000000000000000000000000000008352848301528460248301528160448160209c8d945af180156102e3579089959493929161029d575b509460646102439682808b5416968a51976101a88961128f565b88521687870152612710898701523360608701528460808701520460a08501528760c08501528154169186518096819582946304e45aaf60e01b8452830191909160c060e0820193816001600160a01b039182815116855282602082015116602086015262ffffff60408201511660408601528260608201511660608601526080810151608086015260a081015160a0860152015116910152565b03925af192831561029257809361025d575b505051908152f35b909192508382813d831161028b575b61027681836112dd565b81010312610288575051903880610255565b80fd5b503d61026c565b8251903d90823e3d90fd5b90919395929481813d83116102dc575b6102b781836112dd565b810103126102d85751801515036102d4579187939194923861018e565b8680fd5b8780fd5b503d6102ad565b87513d8a823e3d90fd5b602486601189634e487b7160e01b835252fd5b5080fd5b50346103005781600319360112610300576020906001600160a01b03600654169051908152f35b50346103005760603660031901126103005760209061035c61034b61125e565b610353611279565b60443591611416565b9051908152f35b50346103005781600319360112610300576020906001600160a01b03600754169051908152f35b50346103005781600319360112610300576020906001600160a01b03600554169051908152f35b509034610288578060031936011261028857506001600160a01b0360209254169051908152f35b50346103005781600319360112610300576020906001600160a01b03600954169051908152f35b509134610300578260031936011261030057803590602435916fffffffffffffffffffffffffffffffff8084168094036105e0576001600160a01b0393868460a4876002541689845191610452836112c1565b888352602083019687528583018281526060840183815260808501914283528a89519a8b998a987f0c49ccbe000000000000000000000000000000000000000000000000000000008a525190890152511660248701525160448601525160648501525160848401525af180156105d6576105ba575b508360025416908651926080840184811067ffffffffffffffff8211176105a757928895949288926084958852845260208401973389528188860181815260608701928284528a519b8c9a8b997ffc6f7865000000000000000000000000000000000000000000000000000000008b5251908a01525116602488015251166044860152511660648401525af190811561059d57829161056e575b5082519182526020820152f35b90506105909150823d8411610596575b61058881836112dd565b810190611400565b38610561565b503d61057e565b83513d84823e3d90fd5b602488604188634e487b7160e01b835252fd5b6105d090873d89116105965761058881836112dd565b506104c7565b87513d88823e3d90fd5b8480fd5b50346103005781600319360112610300576020906001600160a01b03600854169051908152f35b50829034610eee5780600319360112610eee5761062661125e565b92602490813563ffffffff808216809203610eee576001600160a01b03918551606081019067ffffffffffffffff9181811083821117610edc57878a929b88928b5260028d52878b60209e8f96818880930193803686378b61068783611317565b52886106928361133a565b52519889977f883bdbfd0000000000000000000000000000000000000000000000000000000089528801928801525180915260448601929187905b828210610eb65750505050908380920392165afa918215610eac578692610da6575b50506107046106fd8261133a565b5191611317565b5160060b9060060b03667fffffffffffff1991667fffffffffffff821383831217610d825760030b9060060b8115610d945760001992811482841416610d82570560020b9084821215610d7c577f80000000000000000000000000000000000000000000000000000000000000008214610d6a57818503915b620d89e88311610d0f5785906001841615610ce65770ffffffffffffffffffffffffffffffffff6ffffcb933bd6fad37aa2d162d1a5940015b169360028116610cb4575b8a8116610c82575b60088116610c50575b60108116610c1e575b8b8116610bec575b898116610bba575b608090818116610b87575b6101008116610b54575b6102008116610b21575b6104008116610aee575b6108008116610abb575b6110008116610a88575b6120008116610a55575b6140008116610a22575b61800081166109ef575b6201000081166109bc575b62020000811661098a575b620400008116610947575b620800001661090b575b50136108ec575b5080881c91166108e35760ff835b1681018091116108d15761089a911661135e565b93670de0b6b3a7640000948581029581870414901517156108c157505050519060c01c8152f35b601190634e487b7160e01b835252fd5b5050601184634e487b7160e01b835252fd5b60ff6001610886565b81156108f9570488610878565b858560128a634e487b7160e01b835252fd5b90936b048a170391f7dc42444e8fa280820293508115918404141715610935571c9185908b610871565b878760118c634e487b7160e01b835252fd5b94909192506d2216e584f5fa1ea926041bedfe989081810291818304149015171561097857811c9387929190610867565b888860118d634e487b7160e01b835252fd5b94909192506e5d6af8dedb81196699c329225ee604908181029181830414901517156109785790879291811c9461085c565b94909192506f09aa508b5b7a84e1c677de54f3e99bc9908181029181830414901517156109785790879291811c94610851565b94909192506f31be135f97d08fd981231505542fcfa6908181029181830414901517156109785790879291811c94610846565b94909192506f70d869a156d2a1b890bb3df62baf32f7908181029181830414901517156109785790879291811c9461083c565b94909192506fa9f746462d870fdf8a65dc1f90e061e5908181029181830414901517156109785790879291811c94610832565b94909192506fd097f3bdfd2022b8845ad8f792aa5825908181029181830414901517156109785790879291811c94610828565b94909192506fe7159475a2c29b7443b29c7fa6e889d9908181029181830414901517156109785790879291811c9461081e565b94909192506ff3392b0822b70005940c7a398e4b70f3908181029181830414901517156109785790879291811c94610814565b94909192506ff987a7253ac413176f2b074cf7815e54908181029181830414901517156109785790879291811c9461080a565b94909192506ffcbe86c7900a88aedcffc83b479aa3a4908181029181830414901517156109785790879291811c94610800565b94909192506ffe5dee046a99a2a811c461f1969c3053908181029181830414901517156109785790879291811c946107f6565b939091506fff2ea16466c96a3843ec78b326b52861908181029181830414901517156109355790869160801c936107eb565b939091506fff973b41fa98c081472e6896dfb254c0908181029181830414901517156109355790869160801c936107e3565b939091506fffcb9843d60f6159c9db58835c926644908181029181830414901517156109355790869160801c936107db565b939091506fffe5caca7e10e4e61c3624eaa0941cd0908181029181830414901517156109355790869160801c936107d2565b939091506ffff2e50f5f656932ef12357cf3c7fdcc908181029181830414901517156109355790869160801c936107c9565b939091506ffff97272373d413259a46990580e213a908181029181830414901517156109355790869160801c936107c1565b70ffffffffffffffffffffffffffffffffff7001000000000000000000000000000000006107b6565b6064896001898d8c51937f08c379a00000000000000000000000000000000000000000000000000000000085528401528201527f54000000000000000000000000000000000000000000000000000000000000006044820152fd5b858560118a634e487b7160e01b835252fd5b8161077d565b868660118b634e487b7160e01b835252fd5b868660128b634e487b7160e01b835252fd5b9091503d8087843e610db881846112dd565b82019088838303126102d45782518181116102d85783019282601f850112156102d857835193610de7856112ff565b94610df48c5196876112dd565b8086528d8087019160051b83010191858311610ea8578e01905b828210610e8b575050508b8101519182116102d8570181601f820112156102d4578051908b80610e3d846112ff565b610e498d5191826112dd565b848152019260051b8201019283116102d857908b809201905b838210610e74575050505089806106ef565b828091610e808461134a565b815201910190610e62565b81518060060b8103610ea4578152908e01908e01610e0e565b8b80fd5b8a80fd5b88513d88823e3d90fd5b9296509350939550806001928b875116815201940191019289918f9387958d97956106cd565b878760418c634e487b7160e01b835252fd5b8280fd5b50346103005781600319360112610300576020906001600160a01b03600354169051908152f35b50346103005781600319360112610300576020906001600160a01b03600254169051908152f35b5060a036600319011261030057610f5561125e565b610f5d611279565b90608435946001600160a01b03958681168091036110a357908661102f94939281875194610f8a8661128f565b16845260209889951685850152612710878501526060840152604435608084015260643560a08401528660c0840152815416908686518096819582946304e45aaf60e01b8452830191909160c060e0820193816001600160a01b039182815116855282602082015116602086015262ffffff60408201511660408601528260608201511660608601526080810151608086015260a081015160a0860152015116910152565b03925af1928315610292578093611071575b50507fdb04c7a6d4758fd55d738ebc67e7f3010ac922be00771ef29521a4090d1eb13f838251848152a151908152f35b909192508382813d831161109c575b61108a81836112dd565b81010312610288575051903880611041565b503d611080565b8580fd5b50346103005781600319360112610300576020906001600160a01b03600a54169051908152f35b50346103005781600319360112610300576020906001600160a01b03600c54169051908152f35b50829034610eee576060366003190112610eee5761111161125e565b908361111b611279565b6044356001600160a01b03948582168092036111d75760209386936084938580600254169289519b8c9889977f13ead5620000000000000000000000000000000000000000000000000000000089521690870152166024850152612710604485015260648401525af19283156111e357849361119e575b50602093505191168152f35b9092506020813d6020116111db575b816111ba602093836112dd565b810103126111d7575181811681036111d757602093509184611192565b8380fd5b3d91506111ad565b81513d86823e3d90fd5b50346103005781600319360112610300576001600160a01b0360209254169051908152f35b50346103005781600319360112610300576020906001600160a01b03600b54169051908152f35b8390346103005781600319360112610300576020906001600160a01b03600154168152f35b600435906001600160a01b038216820361127457565b600080fd5b602435906001600160a01b038216820361127457565b60e0810190811067ffffffffffffffff8211176112ab57604052565b634e487b7160e01b600052604160045260246000fd5b60a0810190811067ffffffffffffffff8211176112ab57604052565b90601f8019910116810190811067ffffffffffffffff8211176112ab57604052565b67ffffffffffffffff81116112ab5760051b60200190565b8051156113245760200190565b634e487b7160e01b600052603260045260246000fd5b8051600110156113245760400190565b51906001600160a01b038216820361127457565b80156113fa5780806001146113f3576002146113ed576001908161013382101682600b831016176113e557906002815b8082116113bc575050816000190481116113a6570290565b634e487b7160e01b600052601160045260246000fd5b9092806000190481116113a6578184166113dc575b800292811c9061138e565b809202916113d1565b600291500a90565b50600490565b5050600190565b50600090565b9190826040910312611274576020825192015190565b60809060a462ffffff946040519061142d826112c1565b6001600160a01b0380941682528360208301961686526040820190815260608201906127108252848684016000998a94858352836005541694846040519c8d9b8c9a7fc6a5026a000000000000000000000000000000000000000000000000000000008c52511660048b01525116602489015251604488015251166064860152511660848401525af19182156115185780926114c857505090565b9091506080823d608011611510575b816114e4608093836112dd565b810103126102885760408251926114fd6020820161134a565b50015163ffffffff811603610288575090565b3d91506114d7565b604051903d90823e3d90fdfea2646970667358221220fdff37b798117739c85d36c45a47031baff47bf2f20b173a014e3ad26510845f64736f6c63430008180033","opcodes":"PUSH1 0x80 CALLVALUE PUSH3 0x15E JUMPI PUSH1 0x1F PUSH3 0x16E9 CODESIZE DUP2 SWAP1 SUB SWAP2 DUP3 ADD PUSH1 0x1F NOT AND DUP4 ADD SWAP2 PUSH1 0x1 PUSH1 0x1 PUSH1 0x40 SHL SUB DUP4 GT DUP5 DUP5 LT OR PUSH3 0x163 JUMPI DUP1 DUP5 SWAP3 PUSH2 0x100 SWAP5 PUSH1 0x40 MSTORE DUP4 CODECOPY DUP2 ADD SUB SLT PUSH3 0x15E JUMPI PUSH3 0x4E DUP2 PUSH3 0x179 JUMP JUMPDEST SWAP1 PUSH3 0x5D PUSH1 0x20 DUP3 ADD PUSH3 0x179 JUMP JUMPDEST SWAP2 PUSH3 0x6C PUSH1 0x40 DUP4 ADD PUSH3 0x179 JUMP JUMPDEST PUSH3 0x7A PUSH1 0x60 DUP5 ADD PUSH3 0x179 JUMP JUMPDEST PUSH3 0x88 PUSH1 0x80 DUP6 ADD PUSH3 0x179 JUMP JUMPDEST SWAP2 PUSH3 0x97 PUSH1 0xA0 DUP7 ADD PUSH3 0x179 JUMP JUMPDEST SWAP5 PUSH3 0xB4 PUSH1 0xE0 PUSH3 0xAC PUSH1 0xC0 DUP5 ADD PUSH3 0x179 JUMP JUMPDEST SWAP3 ADD PUSH3 0x179 JUMP JUMPDEST SWAP3 PUSH1 0x1 DUP1 PUSH1 0xA0 SHL SUB NOT SWAP8 DUP9 SWAP4 PUSH2 0xDEAD DUP6 PUSH1 0x1 SLOAD AND OR PUSH1 0x1 SSTORE PUSH1 0x1 DUP1 PUSH1 0xA0 SHL SUB DUP1 SWAP10 DUP2 DUP1 SWAP10 DUP2 SWAP9 DUP3 DUP1 DUP1 SWAP9 AND SWAP9 DUP10 DUP4 PUSH1 0x2 SLOAD AND OR PUSH1 0x2 SSTORE AND SWAP1 PUSH1 0x3 SLOAD AND OR PUSH1 0x3 SSTORE AND DUP13 PUSH1 0x4 SLOAD AND OR PUSH1 0x4 SSTORE AND SWAP3 DUP4 DUP12 PUSH1 0x7 SLOAD AND OR PUSH1 0x7 SSTORE DUP11 PUSH1 0xA SLOAD AND OR PUSH1 0xA SSTORE AND DUP9 PUSH1 0x0 SLOAD AND OR PUSH1 0x0 SSTORE CALLER DUP9 PUSH1 0x8 SLOAD AND OR PUSH1 0x8 SSTORE DUP8 PUSH1 0xB SLOAD AND OR PUSH1 0xB SSTORE AND DUP6 PUSH1 0xC SLOAD AND OR PUSH1 0xC SSTORE AND DUP4 PUSH1 0x5 SLOAD AND OR PUSH1 0x5 SSTORE AND SWAP1 PUSH1 0x9 SLOAD AND OR PUSH1 0x9 SSTORE PUSH1 0x40 MLOAD PUSH2 0x155A SWAP1 DUP2 PUSH3 0x18F DUP3 CODECOPY RETURN JUMPDEST PUSH1 0x0 DUP1 REVERT JUMPDEST PUSH4 0x4E487B71 PUSH1 0xE0 SHL PUSH1 0x0 MSTORE PUSH1 0x41 PUSH1 0x4 MSTORE PUSH1 0x24 PUSH1 0x0 REVERT JUMPDEST MLOAD SWAP1 PUSH1 0x1 PUSH1 0x1 PUSH1 0xA0 SHL SUB DUP3 AND DUP3 SUB PUSH3 0x15E JUMPI JUMP INVALID PUSH1 0x80 PUSH1 0x40 SWAP1 DUP1 DUP3 MSTORE PUSH1 0x4 SWAP2 DUP3 CALLDATASIZE LT ISZERO PUSH2 0x17 JUMPI PUSH1 0x0 DUP1 REVERT JUMPDEST PUSH1 0x0 SWAP2 DUP3 CALLDATALOAD PUSH1 0xE0 SHR SWAP1 DUP2 PUSH4 0x27C8F835 EQ PUSH2 0x1239 JUMPI POP DUP1 PUSH4 0x3675F29B EQ PUSH2 0x1212 JUMPI DUP1 PUSH4 0x3FC8CEF3 EQ PUSH2 0x11ED JUMPI DUP1 PUSH4 0x51246D6E EQ PUSH2 0x10F5 JUMPI DUP1 PUSH4 0x59927044 EQ PUSH2 0x10CE JUMPI DUP1 PUSH4 0x5BF8633A EQ PUSH2 0x10A7 JUMPI DUP1 PUSH4 0x73D84E42 EQ PUSH2 0xF40 JUMPI DUP1 PUSH4 0x791B98BC EQ PUSH2 0xF19 JUMPI DUP1 PUSH4 0x8BDB2AFA EQ PUSH2 0xEF2 JUMPI DUP1 PUSH4 0x8BE32A41 EQ PUSH2 0x60B JUMPI DUP1 PUSH4 0x8DA5CB5B EQ PUSH2 0x5E4 JUMPI DUP1 PUSH4 0x911757BA EQ PUSH2 0x3FF JUMPI DUP1 PUSH4 0x966DAE0E EQ PUSH2 0x3D8 JUMPI DUP1 PUSH4 0xC31C9C07 EQ PUSH2 0x3B1 JUMPI DUP1 PUSH4 0xC6BBD5A7 EQ PUSH2 0x38A JUMPI DUP1 PUSH4 0xD7B96D4E EQ PUSH2 0x363 JUMPI DUP1 PUSH4 0xE6CE06E2 EQ PUSH2 0x32B JUMPI DUP1 PUSH4 0xFD53F53B EQ PUSH2 0x304 JUMPI PUSH4 0xFDE16ED3 EQ PUSH2 0xF6 JUMPI PUSH1 0x0 DUP1 REVERT JUMPDEST DUP1 PUSH1 0x3 NOT CALLDATASIZE ADD SLT PUSH2 0x300 JUMPI DUP3 CALLDATALOAD PUSH2 0x10B PUSH2 0x1279 JUMP JUMPDEST PUSH1 0x1 PUSH1 0x1 PUSH1 0xA0 SHL SUB SWAP2 PUSH2 0x122 DUP2 DUP4 DUP6 DUP9 SLOAD AND PUSH2 0x1416 JUMP JUMPDEST PUSH1 0x5F DUP2 MUL SWAP1 DUP1 DUP3 DIV PUSH1 0x5F EQ SWAP1 ISZERO OR ISZERO PUSH2 0x2ED JUMPI SWAP6 DUP6 SWAP7 DUP5 DUP8 SLOAD AND DUP6 DUP4 SLOAD AND SWAP1 DUP8 MLOAD SWAP2 PUSH32 0x95EA7B300000000000000000000000000000000000000000000000000000000 DUP4 MSTORE DUP5 DUP4 ADD MSTORE DUP5 PUSH1 0x24 DUP4 ADD MSTORE DUP2 PUSH1 0x44 DUP2 PUSH1 0x20 SWAP13 DUP14 SWAP5 GAS CALL DUP1 ISZERO PUSH2 0x2E3 JUMPI SWAP1 DUP10 SWAP6 SWAP5 SWAP4 SWAP3 SWAP2 PUSH2 0x29D JUMPI JUMPDEST POP SWAP5 PUSH1 0x64 PUSH2 0x243 SWAP7 DUP3 DUP1 DUP12 SLOAD AND SWAP7 DUP11 MLOAD SWAP8 PUSH2 0x1A8 DUP10 PUSH2 0x128F JUMP JUMPDEST DUP9 MSTORE AND DUP8 DUP8 ADD MSTORE PUSH2 0x2710 DUP10 DUP8 ADD MSTORE CALLER PUSH1 0x60 DUP8 ADD MSTORE DUP5 PUSH1 0x80 DUP8 ADD MSTORE DIV PUSH1 0xA0 DUP6 ADD MSTORE DUP8 PUSH1 0xC0 DUP6 ADD MSTORE DUP2 SLOAD AND SWAP2 DUP7 MLOAD DUP1 SWAP7 DUP2 SWAP6 DUP3 SWAP5 PUSH4 0x4E45AAF PUSH1 0xE0 SHL DUP5 MSTORE DUP4 ADD SWAP2 SWAP1 SWAP2 PUSH1 0xC0 PUSH1 0xE0 DUP3 ADD SWAP4 DUP2 PUSH1 0x1 PUSH1 0x1 PUSH1 0xA0 SHL SUB SWAP2 DUP3 DUP2 MLOAD AND DUP6 MSTORE DUP3 PUSH1 0x20 DUP3 ADD MLOAD AND PUSH1 0x20 DUP7 ADD MSTORE PUSH3 0xFFFFFF PUSH1 0x40 DUP3 ADD MLOAD AND PUSH1 0x40 DUP7 ADD MSTORE DUP3 PUSH1 0x60 DUP3 ADD MLOAD AND PUSH1 0x60 DUP7 ADD MSTORE PUSH1 0x80 DUP2 ADD MLOAD PUSH1 0x80 DUP7 ADD MSTORE PUSH1 0xA0 DUP2 ADD MLOAD PUSH1 0xA0 DUP7 ADD MSTORE ADD MLOAD AND SWAP2 ADD MSTORE JUMP JUMPDEST SUB SWAP3 GAS CALL SWAP3 DUP4 ISZERO PUSH2 0x292 JUMPI DUP1 SWAP4 PUSH2 0x25D JUMPI JUMPDEST POP POP MLOAD SWAP1 DUP2 MSTORE RETURN JUMPDEST SWAP1 SWAP2 SWAP3 POP DUP4 DUP3 DUP2 RETURNDATASIZE DUP4 GT PUSH2 0x28B JUMPI JUMPDEST PUSH2 0x276 DUP2 DUP4 PUSH2 0x12DD JUMP JUMPDEST DUP2 ADD SUB SLT PUSH2 0x288 JUMPI POP MLOAD SWAP1 CODESIZE DUP1 PUSH2 0x255 JUMP JUMPDEST DUP1 REVERT JUMPDEST POP RETURNDATASIZE PUSH2 0x26C JUMP JUMPDEST DUP3 MLOAD SWAP1 RETURNDATASIZE SWAP1 DUP3 RETURNDATACOPY RETURNDATASIZE SWAP1 REVERT JUMPDEST SWAP1 SWAP2 SWAP4 SWAP6 SWAP3 SWAP5 DUP2 DUP2 RETURNDATASIZE DUP4 GT PUSH2 0x2DC JUMPI JUMPDEST PUSH2 0x2B7 DUP2 DUP4 PUSH2 0x12DD JUMP JUMPDEST DUP2 ADD SUB SLT PUSH2 0x2D8 JUMPI MLOAD DUP1 ISZERO ISZERO SUB PUSH2 0x2D4 JUMPI SWAP2 DUP8 SWAP4 SWAP2 SWAP5 SWAP3 CODESIZE PUSH2 0x18E JUMP JUMPDEST DUP7 DUP1 REVERT JUMPDEST DUP8 DUP1 REVERT JUMPDEST POP RETURNDATASIZE PUSH2 0x2AD JUMP JUMPDEST DUP8 MLOAD RETURNDATASIZE DUP11 DUP3 RETURNDATACOPY RETURNDATASIZE SWAP1 REVERT JUMPDEST PUSH1 0x24 DUP7 PUSH1 0x11 DUP10 PUSH4 0x4E487B71 PUSH1 0xE0 SHL DUP4 MSTORE MSTORE REVERT JUMPDEST POP DUP1 REVERT JUMPDEST POP CALLVALUE PUSH2 0x300 JUMPI DUP2 PUSH1 0x3 NOT CALLDATASIZE ADD SLT PUSH2 0x300 JUMPI PUSH1 0x20 SWAP1 PUSH1 0x1 PUSH1 0x1 PUSH1 0xA0 SHL SUB PUSH1 0x6 SLOAD AND SWAP1 MLOAD SWAP1 DUP2 MSTORE RETURN JUMPDEST POP CALLVALUE PUSH2 0x300 JUMPI PUSH1 0x60 CALLDATASIZE PUSH1 0x3 NOT ADD SLT PUSH2 0x300 JUMPI PUSH1 0x20 SWAP1 PUSH2 0x35C PUSH2 0x34B PUSH2 0x125E JUMP JUMPDEST PUSH2 0x353 PUSH2 0x1279 JUMP JUMPDEST PUSH1 0x44 CALLDATALOAD SWAP2 PUSH2 0x1416 JUMP JUMPDEST SWAP1 MLOAD SWAP1 DUP2 MSTORE RETURN JUMPDEST POP CALLVALUE PUSH2 0x300 JUMPI DUP2 PUSH1 0x3 NOT CALLDATASIZE ADD SLT PUSH2 0x300 JUMPI PUSH1 0x20 SWAP1 PUSH1 0x1 PUSH1 0x1 PUSH1 0xA0 SHL SUB PUSH1 0x7 SLOAD AND SWAP1 MLOAD SWAP1 DUP2 MSTORE RETURN JUMPDEST POP CALLVALUE PUSH2 0x300 JUMPI DUP2 PUSH1 0x3 NOT CALLDATASIZE ADD SLT PUSH2 0x300 JUMPI PUSH1 0x20 SWAP1 PUSH1 0x1 PUSH1 0x1 PUSH1 0xA0 SHL SUB PUSH1 0x5 SLOAD AND SWAP1 MLOAD SWAP1 DUP2 MSTORE RETURN JUMPDEST POP SWAP1 CALLVALUE PUSH2 0x288 JUMPI DUP1 PUSH1 0x3 NOT CALLDATASIZE ADD SLT PUSH2 0x288 JUMPI POP PUSH1 0x1 PUSH1 0x1 PUSH1 0xA0 SHL SUB PUSH1 0x20 SWAP3 SLOAD AND SWAP1 MLOAD SWAP1 DUP2 MSTORE RETURN JUMPDEST POP CALLVALUE PUSH2 0x300 JUMPI DUP2 PUSH1 0x3 NOT CALLDATASIZE ADD SLT PUSH2 0x300 JUMPI PUSH1 0x20 SWAP1 PUSH1 0x1 PUSH1 0x1 PUSH1 0xA0 SHL SUB PUSH1 0x9 SLOAD AND SWAP1 MLOAD SWAP1 DUP2 MSTORE RETURN JUMPDEST POP SWAP2 CALLVALUE PUSH2 0x300 JUMPI DUP3 PUSH1 0x3 NOT CALLDATASIZE ADD SLT PUSH2 0x300 JUMPI DUP1 CALLDATALOAD SWAP1 PUSH1 0x24 CALLDATALOAD SWAP2 PUSH16 0xFFFFFFFFFFFFFFFFFFFFFFFFFFFFFFFF DUP1 DUP5 AND DUP1 SWAP5 SUB PUSH2 0x5E0 JUMPI PUSH1 0x1 PUSH1 0x1 PUSH1 0xA0 SHL SUB SWAP4 DUP7 DUP5 PUSH1 0xA4 DUP8 PUSH1 0x2 SLOAD AND DUP10 DUP5 MLOAD SWAP2 PUSH2 0x452 DUP4 PUSH2 0x12C1 JUMP JUMPDEST DUP9 DUP4 MSTORE PUSH1 0x20 DUP4 ADD SWAP7 DUP8 MSTORE DUP6 DUP4 ADD DUP3 DUP2 MSTORE PUSH1 0x60 DUP5 ADD DUP4 DUP2 MSTORE PUSH1 0x80 DUP6 ADD SWAP2 TIMESTAMP DUP4 MSTORE DUP11 DUP10 MLOAD SWAP11 DUP12 SWAP10 DUP11 SWAP9 PUSH32 0xC49CCBE00000000000000000000000000000000000000000000000000000000 DUP11 MSTORE MLOAD SWAP1 DUP10 ADD MSTORE MLOAD AND PUSH1 0x24 DUP8 ADD MSTORE MLOAD PUSH1 0x44 DUP7 ADD MSTORE MLOAD PUSH1 0x64 DUP6 ADD MSTORE MLOAD PUSH1 0x84 DUP5 ADD MSTORE GAS CALL DUP1 ISZERO PUSH2 0x5D6 JUMPI PUSH2 0x5BA JUMPI JUMPDEST POP DUP4 PUSH1 0x2 SLOAD AND SWAP1 DUP7 MLOAD SWAP3 PUSH1 0x80 DUP5 ADD DUP5 DUP2 LT PUSH8 0xFFFFFFFFFFFFFFFF DUP3 GT OR PUSH2 0x5A7 JUMPI SWAP3 DUP9 SWAP6 SWAP5 SWAP3 DUP9 SWAP3 PUSH1 0x84 SWAP6 DUP9 MSTORE DUP5 MSTORE PUSH1 0x20 DUP5 ADD SWAP8 CALLER DUP10 MSTORE DUP2 DUP9 DUP7 ADD DUP2 DUP2 MSTORE PUSH1 0x60 DUP8 ADD SWAP3 DUP3 DUP5 MSTORE DUP11 MLOAD SWAP12 DUP13 SWAP11 DUP12 SWAP10 PUSH32 0xFC6F786500000000000000000000000000000000000000000000000000000000 DUP12 MSTORE MLOAD SWAP1 DUP11 ADD MSTORE MLOAD AND PUSH1 0x24 DUP9 ADD MSTORE MLOAD AND PUSH1 0x44 DUP7 ADD MSTORE MLOAD AND PUSH1 0x64 DUP5 ADD MSTORE GAS CALL SWAP1 DUP2 ISZERO PUSH2 0x59D JUMPI DUP3 SWAP2 PUSH2 0x56E JUMPI JUMPDEST POP DUP3 MLOAD SWAP2 DUP3 MSTORE PUSH1 0x20 DUP3 ADD MSTORE RETURN JUMPDEST SWAP1 POP PUSH2 0x590 SWAP2 POP DUP3 RETURNDATASIZE DUP5 GT PUSH2 0x596 JUMPI JUMPDEST PUSH2 0x588 DUP2 DUP4 PUSH2 0x12DD JUMP JUMPDEST DUP2 ADD SWAP1 PUSH2 0x1400 JUMP JUMPDEST CODESIZE PUSH2 0x561 JUMP JUMPDEST POP RETURNDATASIZE PUSH2 0x57E JUMP JUMPDEST DUP4 MLOAD RETURNDATASIZE DUP5 DUP3 RETURNDATACOPY RETURNDATASIZE SWAP1 REVERT JUMPDEST PUSH1 0x24 DUP9 PUSH1 0x41 DUP9 PUSH4 0x4E487B71 PUSH1 0xE0 SHL DUP4 MSTORE MSTORE REVERT JUMPDEST PUSH2 0x5D0 SWAP1 DUP8 RETURNDATASIZE DUP10 GT PUSH2 0x596 JUMPI PUSH2 0x588 DUP2 DUP4 PUSH2 0x12DD JUMP JUMPDEST POP PUSH2 0x4C7 JUMP JUMPDEST DUP8 MLOAD RETURNDATASIZE DUP9 DUP3 RETURNDATACOPY RETURNDATASIZE SWAP1 REVERT JUMPDEST DUP5 DUP1 REVERT JUMPDEST POP CALLVALUE PUSH2 0x300 JUMPI DUP2 PUSH1 0x3 NOT CALLDATASIZE ADD SLT PUSH2 0x300 JUMPI PUSH1 0x20 SWAP1 PUSH1 0x1 PUSH1 0x1 PUSH1 0xA0 SHL SUB PUSH1 0x8 SLOAD AND SWAP1 MLOAD SWAP1 DUP2 MSTORE RETURN JUMPDEST POP DUP3 SWAP1 CALLVALUE PUSH2 0xEEE JUMPI DUP1 PUSH1 0x3 NOT CALLDATASIZE ADD SLT PUSH2 0xEEE JUMPI PUSH2 0x626 PUSH2 0x125E JUMP JUMPDEST SWAP3 PUSH1 0x24 SWAP1 DUP2 CALLDATALOAD PUSH4 0xFFFFFFFF DUP1 DUP3 AND DUP1 SWAP3 SUB PUSH2 0xEEE JUMPI PUSH1 0x1 PUSH1 0x1 PUSH1 0xA0 SHL SUB SWAP2 DUP6 MLOAD PUSH1 0x60 DUP2 ADD SWAP1 PUSH8 0xFFFFFFFFFFFFFFFF SWAP2 DUP2 DUP2 LT DUP4 DUP3 GT OR PUSH2 0xEDC JUMPI DUP8 DUP11 SWAP3 SWAP12 DUP9 SWAP3 DUP12 MSTORE PUSH1 0x2 DUP14 MSTORE DUP8 DUP12 PUSH1 0x20 SWAP15 DUP16 SWAP7 DUP2 DUP9 DUP1 SWAP4 ADD SWAP4 DUP1 CALLDATASIZE DUP7 CALLDATACOPY DUP12 PUSH2 0x687 DUP4 PUSH2 0x1317 JUMP JUMPDEST MSTORE DUP9 PUSH2 0x692 DUP4 PUSH2 0x133A JUMP JUMPDEST MSTORE MLOAD SWAP9 DUP10 SWAP8 PUSH32 0x883BDBFD00000000000000000000000000000000000000000000000000000000 DUP10 MSTORE DUP9 ADD SWAP3 DUP9 ADD MSTORE MLOAD DUP1 SWAP2 MSTORE PUSH1 0x44 DUP7 ADD SWAP3 SWAP2 DUP8 SWAP1 JUMPDEST DUP3 DUP3 LT PUSH2 0xEB6 JUMPI POP POP POP POP SWAP1 DUP4 DUP1 SWAP3 SUB SWAP3 AND GAS STATICCALL SWAP2 DUP3 ISZERO PUSH2 0xEAC JUMPI DUP7 SWAP3 PUSH2 0xDA6 JUMPI JUMPDEST POP POP PUSH2 0x704 PUSH2 0x6FD DUP3 PUSH2 0x133A JUMP JUMPDEST MLOAD SWAP2 PUSH2 0x1317 JUMP JUMPDEST MLOAD PUSH1 0x6 SIGNEXTEND SWAP1 PUSH1 0x6 SIGNEXTEND SUB PUSH7 0x7FFFFFFFFFFFFF NOT SWAP2 PUSH7 0x7FFFFFFFFFFFFF DUP3 SGT DUP4 DUP4 SLT OR PUSH2 0xD82 JUMPI PUSH1 0x3 SIGNEXTEND SWAP1 PUSH1 0x6 SIGNEXTEND DUP2 ISZERO PUSH2 0xD94 JUMPI PUSH1 0x0 NOT SWAP3 DUP2 EQ DUP3 DUP5 EQ AND PUSH2 0xD82 JUMPI SDIV PUSH1 0x2 SIGNEXTEND SWAP1 DUP5 DUP3 SLT ISZERO PUSH2 0xD7C JUMPI PUSH32 0x8000000000000000000000000000000000000000000000000000000000000000 DUP3 EQ PUSH2 0xD6A JUMPI DUP2 DUP6 SUB SWAP2 JUMPDEST PUSH3 0xD89E8 DUP4 GT PUSH2 0xD0F JUMPI DUP6 SWAP1 PUSH1 0x1 DUP5 AND ISZERO PUSH2 0xCE6 JUMPI PUSH17 0xFFFFFFFFFFFFFFFFFFFFFFFFFFFFFFFFFF PUSH16 0xFFFCB933BD6FAD37AA2D162D1A594001 JUMPDEST AND SWAP4 PUSH1 0x2 DUP2 AND PUSH2 0xCB4 JUMPI JUMPDEST DUP11 DUP2 AND PUSH2 0xC82 JUMPI JUMPDEST PUSH1 0x8 DUP2 AND PUSH2 0xC50 JUMPI JUMPDEST PUSH1 0x10 DUP2 AND PUSH2 0xC1E JUMPI JUMPDEST DUP12 DUP2 AND PUSH2 0xBEC JUMPI JUMPDEST DUP10 DUP2 AND PUSH2 0xBBA JUMPI JUMPDEST PUSH1 0x80 SWAP1 DUP2 DUP2 AND PUSH2 0xB87 JUMPI JUMPDEST PUSH2 0x100 DUP2 AND PUSH2 0xB54 JUMPI JUMPDEST PUSH2 0x200 DUP2 AND PUSH2 0xB21 JUMPI JUMPDEST PUSH2 0x400 DUP2 AND PUSH2 0xAEE JUMPI JUMPDEST PUSH2 0x800 DUP2 AND PUSH2 0xABB JUMPI JUMPDEST PUSH2 0x1000 DUP2 AND PUSH2 0xA88 JUMPI JUMPDEST PUSH2 0x2000 DUP2 AND PUSH2 0xA55 JUMPI JUMPDEST PUSH2 0x4000 DUP2 AND PUSH2 0xA22 JUMPI JUMPDEST PUSH2 0x8000 DUP2 AND PUSH2 0x9EF JUMPI JUMPDEST PUSH3 0x10000 DUP2 AND PUSH2 0x9BC JUMPI JUMPDEST PUSH3 0x20000 DUP2 AND PUSH2 0x98A JUMPI JUMPDEST PUSH3 0x40000 DUP2 AND PUSH2 0x947 JUMPI JUMPDEST PUSH3 0x80000 AND PUSH2 0x90B JUMPI JUMPDEST POP SGT PUSH2 0x8EC JUMPI JUMPDEST POP DUP1 DUP9 SHR SWAP2 AND PUSH2 0x8E3 JUMPI PUSH1 0xFF DUP4 JUMPDEST AND DUP2 ADD DUP1 SWAP2 GT PUSH2 0x8D1 JUMPI PUSH2 0x89A SWAP2 AND PUSH2 0x135E JUMP JUMPDEST SWAP4 PUSH8 0xDE0B6B3A7640000 SWAP5 DUP6 DUP2 MUL SWAP6 DUP2 DUP8 DIV EQ SWAP1 ISZERO OR ISZERO PUSH2 0x8C1 JUMPI POP POP POP MLOAD SWAP1 PUSH1 0xC0 SHR DUP2 MSTORE RETURN JUMPDEST PUSH1 0x11 SWAP1 PUSH4 0x4E487B71 PUSH1 0xE0 SHL DUP4 MSTORE MSTORE REVERT JUMPDEST POP POP PUSH1 0x11 DUP5 PUSH4 0x4E487B71 PUSH1 0xE0 SHL DUP4 MSTORE MSTORE REVERT JUMPDEST PUSH1 0xFF PUSH1 0x1 PUSH2 0x886 JUMP JUMPDEST DUP2 ISZERO PUSH2 0x8F9 JUMPI DIV DUP9 PUSH2 0x878 JUMP JUMPDEST DUP6 DUP6 PUSH1 0x12 DUP11 PUSH4 0x4E487B71 PUSH1 0xE0 SHL DUP4 MSTORE MSTORE REVERT JUMPDEST SWAP1 SWAP4 PUSH12 0x48A170391F7DC42444E8FA2 DUP1 DUP3 MUL SWAP4 POP DUP2 ISZERO SWAP2 DUP5 DIV EQ OR ISZERO PUSH2 0x935 JUMPI SHR SWAP2 DUP6 SWAP1 DUP12 PUSH2 0x871 JUMP JUMPDEST DUP8 DUP8 PUSH1 0x11 DUP13 PUSH4 0x4E487B71 PUSH1 0xE0 SHL DUP4 MSTORE MSTORE REVERT JUMPDEST SWAP5 SWAP1 SWAP2 SWAP3 POP PUSH14 0x2216E584F5FA1EA926041BEDFE98 SWAP1 DUP2 DUP2 MUL SWAP2 DUP2 DUP4 DIV EQ SWAP1 ISZERO OR ISZERO PUSH2 0x978 JUMPI DUP2 SHR SWAP4 DUP8 SWAP3 SWAP2 SWAP1 PUSH2 0x867 JUMP JUMPDEST DUP9 DUP9 PUSH1 0x11 DUP14 PUSH4 0x4E487B71 PUSH1 0xE0 SHL DUP4 MSTORE MSTORE REVERT JUMPDEST SWAP5 SWAP1 SWAP2 SWAP3 POP PUSH15 0x5D6AF8DEDB81196699C329225EE604 SWAP1 DUP2 DUP2 MUL SWAP2 DUP2 DUP4 DIV EQ SWAP1 ISZERO OR ISZERO PUSH2 0x978 JUMPI SWAP1 DUP8 SWAP3 SWAP2 DUP2 SHR SWAP5 PUSH2 0x85C JUMP JUMPDEST SWAP5 SWAP1 SWAP2 SWAP3 POP PUSH16 0x9AA508B5B7A84E1C677DE54F3E99BC9 SWAP1 DUP2 DUP2 MUL SWAP2 DUP2 DUP4 DIV EQ SWAP1 ISZERO OR ISZERO PUSH2 0x978 JUMPI SWAP1 DUP8 SWAP3 SWAP2 DUP2 SHR SWAP5 PUSH2 0x851 JUMP JUMPDEST SWAP5 SWAP1 SWAP2 SWAP3 POP PUSH16 0x31BE135F97D08FD981231505542FCFA6 SWAP1 DUP2 DUP2 MUL SWAP2 DUP2 DUP4 DIV EQ SWAP1 ISZERO OR ISZERO PUSH2 0x978 JUMPI SWAP1 DUP8 SWAP3 SWAP2 DUP2 SHR SWAP5 PUSH2 0x846 JUMP JUMPDEST SWAP5 SWAP1 SWAP2 SWAP3 POP PUSH16 0x70D869A156D2A1B890BB3DF62BAF32F7 SWAP1 DUP2 DUP2 MUL SWAP2 DUP2 DUP4 DIV EQ SWAP1 ISZERO OR ISZERO PUSH2 0x978 JUMPI SWAP1 DUP8 SWAP3 SWAP2 DUP2 SHR SWAP5 PUSH2 0x83C JUMP JUMPDEST SWAP5 SWAP1 SWAP2 SWAP3 POP PUSH16 0xA9F746462D870FDF8A65DC1F90E061E5 SWAP1 DUP2 DUP2 MUL SWAP2 DUP2 DUP4 DIV EQ SWAP1 ISZERO OR ISZERO PUSH2 0x978 JUMPI SWAP1 DUP8 SWAP3 SWAP2 DUP2 SHR SWAP5 PUSH2 0x832 JUMP JUMPDEST SWAP5 SWAP1 SWAP2 SWAP3 POP PUSH16 0xD097F3BDFD2022B8845AD8F792AA5825 SWAP1 DUP2 DUP2 MUL SWAP2 DUP2 DUP4 DIV EQ SWAP1 ISZERO OR ISZERO PUSH2 0x978 JUMPI SWAP1 DUP8 SWAP3 SWAP2 DUP2 SHR SWAP5 PUSH2 0x828 JUMP JUMPDEST SWAP5 SWAP1 SWAP2 SWAP3 POP PUSH16 0xE7159475A2C29B7443B29C7FA6E889D9 SWAP1 DUP2 DUP2 MUL SWAP2 DUP2 DUP4 DIV EQ SWAP1 ISZERO OR ISZERO PUSH2 0x978 JUMPI SWAP1 DUP8 SWAP3 SWAP2 DUP2 SHR SWAP5 PUSH2 0x81E JUMP JUMPDEST SWAP5 SWAP1 SWAP2 SWAP3 POP PUSH16 0xF3392B0822B70005940C7A398E4B70F3 SWAP1 DUP2 DUP2 MUL SWAP2 DUP2 DUP4 DIV EQ SWAP1 ISZERO OR ISZERO PUSH2 0x978 JUMPI SWAP1 DUP8 SWAP3 SWAP2 DUP2 SHR SWAP5 PUSH2 0x814 JUMP JUMPDEST SWAP5 SWAP1 SWAP2 SWAP3 POP PUSH16 0xF987A7253AC413176F2B074CF7815E54 SWAP1 DUP2 DUP2 MUL SWAP2 DUP2 DUP4 DIV EQ SWAP1 ISZERO OR ISZERO PUSH2 0x978 JUMPI SWAP1 DUP8 SWAP3 SWAP2 DUP2 SHR SWAP5 PUSH2 0x80A JUMP JUMPDEST SWAP5 SWAP1 SWAP2 SWAP3 POP PUSH16 0xFCBE86C7900A88AEDCFFC83B479AA3A4 SWAP1 DUP2 DUP2 MUL SWAP2 DUP2 DUP4 DIV EQ SWAP1 ISZERO OR ISZERO PUSH2 0x978 JUMPI SWAP1 DUP8 SWAP3 SWAP2 DUP2 SHR SWAP5 PUSH2 0x800 JUMP JUMPDEST SWAP5 SWAP1 SWAP2 SWAP3 POP PUSH16 0xFE5DEE046A99A2A811C461F1969C3053 SWAP1 DUP2 DUP2 MUL SWAP2 DUP2 DUP4 DIV EQ SWAP1 ISZERO OR ISZERO PUSH2 0x978 JUMPI SWAP1 DUP8 SWAP3 SWAP2 DUP2 SHR SWAP5 PUSH2 0x7F6 JUMP JUMPDEST SWAP4 SWAP1 SWAP2 POP PUSH16 0xFF2EA16466C96A3843EC78B326B52861 SWAP1 DUP2 DUP2 MUL SWAP2 DUP2 DUP4 DIV EQ SWAP1 ISZERO OR ISZERO PUSH2 0x935 JUMPI SWAP1 DUP7 SWAP2 PUSH1 0x80 SHR SWAP4 PUSH2 0x7EB JUMP JUMPDEST SWAP4 SWAP1 SWAP2 POP PUSH16 0xFF973B41FA98C081472E6896DFB254C0 SWAP1 DUP2 DUP2 MUL SWAP2 DUP2 DUP4 DIV EQ SWAP1 ISZERO OR ISZERO PUSH2 0x935 JUMPI SWAP1 DUP7 SWAP2 PUSH1 0x80 SHR SWAP4 PUSH2 0x7E3 JUMP JUMPDEST SWAP4 SWAP1 SWAP2 POP PUSH16 0xFFCB9843D60F6159C9DB58835C926644 SWAP1 DUP2 DUP2 MUL SWAP2 DUP2 DUP4 DIV EQ SWAP1 ISZERO OR ISZERO PUSH2 0x935 JUMPI SWAP1 DUP7 SWAP2 PUSH1 0x80 SHR SWAP4 PUSH2 0x7DB JUMP JUMPDEST SWAP4 SWAP1 SWAP2 POP PUSH16 0xFFE5CACA7E10E4E61C3624EAA0941CD0 SWAP1 DUP2 DUP2 MUL SWAP2 DUP2 DUP4 DIV EQ SWAP1 ISZERO OR ISZERO PUSH2 0x935 JUMPI SWAP1 DUP7 SWAP2 PUSH1 0x80 SHR SWAP4 PUSH2 0x7D2 JUMP JUMPDEST SWAP4 SWAP1 SWAP2 POP PUSH16 0xFFF2E50F5F656932EF12357CF3C7FDCC SWAP1 DUP2 DUP2 MUL SWAP2 DUP2 DUP4 DIV EQ SWAP1 ISZERO OR ISZERO PUSH2 0x935 JUMPI SWAP1 DUP7 SWAP2 PUSH1 0x80 SHR SWAP4 PUSH2 0x7C9 JUMP JUMPDEST SWAP4 SWAP1 SWAP2 POP PUSH16 0xFFF97272373D413259A46990580E213A SWAP1 DUP2 DUP2 MUL SWAP2 DUP2 DUP4 DIV EQ SWAP1 ISZERO OR ISZERO PUSH2 0x935 JUMPI SWAP1 DUP7 SWAP2 PUSH1 0x80 SHR SWAP4 PUSH2 0x7C1 JUMP JUMPDEST PUSH17 0xFFFFFFFFFFFFFFFFFFFFFFFFFFFFFFFFFF PUSH17 0x100000000000000000000000000000000 PUSH2 0x7B6 JUMP JUMPDEST PUSH1 0x64 DUP10 PUSH1 0x1 DUP10 DUP14 DUP13 MLOAD SWAP4 PUSH32 0x8C379A000000000000000000000000000000000000000000000000000000000 DUP6 MSTORE DUP5 ADD MSTORE DUP3 ADD MSTORE PUSH32 0x5400000000000000000000000000000000000000000000000000000000000000 PUSH1 0x44 DUP3 ADD MSTORE REVERT JUMPDEST DUP6 DUP6 PUSH1 0x11 DUP11 PUSH4 0x4E487B71 PUSH1 0xE0 SHL DUP4 MSTORE MSTORE REVERT JUMPDEST DUP2 PUSH2 0x77D JUMP JUMPDEST DUP7 DUP7 PUSH1 0x11 DUP12 PUSH4 0x4E487B71 PUSH1 0xE0 SHL DUP4 MSTORE MSTORE REVERT JUMPDEST DUP7 DUP7 PUSH1 0x12 DUP12 PUSH4 0x4E487B71 PUSH1 0xE0 SHL DUP4 MSTORE MSTORE REVERT JUMPDEST SWAP1 SWAP2 POP RETURNDATASIZE DUP1 DUP8 DUP5 RETURNDATACOPY PUSH2 0xDB8 DUP2 DUP5 PUSH2 0x12DD JUMP JUMPDEST DUP3 ADD SWAP1 DUP9 DUP4 DUP4 SUB SLT PUSH2 0x2D4 JUMPI DUP3 MLOAD DUP2 DUP2 GT PUSH2 0x2D8 JUMPI DUP4 ADD SWAP3 DUP3 PUSH1 0x1F DUP6 ADD SLT ISZERO PUSH2 0x2D8 JUMPI DUP4 MLOAD SWAP4 PUSH2 0xDE7 DUP6 PUSH2 0x12FF JUMP JUMPDEST SWAP5 PUSH2 0xDF4 DUP13 MLOAD SWAP7 DUP8 PUSH2 0x12DD JUMP JUMPDEST DUP1 DUP7 MSTORE DUP14 DUP1 DUP8 ADD SWAP2 PUSH1 0x5 SHL DUP4 ADD ADD SWAP2 DUP6 DUP4 GT PUSH2 0xEA8 JUMPI DUP15 ADD SWAP1 JUMPDEST DUP3 DUP3 LT PUSH2 0xE8B JUMPI POP POP POP DUP12 DUP2 ADD MLOAD SWAP2 DUP3 GT PUSH2 0x2D8 JUMPI ADD DUP2 PUSH1 0x1F DUP3 ADD SLT ISZERO PUSH2 0x2D4 JUMPI DUP1 MLOAD SWAP1 DUP12 DUP1 PUSH2 0xE3D DUP5 PUSH2 0x12FF JUMP JUMPDEST PUSH2 0xE49 DUP14 MLOAD SWAP2 DUP3 PUSH2 0x12DD JUMP JUMPDEST DUP5 DUP2 MSTORE ADD SWAP3 PUSH1 0x5 SHL DUP3 ADD ADD SWAP3 DUP4 GT PUSH2 0x2D8 JUMPI SWAP1 DUP12 DUP1 SWAP3 ADD SWAP1 JUMPDEST DUP4 DUP3 LT PUSH2 0xE74 JUMPI POP POP POP POP DUP10 DUP1 PUSH2 0x6EF JUMP JUMPDEST DUP3 DUP1 SWAP2 PUSH2 0xE80 DUP5 PUSH2 0x134A JUMP JUMPDEST DUP2 MSTORE ADD SWAP2 ADD SWAP1 PUSH2 0xE62 JUMP JUMPDEST DUP2 MLOAD DUP1 PUSH1 0x6 SIGNEXTEND DUP2 SUB PUSH2 0xEA4 JUMPI DUP2 MSTORE SWAP1 DUP15 ADD SWAP1 DUP15 ADD PUSH2 0xE0E JUMP JUMPDEST DUP12 DUP1 REVERT JUMPDEST DUP11 DUP1 REVERT JUMPDEST DUP9 MLOAD RETURNDATASIZE DUP9 DUP3 RETURNDATACOPY RETURNDATASIZE SWAP1 REVERT JUMPDEST SWAP3 SWAP7 POP SWAP4 POP SWAP4 SWAP6 POP DUP1 PUSH1 0x1 SWAP3 DUP12 DUP8 MLOAD AND DUP2 MSTORE ADD SWAP5 ADD SWAP2 ADD SWAP3 DUP10 SWAP2 DUP16 SWAP4 DUP8 SWAP6 DUP14 SWAP8 SWAP6 PUSH2 0x6CD JUMP JUMPDEST DUP8 DUP8 PUSH1 0x41 DUP13 PUSH4 0x4E487B71 PUSH1 0xE0 SHL DUP4 MSTORE MSTORE REVERT JUMPDEST DUP3 DUP1 REVERT JUMPDEST POP CALLVALUE PUSH2 0x300 JUMPI DUP2 PUSH1 0x3 NOT CALLDATASIZE ADD SLT PUSH2 0x300 JUMPI PUSH1 0x20 SWAP1 PUSH1 0x1 PUSH1 0x1 PUSH1 0xA0 SHL SUB PUSH1 0x3 SLOAD AND SWAP1 MLOAD SWAP1 DUP2 MSTORE RETURN JUMPDEST POP CALLVALUE PUSH2 0x300 JUMPI DUP2 PUSH1 0x3 NOT CALLDATASIZE ADD SLT PUSH2 0x300 JUMPI PUSH1 0x20 SWAP1 PUSH1 0x1 PUSH1 0x1 PUSH1 0xA0 SHL SUB PUSH1 0x2 SLOAD AND SWAP1 MLOAD SWAP1 DUP2 MSTORE RETURN JUMPDEST POP PUSH1 0xA0 CALLDATASIZE PUSH1 0x3 NOT ADD SLT PUSH2 0x300 JUMPI PUSH2 0xF55 PUSH2 0x125E JUMP JUMPDEST PUSH2 0xF5D PUSH2 0x1279 JUMP JUMPDEST SWAP1 PUSH1 0x84 CALLDATALOAD SWAP5 PUSH1 0x1 PUSH1 0x1 PUSH1 0xA0 SHL SUB SWAP6 DUP7 DUP2 AND DUP1 SWAP2 SUB PUSH2 0x10A3 JUMPI SWAP1 DUP7 PUSH2 0x102F SWAP5 SWAP4 SWAP3 DUP2 DUP8 MLOAD SWAP5 PUSH2 0xF8A DUP7 PUSH2 0x128F JUMP JUMPDEST AND DUP5 MSTORE PUSH1 0x20 SWAP9 DUP10 SWAP6 AND DUP6 DUP6 ADD MSTORE PUSH2 0x2710 DUP8 DUP6 ADD MSTORE PUSH1 0x60 DUP5 ADD MSTORE PUSH1 0x44 CALLDATALOAD PUSH1 0x80 DUP5 ADD MSTORE PUSH1 0x64 CALLDATALOAD PUSH1 0xA0 DUP5 ADD MSTORE DUP7 PUSH1 0xC0 DUP5 ADD MSTORE DUP2 SLOAD AND SWAP1 DUP7 DUP7 MLOAD DUP1 SWAP7 DUP2 SWAP6 DUP3 SWAP5 PUSH4 0x4E45AAF PUSH1 0xE0 SHL DUP5 MSTORE DUP4 ADD SWAP2 SWAP1 SWAP2 PUSH1 0xC0 PUSH1 0xE0 DUP3 ADD SWAP4 DUP2 PUSH1 0x1 PUSH1 0x1 PUSH1 0xA0 SHL SUB SWAP2 DUP3 DUP2 MLOAD AND DUP6 MSTORE DUP3 PUSH1 0x20 DUP3 ADD MLOAD AND PUSH1 0x20 DUP7 ADD MSTORE PUSH3 0xFFFFFF PUSH1 0x40 DUP3 ADD MLOAD AND PUSH1 0x40 DUP7 ADD MSTORE DUP3 PUSH1 0x60 DUP3 ADD MLOAD AND PUSH1 0x60 DUP7 ADD MSTORE PUSH1 0x80 DUP2 ADD MLOAD PUSH1 0x80 DUP7 ADD MSTORE PUSH1 0xA0 DUP2 ADD MLOAD PUSH1 0xA0 DUP7 ADD MSTORE ADD MLOAD AND SWAP2 ADD MSTORE JUMP JUMPDEST SUB SWAP3 GAS CALL SWAP3 DUP4 ISZERO PUSH2 0x292 JUMPI DUP1 SWAP4 PUSH2 0x1071 JUMPI JUMPDEST POP POP PUSH32 0xDB04C7A6D4758FD55D738EBC67E7F3010AC922BE00771EF29521A4090D1EB13F DUP4 DUP3 MLOAD DUP5 DUP2 MSTORE LOG1 MLOAD SWAP1 DUP2 MSTORE RETURN JUMPDEST SWAP1 SWAP2 SWAP3 POP DUP4 DUP3 DUP2 RETURNDATASIZE DUP4 GT PUSH2 0x109C JUMPI JUMPDEST PUSH2 0x108A DUP2 DUP4 PUSH2 0x12DD JUMP JUMPDEST DUP2 ADD SUB SLT PUSH2 0x288 JUMPI POP MLOAD SWAP1 CODESIZE DUP1 PUSH2 0x1041 JUMP JUMPDEST POP RETURNDATASIZE PUSH2 0x1080 JUMP JUMPDEST DUP6 DUP1 REVERT JUMPDEST POP CALLVALUE PUSH2 0x300 JUMPI DUP2 PUSH1 0x3 NOT CALLDATASIZE ADD SLT PUSH2 0x300 JUMPI PUSH1 0x20 SWAP1 PUSH1 0x1 PUSH1 0x1 PUSH1 0xA0 SHL SUB PUSH1 0xA SLOAD AND SWAP1 MLOAD SWAP1 DUP2 MSTORE RETURN JUMPDEST POP CALLVALUE PUSH2 0x300 JUMPI DUP2 PUSH1 0x3 NOT CALLDATASIZE ADD SLT PUSH2 0x300 JUMPI PUSH1 0x20 SWAP1 PUSH1 0x1 PUSH1 0x1 PUSH1 0xA0 SHL SUB PUSH1 0xC SLOAD AND SWAP1 MLOAD SWAP1 DUP2 MSTORE RETURN JUMPDEST POP DUP3 SWAP1 CALLVALUE PUSH2 0xEEE JUMPI PUSH1 0x60 CALLDATASIZE PUSH1 0x3 NOT ADD SLT PUSH2 0xEEE JUMPI PUSH2 0x1111 PUSH2 0x125E JUMP JUMPDEST SWAP1 DUP4 PUSH2 0x111B PUSH2 0x1279 JUMP JUMPDEST PUSH1 0x44 CALLDATALOAD PUSH1 0x1 PUSH1 0x1 PUSH1 0xA0 SHL SUB SWAP5 DUP6 DUP3 AND DUP1 SWAP3 SUB PUSH2 0x11D7 JUMPI PUSH1 0x20 SWAP4 DUP7 SWAP4 PUSH1 0x84 SWAP4 DUP6 DUP1 PUSH1 0x2 SLOAD AND SWAP3 DUP10 MLOAD SWAP12 DUP13 SWAP9 DUP10 SWAP8 PUSH32 0x13EAD56200000000000000000000000000000000000000000000000000000000 DUP10 MSTORE AND SWAP1 DUP8 ADD MSTORE AND PUSH1 0x24 DUP6 ADD MSTORE PUSH2 0x2710 PUSH1 0x44 DUP6 ADD MSTORE PUSH1 0x64 DUP5 ADD MSTORE GAS CALL SWAP3 DUP4 ISZERO PUSH2 0x11E3 JUMPI DUP5 SWAP4 PUSH2 0x119E JUMPI JUMPDEST POP PUSH1 0x20 SWAP4 POP MLOAD SWAP2 AND DUP2 MSTORE RETURN JUMPDEST SWAP1 SWAP3 POP PUSH1 0x20 DUP2 RETURNDATASIZE PUSH1 0x20 GT PUSH2 0x11DB JUMPI JUMPDEST DUP2 PUSH2 0x11BA PUSH1 0x20 SWAP4 DUP4 PUSH2 0x12DD JUMP JUMPDEST DUP2 ADD SUB SLT PUSH2 0x11D7 JUMPI MLOAD DUP2 DUP2 AND DUP2 SUB PUSH2 0x11D7 JUMPI PUSH1 0x20 SWAP4 POP SWAP2 DUP5 PUSH2 0x1192 JUMP JUMPDEST DUP4 DUP1 REVERT JUMPDEST RETURNDATASIZE SWAP2 POP PUSH2 0x11AD JUMP JUMPDEST DUP2 MLOAD RETURNDATASIZE DUP7 DUP3 RETURNDATACOPY RETURNDATASIZE SWAP1 REVERT JUMPDEST POP CALLVALUE PUSH2 0x300 JUMPI DUP2 PUSH1 0x3 NOT CALLDATASIZE ADD SLT PUSH2 0x300 JUMPI PUSH1 0x1 PUSH1 0x1 PUSH1 0xA0 SHL SUB PUSH1 0x20 SWAP3 SLOAD AND SWAP1 MLOAD SWAP1 DUP2 MSTORE RETURN JUMPDEST POP CALLVALUE PUSH2 0x300 JUMPI DUP2 PUSH1 0x3 NOT CALLDATASIZE ADD SLT PUSH2 0x300 JUMPI PUSH1 0x20 SWAP1 PUSH1 0x1 PUSH1 0x1 PUSH1 0xA0 SHL SUB PUSH1 0xB SLOAD AND SWAP1 MLOAD SWAP1 DUP2 MSTORE RETURN JUMPDEST DUP4 SWAP1 CALLVALUE PUSH2 0x300 JUMPI DUP2 PUSH1 0x3 NOT CALLDATASIZE ADD SLT PUSH2 0x300 JUMPI PUSH1 0x20 SWAP1 PUSH1 0x1 PUSH1 0x1 PUSH1 0xA0 SHL SUB PUSH1 0x1 SLOAD AND DUP2 MSTORE RETURN JUMPDEST PUSH1 0x4 CALLDATALOAD SWAP1 PUSH1 0x1 PUSH1 0x1 PUSH1 0xA0 SHL SUB DUP3 AND DUP3 SUB PUSH2 0x1274 JUMPI JUMP JUMPDEST PUSH1 0x0 DUP1 REVERT JUMPDEST PUSH1 0x24 CALLDATALOAD SWAP1 PUSH1 0x1 PUSH1 0x1 PUSH1 0xA0 SHL SUB DUP3 AND DUP3 SUB PUSH2 0x1274 JUMPI JUMP JUMPDEST PUSH1 0xE0 DUP2 ADD SWAP1 DUP2 LT PUSH8 0xFFFFFFFFFFFFFFFF DUP3 GT OR PUSH2 0x12AB JUMPI PUSH1 0x40 MSTORE JUMP JUMPDEST PUSH4 0x4E487B71 PUSH1 0xE0 SHL PUSH1 0x0 MSTORE PUSH1 0x41 PUSH1 0x4 MSTORE PUSH1 0x24 PUSH1 0x0 REVERT JUMPDEST PUSH1 0xA0 DUP2 ADD SWAP1 DUP2 LT PUSH8 0xFFFFFFFFFFFFFFFF DUP3 GT OR PUSH2 0x12AB JUMPI PUSH1 0x40 MSTORE JUMP JUMPDEST SWAP1 PUSH1 0x1F DUP1 NOT SWAP2 ADD AND DUP2 ADD SWAP1 DUP2 LT PUSH8 0xFFFFFFFFFFFFFFFF DUP3 GT OR PUSH2 0x12AB JUMPI PUSH1 0x40 MSTORE JUMP JUMPDEST PUSH8 0xFFFFFFFFFFFFFFFF DUP2 GT PUSH2 0x12AB JUMPI PUSH1 0x5 SHL PUSH1 0x20 ADD SWAP1 JUMP JUMPDEST DUP1 MLOAD ISZERO PUSH2 0x1324 JUMPI PUSH1 0x20 ADD SWAP1 JUMP JUMPDEST PUSH4 0x4E487B71 PUSH1 0xE0 SHL PUSH1 0x0 MSTORE PUSH1 0x32 PUSH1 0x4 MSTORE PUSH1 0x24 PUSH1 0x0 REVERT JUMPDEST DUP1 MLOAD PUSH1 0x1 LT ISZERO PUSH2 0x1324 JUMPI PUSH1 0x40 ADD SWAP1 JUMP JUMPDEST MLOAD SWAP1 PUSH1 0x1 PUSH1 0x1 PUSH1 0xA0 SHL SUB DUP3 AND DUP3 SUB PUSH2 0x1274 JUMPI JUMP JUMPDEST DUP1 ISZERO PUSH2 0x13FA JUMPI DUP1 DUP1 PUSH1 0x1 EQ PUSH2 0x13F3 JUMPI PUSH1 0x2 EQ PUSH2 0x13ED JUMPI PUSH1 0x1 SWAP1 DUP2 PUSH2 0x133 DUP3 LT AND DUP3 PUSH1 0xB DUP4 LT AND OR PUSH2 0x13E5 JUMPI SWAP1 PUSH1 0x2 DUP2 JUMPDEST DUP1 DUP3 GT PUSH2 0x13BC JUMPI POP POP DUP2 PUSH1 0x0 NOT DIV DUP2 GT PUSH2 0x13A6 JUMPI MUL SWAP1 JUMP JUMPDEST PUSH4 0x4E487B71 PUSH1 0xE0 SHL PUSH1 0x0 MSTORE PUSH1 0x11 PUSH1 0x4 MSTORE PUSH1 0x24 PUSH1 0x0 REVERT JUMPDEST SWAP1 SWAP3 DUP1 PUSH1 0x0 NOT DIV DUP2 GT PUSH2 0x13A6 JUMPI DUP2 DUP5 AND PUSH2 0x13DC JUMPI JUMPDEST DUP1 MUL SWAP3 DUP2 SHR SWAP1 PUSH2 0x138E JUMP JUMPDEST DUP1 SWAP3 MUL SWAP2 PUSH2 0x13D1 JUMP JUMPDEST PUSH1 0x2 SWAP2 POP EXP SWAP1 JUMP JUMPDEST POP PUSH1 0x4 SWAP1 JUMP JUMPDEST POP POP PUSH1 0x1 SWAP1 JUMP JUMPDEST POP PUSH1 0x0 SWAP1 JUMP JUMPDEST SWAP2 SWAP1 DUP3 PUSH1 0x40 SWAP2 SUB SLT PUSH2 0x1274 JUMPI PUSH1 0x20 DUP3 MLOAD SWAP3 ADD MLOAD SWAP1 JUMP JUMPDEST PUSH1 0x80 SWAP1 PUSH1 0xA4 PUSH3 0xFFFFFF SWAP5 PUSH1 0x40 MLOAD SWAP1 PUSH2 0x142D DUP3 PUSH2 0x12C1 JUMP JUMPDEST PUSH1 0x1 PUSH1 0x1 PUSH1 0xA0 SHL SUB DUP1 SWAP5 AND DUP3 MSTORE DUP4 PUSH1 0x20 DUP4 ADD SWAP7 AND DUP7 MSTORE PUSH1 0x40 DUP3 ADD SWAP1 DUP2 MSTORE PUSH1 0x60 DUP3 ADD SWAP1 PUSH2 0x2710 DUP3 MSTORE DUP5 DUP7 DUP5 ADD PUSH1 0x0 SWAP10 DUP11 SWAP5 DUP6 DUP4 MSTORE DUP4 PUSH1 0x5 SLOAD AND SWAP5 DUP5 PUSH1 0x40 MLOAD SWAP13 DUP14 SWAP12 DUP13 SWAP11 PUSH32 0xC6A5026A00000000000000000000000000000000000000000000000000000000 DUP13 MSTORE MLOAD AND PUSH1 0x4 DUP12 ADD MSTORE MLOAD AND PUSH1 0x24 DUP10 ADD MSTORE MLOAD PUSH1 0x44 DUP9 ADD MSTORE MLOAD AND PUSH1 0x64 DUP7 ADD MSTORE MLOAD AND PUSH1 0x84 DUP5 ADD MSTORE GAS CALL SWAP2 DUP3 ISZERO PUSH2 0x1518 JUMPI DUP1 SWAP3 PUSH2 0x14C8 JUMPI POP POP SWAP1 JUMP JUMPDEST SWAP1 SWAP2 POP PUSH1 0x80 DUP3 RETURNDATASIZE PUSH1 0x80 GT PUSH2 0x1510 JUMPI JUMPDEST DUP2 PUSH2 0x14E4 PUSH1 0x80 SWAP4 DUP4 PUSH2 0x12DD JUMP JUMPDEST DUP2 ADD SUB SLT PUSH2 0x288 JUMPI PUSH1 0x40 DUP3 MLOAD SWAP3 PUSH2 0x14FD PUSH1 0x20 DUP3 ADD PUSH2 0x134A JUMP JUMPDEST POP ADD MLOAD PUSH4 0xFFFFFFFF DUP2 AND SUB PUSH2 0x288 JUMPI POP SWAP1 JUMP JUMPDEST RETURNDATASIZE SWAP2 POP PUSH2 0x14D7 JUMP JUMPDEST PUSH1 0x40 MLOAD SWAP1 RETURNDATASIZE SWAP1 DUP3 RETURNDATACOPY RETURNDATASIZE SWAP1 REVERT INVALID LOG2 PUSH5 0x6970667358 0x22 SLT KECCAK256 REVERT SELFDESTRUCT CALLDATACOPY 0xB7 SWAP9 GT PUSH24 0x39C85D36C45A47031BAFF47BF2F20B173A014E3AD2651084 PUSH0 PUSH5 0x736F6C6343 STOP ADDMOD XOR STOP CALLER "},"methodIdentifiers":{"createAndInitializePoolIfNecessary(address,address,uint160)":"51246d6e","deadAddress()":"27c8f835","executeSwap(address,address,uint256,uint256,address)":"73d84e42","factoryAddress()":"966dae0e","factoryHelper()":"fd53f53b","getEstimatedAmountOut(address,address,uint256)":"e6ce06e2","getTWAPPrice(address,uint32)":"8be32a41","locker()":"d7b96d4e","lockerAddress()":"3675f29b","nftAddress()":"5bf8633a","owner()":"8da5cb5b","positionManager()":"791b98bc","quoter()":"c6bbd5a7","removeLiquidity(uint256,uint128)":"911757ba","swapETHforTokens(uint256,address)":"fde16ed3","swapRouter()":"c31c9c07","teamWallet()":"59927044","uniswapFactory()":"8bdb2afa","weth()":"3fc8cef3"}}}}}