{
  "_format": "hh-sol-artifact-1",
  "contractName": "FactoryHelper",
  "sourceName": "contracts/FactoryExtra.sol",
  "abi": [
    {
      "inputs": [
        {
          "internalType": "address",
          "name": "_factoryAddress",
          "type": "address"
        },
        {
          "internalType": "address",
          "name": "_positionManager",
          "type": "address"
        },
        {
          "internalType": "address",
          "name": "_weth",
          "type": "address"
        },
        {
          "internalType": "address",
          "name": "_uniswapFactory",
          "type": "address"
        },
        {
          "internalType": "address",
          "name": "_swapRouter",
          "type": "address"
        },
        {
          "internalType": "address",
          "name": "_lockerAddress",
          "type": "address"
        },
        {
          "internalType": "address",
          "name": "_teamWallet",
          "type": "address"
        },
        {
          "internalType": "address",
          "name": "_quoterAddress",
          "type": "address"
        }
      ],
      "stateMutability": "nonpayable",
      "type": "constructor"
    },
    {
      "anonymous": false,
      "inputs": [
        {
          "indexed": true,
          "internalType": "address",
          "name": "token",
          "type": "address"
        },
        {
          "indexed": false,
          "internalType": "uint256",
          "name": "tokenId",
          "type": "uint256"
        },
        {
          "indexed": false,
          "internalType": "string",
          "name": "eventType",
          "type": "string"
        },
        {
          "indexed": false,
          "internalType": "uint256",
          "name": "amount0",
          "type": "uint256"
        },
        {
          "indexed": false,
          "internalType": "uint256",
          "name": "amount1",
          "type": "uint256"
        }
      ],
      "name": "LiquidityEvent",
      "type": "event"
    },
    {
      "anonymous": false,
      "inputs": [
        {
          "indexed": false,
          "internalType": "uint256",
          "name": "amountOut",
          "type": "uint256"
        }
      ],
      "name": "TokensSwapped",
      "type": "event"
    },
    {
      "inputs": [
        {
          "internalType": "address",
          "name": "token0",
          "type": "address"
        },
        {
          "internalType": "address",
          "name": "token1",
          "type": "address"
        },
        {
          "internalType": "uint160",
          "name": "sqrtPriceX96",
          "type": "uint160"
        }
      ],
      "name": "createAndInitializePoolIfNecessary",
      "outputs": [
        {
          "internalType": "address",
          "name": "pool",
          "type": "address"
        }
      ],
      "stateMutability": "nonpayable",
      "type": "function"
    },
    {
      "inputs": [],
      "name": "deadAddress",
      "outputs": [
        {
          "internalType": "address",
          "name": "",
          "type": "address"
        }
      ],
      "stateMutability": "view",
      "type": "function"
    },
    {
      "inputs": [
        {
          "internalType": "address",
          "name": "tokenIn",
          "type": "address"
        },
        {
          "internalType": "address",
          "name": "tokenOut",
          "type": "address"
        },
        {
          "internalType": "uint256",
          "name": "amountIn",
          "type": "uint256"
        },
        {
          "internalType": "uint256",
          "name": "amountOutMinimum",
          "type": "uint256"
        },
        {
          "internalType": "address",
          "name": "recipient",
          "type": "address"
        }
      ],
      "name": "executeSwap",
      "outputs": [
        {
          "internalType": "uint256",
          "name": "amountOut",
          "type": "uint256"
        }
      ],
      "stateMutability": "payable",
      "type": "function"
    },
    {
      "inputs": [],
      "name": "factoryAddress",
      "outputs": [
        {
          "internalType": "address",
          "name": "",
          "type": "address"
        }
      ],
      "stateMutability": "view",
      "type": "function"
    },
    {
      "inputs": [],
      "name": "factoryHelper",
      "outputs": [
        {
          "internalType": "contract FactoryHelper",
          "name": "",
          "type": "address"
        }
      ],
      "stateMutability": "view",
      "type": "function"
    },
    {
      "inputs": [
        {
          "internalType": "address",
          "name": "tokenIn",
          "type": "address"
        },
        {
          "internalType": "address",
          "name": "tokenOut",
          "type": "address"
        },
        {
          "internalType": "uint256",
          "name": "amountIn",
          "type": "uint256"
        }
      ],
      "name": "getEstimatedAmountOut",
      "outputs": [
        {
          "internalType": "uint256",
          "name": "amountOut",
          "type": "uint256"
        }
      ],
      "stateMutability": "nonpayable",
      "type": "function"
    },
    {
      "inputs": [
        {
          "internalType": "address",
          "name": "poolAddress",
          "type": "address"
        },
        {
          "internalType": "uint32",
          "name": "twapInterval",
          "type": "uint32"
        }
      ],
      "name": "getTWAPPrice",
      "outputs": [
        {
          "internalType": "uint256",
          "name": "price",
          "type": "uint256"
        }
      ],
      "stateMutability": "view",
      "type": "function"
    },
    {
      "inputs": [],
      "name": "locker",
      "outputs": [
        {
          "internalType": "contract ILiquidityLocker",
          "name": "",
          "type": "address"
        }
      ],
      "stateMutability": "view",
      "type": "function"
    },
    {
      "inputs": [],
      "name": "lockerAddress",
      "outputs": [
        {
          "internalType": "address",
          "name": "",
          "type": "address"
        }
      ],
      "stateMutability": "view",
      "type": "function"
    },
    {
      "inputs": [],
      "name": "nftAddress",
      "outputs": [
        {
          "internalType": "address",
          "name": "",
          "type": "address"
        }
      ],
      "stateMutability": "view",
      "type": "function"
    },
    {
      "inputs": [],
      "name": "owner",
      "outputs": [
        {
          "internalType": "address",
          "name": "",
          "type": "address"
        }
      ],
      "stateMutability": "view",
      "type": "function"
    },
    {
      "inputs": [],
      "name": "positionManager",
      "outputs": [
        {
          "internalType": "contract INonfungiblePositionManager",
          "name": "",
          "type": "address"
        }
      ],
      "stateMutability": "view",
      "type": "function"
    },
    {
      "inputs": [],
      "name": "quoter",
      "outputs": [
        {
          "internalType": "contract IQuoterV2",
          "name": "",
          "type": "address"
        }
      ],
      "stateMutability": "view",
      "type": "function"
    },
    {
      "inputs": [
        {
          "internalType": "uint256",
          "name": "tokenId",
          "type": "uint256"
        },
        {
          "internalType": "uint128",
          "name": "liquidityToRemove",
          "type": "uint128"
        }
      ],
      "name": "removeLiquidity",
      "outputs": [
        {
          "internalType": "uint256",
          "name": "",
          "type": "uint256"
        },
        {
          "internalType": "uint256",
          "name": "",
          "type": "uint256"
        }
      ],
      "stateMutability": "nonpayable",
      "type": "function"
    },
    {
      "inputs": [
        {
          "internalType": "uint256",
          "name": "amountIn",
          "type": "uint256"
        },
        {
          "internalType": "address",
          "name": "tokenAddress",
          "type": "address"
        }
      ],
      "name": "swapETHforTokens",
      "outputs": [
        {
          "internalType": "uint256",
          "name": "amountOut",
          "type": "uint256"
        }
      ],
      "stateMutability": "payable",
      "type": "function"
    },
    {
      "inputs": [],
      "name": "swapRouter",
      "outputs": [
        {
          "internalType": "contract ISwapRouter",
          "name": "",
          "type": "address"
        }
      ],
      "stateMutability": "view",
      "type": "function"
    },
    {
      "inputs": [],
      "name": "teamWallet",
      "outputs": [
        {
          "internalType": "address",
          "name": "",
          "type": "address"
        }
      ],
      "stateMutability": "view",
      "type": "function"
    },
    {
      "inputs": [],
      "name": "uniswapFactory",
      "outputs": [
        {
          "internalType": "contract IUniswapV3Factory",
          "name": "",
          "type": "address"
        }
      ],
      "stateMutability": "view",
      "type": "function"
    },
    {
      "inputs": [],
      "name": "weth",
      "outputs": [
        {
          "internalType": "address",
          "name": "",
          "type": "address"
        }
      ],
      "stateMutability": "view",
      "type": "function"
    }
  ],
  "bytecode": "0x6080346200015e57601f620016e938819003918201601f19168301916001600160401b038311848410176200016357808492610100946040528339810103126200015e576200004e8162000179565b906200005d6020820162000179565b916200006c6040830162000179565b6200007a6060840162000179565b620000886080850162000179565b916200009760a0860162000179565b94620000b460e0620000ac60c0840162000179565b920162000179565b9260018060a01b031997889361dead85600154161760015560018060a01b03809981809981988280809816988983600254161760025516906003541617600355168c60045416176004551692838b60075416176007558a600a541617600a55168860005416176000553388600854161760085587600b541617600b551685600c541617600c55168360055416176005551690600954161760095560405161155a90816200018f8239f35b600080fd5b634e487b7160e01b600052604160045260246000fd5b51906001600160a01b03821682036200015e5756fe60806040908082526004918236101561001757600080fd5b600091823560e01c90816327c8f83514611239575080633675f29b146112125780633fc8cef3146111ed57806351246d6e146110f557806359927044146110ce5780635bf8633a146110a757806373d84e4214610f40578063791b98bc14610f195780638bdb2afa14610ef25780638be32a411461060b5780638da5cb5b146105e4578063911757ba146103ff578063966dae0e146103d8578063c31c9c07146103b1578063c6bbd5a71461038a578063d7b96d4e14610363578063e6ce06e21461032b578063fd53f53b146103045763fde16ed3146100f657600080fd5b8060031936011261030057823561010b611279565b6001600160a01b0391610122818385885416611416565b605f810290808204605f14901517156102ed579585968487541685835416908751917f095ea7b3000000000000000000000000000000000000000000000000000000008352848301528460248301528160448160209c8d945af180156102e3579089959493929161029d575b509460646102439682808b5416968a51976101a88961128f565b88521687870152612710898701523360608701528460808701520460a08501528760c08501528154169186518096819582946304e45aaf60e01b8452830191909160c060e0820193816001600160a01b039182815116855282602082015116602086015262ffffff60408201511660408601528260608201511660608601526080810151608086015260a081015160a0860152015116910152565b03925af192831561029257809361025d575b505051908152f35b909192508382813d831161028b575b61027681836112dd565b81010312610288575051903880610255565b80fd5b503d61026c565b8251903d90823e3d90fd5b90919395929481813d83116102dc575b6102b781836112dd565b810103126102d85751801515036102d4579187939194923861018e565b8680fd5b8780fd5b503d6102ad565b87513d8a823e3d90fd5b602486601189634e487b7160e01b835252fd5b5080fd5b50346103005781600319360112610300576020906001600160a01b03600654169051908152f35b50346103005760603660031901126103005760209061035c61034b61125e565b610353611279565b60443591611416565b9051908152f35b50346103005781600319360112610300576020906001600160a01b03600754169051908152f35b50346103005781600319360112610300576020906001600160a01b03600554169051908152f35b509034610288578060031936011261028857506001600160a01b0360209254169051908152f35b50346103005781600319360112610300576020906001600160a01b03600954169051908152f35b509134610300578260031936011261030057803590602435916fffffffffffffffffffffffffffffffff8084168094036105e0576001600160a01b0393868460a4876002541689845191610452836112c1565b888352602083019687528583018281526060840183815260808501914283528a89519a8b998a987f0c49ccbe000000000000000000000000000000000000000000000000000000008a525190890152511660248701525160448601525160648501525160848401525af180156105d6576105ba575b508360025416908651926080840184811067ffffffffffffffff8211176105a757928895949288926084958852845260208401973389528188860181815260608701928284528a519b8c9a8b997ffc6f7865000000000000000000000000000000000000000000000000000000008b5251908a01525116602488015251166044860152511660648401525af190811561059d57829161056e575b5082519182526020820152f35b90506105909150823d8411610596575b61058881836112dd565b810190611400565b38610561565b503d61057e565b83513d84823e3d90fd5b602488604188634e487b7160e01b835252fd5b6105d090873d89116105965761058881836112dd565b506104c7565b87513d88823e3d90fd5b8480fd5b50346103005781600319360112610300576020906001600160a01b03600854169051908152f35b50829034610eee5780600319360112610eee5761062661125e565b92602490813563ffffffff808216809203610eee576001600160a01b03918551606081019067ffffffffffffffff9181811083821117610edc57878a929b88928b5260028d52878b60209e8f96818880930193803686378b61068783611317565b52886106928361133a565b52519889977f883bdbfd0000000000000000000000000000000000000000000000000000000089528801928801525180915260448601929187905b828210610eb65750505050908380920392165afa918215610eac578692610da6575b50506107046106fd8261133a565b5191611317565b5160060b9060060b03667fffffffffffff1991667fffffffffffff821383831217610d825760030b9060060b8115610d945760001992811482841416610d82570560020b9084821215610d7c577f80000000000000000000000000000000000000000000000000000000000000008214610d6a57818503915b620d89e88311610d0f5785906001841615610ce65770ffffffffffffffffffffffffffffffffff6ffffcb933bd6fad37aa2d162d1a5940015b169360028116610cb4575b8a8116610c82575b60088116610c50575b60108116610c1e575b8b8116610bec575b898116610bba575b608090818116610b87575b6101008116610b54575b6102008116610b21575b6104008116610aee575b6108008116610abb575b6110008116610a88575b6120008116610a55575b6140008116610a22575b61800081166109ef575b6201000081166109bc575b62020000811661098a575b620400008116610947575b620800001661090b575b50136108ec575b5080881c91166108e35760ff835b1681018091116108d15761089a911661135e565b93670de0b6b3a7640000948581029581870414901517156108c157505050519060c01c8152f35b601190634e487b7160e01b835252fd5b5050601184634e487b7160e01b835252fd5b60ff6001610886565b81156108f9570488610878565b858560128a634e487b7160e01b835252fd5b90936b048a170391f7dc42444e8fa280820293508115918404141715610935571c9185908b610871565b878760118c634e487b7160e01b835252fd5b94909192506d2216e584f5fa1ea926041bedfe989081810291818304149015171561097857811c9387929190610867565b888860118d634e487b7160e01b835252fd5b94909192506e5d6af8dedb81196699c329225ee604908181029181830414901517156109785790879291811c9461085c565b94909192506f09aa508b5b7a84e1c677de54f3e99bc9908181029181830414901517156109785790879291811c94610851565b94909192506f31be135f97d08fd981231505542fcfa6908181029181830414901517156109785790879291811c94610846565b94909192506f70d869a156d2a1b890bb3df62baf32f7908181029181830414901517156109785790879291811c9461083c565b94909192506fa9f746462d870fdf8a65dc1f90e061e5908181029181830414901517156109785790879291811c94610832565b94909192506fd097f3bdfd2022b8845ad8f792aa5825908181029181830414901517156109785790879291811c94610828565b94909192506fe7159475a2c29b7443b29c7fa6e889d9908181029181830414901517156109785790879291811c9461081e565b94909192506ff3392b0822b70005940c7a398e4b70f3908181029181830414901517156109785790879291811c94610814565b94909192506ff987a7253ac413176f2b074cf7815e54908181029181830414901517156109785790879291811c9461080a565b94909192506ffcbe86c7900a88aedcffc83b479aa3a4908181029181830414901517156109785790879291811c94610800565b94909192506ffe5dee046a99a2a811c461f1969c3053908181029181830414901517156109785790879291811c946107f6565b939091506fff2ea16466c96a3843ec78b326b52861908181029181830414901517156109355790869160801c936107eb565b939091506fff973b41fa98c081472e6896dfb254c0908181029181830414901517156109355790869160801c936107e3565b939091506fffcb9843d60f6159c9db58835c926644908181029181830414901517156109355790869160801c936107db565b939091506fffe5caca7e10e4e61c3624eaa0941cd0908181029181830414901517156109355790869160801c936107d2565b939091506ffff2e50f5f656932ef12357cf3c7fdcc908181029181830414901517156109355790869160801c936107c9565b939091506ffff97272373d413259a46990580e213a908181029181830414901517156109355790869160801c936107c1565b70ffffffffffffffffffffffffffffffffff7001000000000000000000000000000000006107b6565b6064896001898d8c51937f08c379a00000000000000000000000000000000000000000000000000000000085528401528201527f54000000000000000000000000000000000000000000000000000000000000006044820152fd5b858560118a634e487b7160e01b835252fd5b8161077d565b868660118b634e487b7160e01b835252fd5b868660128b634e487b7160e01b835252fd5b9091503d8087843e610db881846112dd565b82019088838303126102d45782518181116102d85783019282601f850112156102d857835193610de7856112ff565b94610df48c5196876112dd565b8086528d8087019160051b83010191858311610ea8578e01905b828210610e8b575050508b8101519182116102d8570181601f820112156102d4578051908b80610e3d846112ff565b610e498d5191826112dd565b848152019260051b8201019283116102d857908b809201905b838210610e74575050505089806106ef565b828091610e808461134a565b815201910190610e62565b81518060060b8103610ea4578152908e01908e01610e0e565b8b80fd5b8a80fd5b88513d88823e3d90fd5b9296509350939550806001928b875116815201940191019289918f9387958d97956106cd565b878760418c634e487b7160e01b835252fd5b8280fd5b50346103005781600319360112610300576020906001600160a01b03600354169051908152f35b50346103005781600319360112610300576020906001600160a01b03600254169051908152f35b5060a036600319011261030057610f5561125e565b610f5d611279565b90608435946001600160a01b03958681168091036110a357908661102f94939281875194610f8a8661128f565b16845260209889951685850152612710878501526060840152604435608084015260643560a08401528660c0840152815416908686518096819582946304e45aaf60e01b8452830191909160c060e0820193816001600160a01b039182815116855282602082015116602086015262ffffff60408201511660408601528260608201511660608601526080810151608086015260a081015160a0860152015116910152565b03925af1928315610292578093611071575b50507fdb04c7a6d4758fd55d738ebc67e7f3010ac922be00771ef29521a4090d1eb13f838251848152a151908152f35b909192508382813d831161109c575b61108a81836112dd565b81010312610288575051903880611041565b503d611080565b8580fd5b50346103005781600319360112610300576020906001600160a01b03600a54169051908152f35b50346103005781600319360112610300576020906001600160a01b03600c54169051908152f35b50829034610eee576060366003190112610eee5761111161125e565b908361111b611279565b6044356001600160a01b03948582168092036111d75760209386936084938580600254169289519b8c9889977f13ead5620000000000000000000000000000000000000000000000000000000089521690870152166024850152612710604485015260648401525af19283156111e357849361119e575b50602093505191168152f35b9092506020813d6020116111db575b816111ba602093836112dd565b810103126111d7575181811681036111d757602093509184611192565b8380fd5b3d91506111ad565b81513d86823e3d90fd5b50346103005781600319360112610300576001600160a01b0360209254169051908152f35b50346103005781600319360112610300576020906001600160a01b03600b54169051908152f35b8390346103005781600319360112610300576020906001600160a01b03600154168152f35b600435906001600160a01b038216820361127457565b600080fd5b602435906001600160a01b038216820361127457565b60e0810190811067ffffffffffffffff8211176112ab57604052565b634e487b7160e01b600052604160045260246000fd5b60a0810190811067ffffffffffffffff8211176112ab57604052565b90601f8019910116810190811067ffffffffffffffff8211176112ab57604052565b67ffffffffffffffff81116112ab5760051b60200190565b8051156113245760200190565b634e487b7160e01b600052603260045260246000fd5b8051600110156113245760400190565b51906001600160a01b038216820361127457565b80156113fa5780806001146113f3576002146113ed576001908161013382101682600b831016176113e557906002815b8082116113bc575050816000190481116113a6570290565b634e487b7160e01b600052601160045260246000fd5b9092806000190481116113a6578184166113dc575b800292811c9061138e565b809202916113d1565b600291500a90565b50600490565b5050600190565b50600090565b9190826040910312611274576020825192015190565b60809060a462ffffff946040519061142d826112c1565b6001600160a01b0380941682528360208301961686526040820190815260608201906127108252848684016000998a94858352836005541694846040519c8d9b8c9a7fc6a5026a000000000000000000000000000000000000000000000000000000008c52511660048b01525116602489015251604488015251166064860152511660848401525af19182156115185780926114c857505090565b9091506080823d608011611510575b816114e4608093836112dd565b810103126102885760408251926114fd6020820161134a565b50015163ffffffff811603610288575090565b3d91506114d7565b604051903d90823e3d90fdfea2646970667358221220fdff37b798117739c85d36c45a47031baff47bf2f20b173a014e3ad26510845f64736f6c63430008180033",
  "linkReferences": {},
  "deployedLinkReferences": {}
}