{
  "_format": "hh-sol-artifact-1",
  "contractName": "SwapExamples",
  "sourceName": "contracts/SwapExample.sol",
  "abi": [
    {
      "inputs": [
        {
          "internalType": "contract ISwapRouter",
          "name": "_swapRouter",
          "type": "address"
        }
      ],
      "stateMutability": "nonpayable",
      "type": "constructor"
    },
    {
      "inputs": [],
      "name": "VORTIX",
      "outputs": [
        {
          "internalType": "address",
          "name": "",
          "type": "address"
        }
      ],
      "stateMutability": "view",
      "type": "function"
    },
    {
      "inputs": [],
      "name": "WETH",
      "outputs": [
        {
          "internalType": "address",
          "name": "",
          "type": "address"
        }
      ],
      "stateMutability": "view",
      "type": "function"
    },
    {
      "inputs": [],
      "name": "poolFee",
      "outputs": [
        {
          "internalType": "uint24",
          "name": "",
          "type": "uint24"
        }
      ],
      "stateMutability": "view",
      "type": "function"
    },
    {
      "inputs": [
        {
          "internalType": "uint256",
          "name": "amountIn",
          "type": "uint256"
        }
      ],
      "name": "swapExactInputSingle",
      "outputs": [
        {
          "internalType": "uint256",
          "name": "amountOut",
          "type": "uint256"
        }
      ],
      "stateMutability": "nonpayable",
      "type": "function"
    },
    {
      "inputs": [
        {
          "internalType": "uint256",
          "name": "amountOut",
          "type": "uint256"
        },
        {
          "internalType": "uint256",
          "name": "amountInMaximum",
          "type": "uint256"
        }
      ],
      "name": "swapExactOutputSingle",
      "outputs": [
        {
          "internalType": "uint256",
          "name": "amountIn",
          "type": "uint256"
        }
      ],
      "stateMutability": "nonpayable",
      "type": "function"
    },
    {
      "inputs": [],
      "name": "swapRouter",
      "outputs": [
        {
          "internalType": "contract ISwapRouter",
          "name": "",
          "type": "address"
        }
      ],
      "stateMutability": "view",
      "type": "function"
    }
  ],
  "bytecode": "0x60a03461007857601f61096038819003918201601f19168301916001600160401b0383118484101761007d5780849260209460405283398101031261007857516001600160a01b0381168103610078576080526040516108cc90816100948239608051818181610139015281816105b601526107500152f35b600080fd5b634e487b7160e01b600052604160045260246000fdfe6080604081815260048036101561001557600080fd5b600092833560e01c908163089fe6aa146107c85750806373bd43ad1461063c578063ad5c46481461060d578063c15c5eec146105de578063c31c9c07146105965763c4b69a181461006557600080fd5b346105925781600319360112610592576024918235815194602094858701917f23b872dd000000000000000000000000000000000000000000000000000000008352338289015260449230848a015260649480868b0152858a5260a08a019967ffffffffffffffff9a8181108c82111761058057849182918a52517394365bbf2e8f026279c22e8d94b534f8b3c58d8b9482865af1610102610839565b81610550575b50156105105786517f095ea7b3000000000000000000000000000000000000000000000000000000008a82018181527f00000000000000000000000000000000000000000000000000000000000000006001600160a01b031687840181815260208101869052909d9187918291908690604001039561018f601f1997888101835282610817565b519082895af161019d610839565b816104e0575b50156104ba578b9c6102898c9d610bb88d9e9c9d73fff9976782d46cc05630d1f6ebab18b2324d6b148151936101d8856107e4565b8b85528401528201523360608201524260808201528b3560a08201528660c08201528860e08201528d519e8f7fdb3e2198000000000000000000000000000000000000000000000000000000008152019060e090816001600160a01b039182815116855282602082015116602086015262ffffff60408201511660408601528260608201511660608601526080810151608086015260a081015160a086015260c081015160c0860152015116910152565b8d8d610104818a855af19c8d156104b057908e9291889e610474575b50858e106102b7575b828e8e51908152f35b8c51928301938452888301528689830152888252608082019082821090821117610462578b5251859182919082875af16102ef610839565b81610432575b501561040c578982039182116103f957908361035b6103678295948e8d519384918201967fa9059cbb000000000000000000000000000000000000000000000000000000008852338c8401602090939291936001600160a01b0360408201951681520152565b03908101835282610817565b51925af1610373610839565b816103c9575b501561038c5780808080808b81806102ae565b9060027f5354000000000000000000000000000000000000000000000000000000000000928887519562461bcd60e51b8752860152840152820152fd5b805180159250899083156103e1575b50505038610379565b6103f19350820181019101610879565b3888816103d8565b505050601184634e487b7160e01b835252fd5b5050505090600261534160f01b928887519562461bcd60e51b8752860152840152820152fd5b8051801592508d90831561044a575b505050386102f5565b61045a9350820181019101610879565b388c81610441565b878760418c634e487b7160e01b835252fd5b80929495969e508391933d83116104a9575b6104908183610817565b810103126104a557519b9392918d91856102a5565b8680fd5b503d610486565b8c513d89823e3d90fd5b5050868961534160f01b886002898f8e519562461bcd60e51b8752860152840152820152fd5b8051801592508e9083156104f8575b505050386101a3565b6105089350820181019101610879565b388d816104ef565b50505060039192957f535446000000000000000000000000000000000000000000000000000000000094519562461bcd60e51b8752860152840152820152fd5b8051801592508b908315610568575b50505038610108565b6105789350820181019101610879565b388a8161055f565b858560418c634e487b7160e01b835252fd5b8280fd5b5050346105da57816003193601126105da57602090516001600160a01b037f0000000000000000000000000000000000000000000000000000000000000000168152f35b5080fd5b5050346105da57816003193601126105da57602090517394365bbf2e8f026279c22e8d94b534f8b3c58d8b8152f35b5050346105da57816003193601126105da576020905173fff9976782d46cc05630d1f6ebab18b2324d6b148152f35b509190346105da57602092836003193601126105925761073f8251610660816107e4565b7394365bbf2e8f026279c22e8d94b534f8b3c58d8b815273fff9976782d46cc05630d1f6ebab18b2324d6b1486820152610bb884820152336060820152426080820152823560a08201528460c08201528460e08201528351927f414bf38900000000000000000000000000000000000000000000000000000000845283019060e090816001600160a01b039182815116855282602082015116602086015262ffffff60408201511660408601528260608201511660608601526080810151608086015260a081015160a086015260c081015160c0860152015116910152565b838161010481866001600160a01b037f0000000000000000000000000000000000000000000000000000000000000000165af19283156107bd578093610788575b505051908152f35b909192508382813d83116107b6575b6107a18183610817565b810103126107b3575051903880610780565b80fd5b503d610797565b8251903d90823e3d90fd5b8490346105da57816003193601126105da5780610bb860209252f35b610100810190811067ffffffffffffffff82111761080157604052565b634e487b7160e01b600052604160045260246000fd5b90601f8019910116810190811067ffffffffffffffff82111761080157604052565b3d15610874573d9067ffffffffffffffff82116108015760405191610868601f8201601f191660200184610817565b82523d6000602084013e565b606090565b90816020910312610891575180151581036108915790565b600080fdfea264697066735822122042da4d6f99c22b09cae65a24d0ae45bcf8404386da06c43e5c17de4389878fbe64736f6c63430008180033",
  "linkReferences": {},
  "deployedLinkReferences": {}
}