{
  "_format": "hh-sol-artifact-1",
  "contractName": "VortexSwapper",
  "sourceName": "contracts/Swap.sol",
  "abi": [
    {
      "inputs": [
        {
          "internalType": "address",
          "name": "_positionManager",
          "type": "address"
        },
        {
          "internalType": "address",
          "name": "_weth",
          "type": "address"
        },
        {
          "internalType": "address",
          "name": "_uniswapFactory",
          "type": "address"
        },
        {
          "internalType": "address",
          "name": "_swapRouter",
          "type": "address"
        },
        {
          "internalType": "address",
          "name": "_quoterAddress",
          "type": "address"
        }
      ],
      "stateMutability": "nonpayable",
      "type": "constructor"
    },
    {
      "stateMutability": "payable",
      "type": "fallback"
    },
    {
      "inputs": [],
      "name": "activeTokenCount",
      "outputs": [
        {
          "internalType": "uint256",
          "name": "",
          "type": "uint256"
        }
      ],
      "stateMutability": "view",
      "type": "function"
    },
    {
      "inputs": [
        {
          "internalType": "address",
          "name": "token",
          "type": "address"
        },
        {
          "internalType": "address",
          "name": "spender",
          "type": "address"
        },
        {
          "internalType": "uint256",
          "name": "amount",
          "type": "uint256"
        }
      ],
      "name": "approveToken",
      "outputs": [],
      "stateMutability": "nonpayable",
      "type": "function"
    },
    {
      "inputs": [],
      "name": "deadAddress",
      "outputs": [
        {
          "internalType": "address",
          "name": "",
          "type": "address"
        }
      ],
      "stateMutability": "view",
      "type": "function"
    },
    {
      "inputs": [
        {
          "internalType": "uint256",
          "name": "amountIn",
          "type": "uint256"
        },
        {
          "internalType": "address",
          "name": "tokenAddress",
          "type": "address"
        }
      ],
      "name": "externalFunction",
      "outputs": [
        {
          "internalType": "uint256",
          "name": "ethReceived",
          "type": "uint256"
        }
      ],
      "stateMutability": "nonpayable",
      "type": "function"
    },
    {
      "inputs": [
        {
          "internalType": "uint256",
          "name": "",
          "type": "uint256"
        }
      ],
      "name": "feeTiers",
      "outputs": [
        {
          "internalType": "uint24",
          "name": "",
          "type": "uint24"
        }
      ],
      "stateMutability": "view",
      "type": "function"
    },
    {
      "inputs": [
        {
          "internalType": "address",
          "name": "tokenIn",
          "type": "address"
        },
        {
          "internalType": "address",
          "name": "tokenOut",
          "type": "address"
        },
        {
          "internalType": "uint256",
          "name": "amountIn",
          "type": "uint256"
        }
      ],
      "name": "getEstimatedAmountOut",
      "outputs": [
        {
          "internalType": "uint256",
          "name": "amountOut",
          "type": "uint256"
        }
      ],
      "stateMutability": "nonpayable",
      "type": "function"
    },
    {
      "inputs": [
        {
          "internalType": "address",
          "name": "tokenIn",
          "type": "address"
        },
        {
          "internalType": "address",
          "name": "tokenOut",
          "type": "address"
        }
      ],
      "name": "getOptimalFee",
      "outputs": [
        {
          "internalType": "uint24",
          "name": "",
          "type": "uint24"
        }
      ],
      "stateMutability": "view",
      "type": "function"
    },
    {
      "inputs": [],
      "name": "owner",
      "outputs": [
        {
          "internalType": "address",
          "name": "",
          "type": "address"
        }
      ],
      "stateMutability": "view",
      "type": "function"
    },
    {
      "inputs": [],
      "name": "positionManager",
      "outputs": [
        {
          "internalType": "contract INonfungiblePositionManager",
          "name": "",
          "type": "address"
        }
      ],
      "stateMutability": "view",
      "type": "function"
    },
    {
      "inputs": [],
      "name": "quoter",
      "outputs": [
        {
          "internalType": "contract IQuoterV2",
          "name": "",
          "type": "address"
        }
      ],
      "stateMutability": "view",
      "type": "function"
    },
    {
      "inputs": [],
      "name": "swapRouter",
      "outputs": [
        {
          "internalType": "contract ISwapRouter",
          "name": "",
          "type": "address"
        }
      ],
      "stateMutability": "view",
      "type": "function"
    },
    {
      "inputs": [
        {
          "internalType": "uint256",
          "name": "amountIn",
          "type": "uint256"
        },
        {
          "internalType": "address",
          "name": "tokenAddress",
          "type": "address"
        }
      ],
      "name": "swapTokensforWETH",
      "outputs": [
        {
          "internalType": "uint256",
          "name": "amountOut",
          "type": "uint256"
        }
      ],
      "stateMutability": "nonpayable",
      "type": "function"
    },
    {
      "inputs": [
        {
          "internalType": "uint256",
          "name": "amountIn",
          "type": "uint256"
        },
        {
          "internalType": "address",
          "name": "tokenAddress",
          "type": "address"
        }
      ],
      "name": "swapWETHforTokens",
      "outputs": [
        {
          "internalType": "uint256",
          "name": "amountOut",
          "type": "uint256"
        }
      ],
      "stateMutability": "payable",
      "type": "function"
    },
    {
      "inputs": [],
      "name": "tokenCount",
      "outputs": [
        {
          "internalType": "uint256",
          "name": "",
          "type": "uint256"
        }
      ],
      "stateMutability": "view",
      "type": "function"
    },
    {
      "inputs": [],
      "name": "totalFees",
      "outputs": [
        {
          "internalType": "uint256",
          "name": "",
          "type": "uint256"
        }
      ],
      "stateMutability": "view",
      "type": "function"
    },
    {
      "inputs": [],
      "name": "uniswapFactory",
      "outputs": [
        {
          "internalType": "contract IUniswapV3Factory",
          "name": "",
          "type": "address"
        }
      ],
      "stateMutability": "view",
      "type": "function"
    },
    {
      "inputs": [],
      "name": "weth",
      "outputs": [
        {
          "internalType": "address",
          "name": "",
          "type": "address"
        }
      ],
      "stateMutability": "view",
      "type": "function"
    },
    {
      "stateMutability": "payable",
      "type": "receive"
    }
  ],
  "bytecode": "0x608034610179576001600160401b03601f610e9338819003918201601f1916840191908383118584101761017e578160a092869260409586528339810103126101795761004b83610194565b9060209161005b60208601610194565b94610067838201610194565b92610080608061007960608501610194565b9301610194565b95600092838055600198846001558460025560018060a01b03199261dead8460045416176004558451906060820190828210908211176101655785526101f48152610bb86020820152612710818601529496875b600390818a1015610106578c918b9162ffffff61ffff8b5116928d8102901b92831b921b1916179701980197956100d4565b8b91508890600a5560018060a01b039485809481809416896005541617600555168760065416176006551685600754161760075516836008541617600855168160035416176003553390600954161760095551610cea90816101a98239f35b634e487b7160e01b87526041600452602487fd5b600080fd5b634e487b7160e01b600052604160045260246000fd5b51906001600160a01b03821682036101795756fe6040608081526004908136101561001d575b5050361561001b57005b005b600090813560e01c8062b3af631461040c57806313114a9d14610578578063230ed44a1461053b57806327c8f835146105145780633205fae0146104cb5780633fc8cef3146104a4578063791b98bc1461047d5780638b68e0381461045f5780638bdb2afa146104385780638da5cb5b1461041157806399021a7c1461040c5780639f181b5e146103f0578063c31c9c07146103c9578063c6bbd5a7146103a2578063cd863ef5146101b857909180938263da3e33971461010957505063e6ce06e2036100115734610105576020906100fe6100f8366108b9565b91610ab0565b9051908152f35b5080fd5b909150346101055761015c916001600160a01b03602092610129366108b9565b885163095ea7b360e01b81526001600160a01b039092169382019384526020840152958694919385939091849160400190565b0393165af19081156101ac5761017a9250839161017d575b5061095a565b80f35b61019f915060203d6020116101a5575b6101978183610920565b810190610942565b38610174565b503d61018d565b505051903d90823e3d90fd5b50806003193601126101055782356101ce610596565b906001600160a01b03946101e782848860035416610ab0565b95605f870296808804605f149015171561038f5780600354169681600754169786519889809263095ea7b360e01b8252818b60209d8e958b8b83019161024292602090939291936001600160a01b0360408201951681520152565b03925af180156103855761030e9694928a969492606492610368575b50828060035416968a5197610272896108ee565b88521687870152612710898701523360608701528460808701520460a08501528760c0850152600754169186518096819582946304e45aaf60e01b8452830191909160c060e0820193816001600160a01b039182815116855282602082015116602086015262ffffff60408201511660408601528260608201511660608601526080810151608086015260a081015160a0860152015116910152565b03925af192831561035d578093610328575b505051908152f35b909192508382813d8311610356575b6103418183610920565b81010312610353575051903880610320565b80fd5b503d610337565b8251903d90823e3d90fd5b61037e90883d8a116101a5576101978183610920565b503861025e565b87513d8a823e3d90fd5b602486601184634e487b7160e01b835252fd5b50346101055781600319360112610105576020906001600160a01b03600854169051908152f35b50346101055781600319360112610105576020906001600160a01b03600754169051908152f35b5034610105578160031936011261010557602091549051908152f35b6105b1565b50346101055781600319360112610105576020906001600160a01b03600954169051908152f35b50346101055781600319360112610105576020906001600160a01b03600654169051908152f35b50346101055781600319360112610105576020906001549051908152f35b50346101055781600319360112610105576020906001600160a01b03600554169051908152f35b50346101055781600319360112610105576020906001600160a01b03600354169051908152f35b50823461051057816003193601126105105735916001600160a01b0383168303610353575062ffffff610508602093610502610596565b906109a5565b915191168152f35b8280fd5b509034610353578060031936011261035357506001600160a01b0360209254169051908152f35b5082346105105760203660031901126105105735916003831015610353575062ffffff61056960209361088a565b90549060031b1c169051908152f35b50346101055781600319360112610105576020906002549051908152f35b602435906001600160a01b03821682036105ac57565b600080fd5b346105ac576040806003193601126105ac5760048035916105d0610596565b92801561084757815192602094858501947f23b872dd0000000000000000000000000000000000000000000000000000000086523360248201523060448201528360648201526064815260a081019067ffffffffffffffff9181811083821117610832578652600080978192519082865af1903d1561082a573d90811161081757855190610667601f8201601f19168a0183610920565b81523d878983013e5b816107e7575b50156107a557600754845163095ea7b360e01b81526001600160a01b039182168482019081526020810186905292821694919288908290819060400103818a895af190811561079b57916106d861030e9694928a96948a91610784575061095a565b81600354168751946106e9866108ee565b8552858501526127108785015233606085015260808401528660a08401528660c084015260075416908686518096819582946304e45aaf60e01b8452830191909160c060e0820193816001600160a01b039182815116855282602082015116602086015262ffffff60408201511660408601528260608201511660608601526080810151608086015260a081015160a0860152015116910152565b61019f9150873d89116101a5576101978183610920565b86513d89823e3d90fd5b6064828786519162461bcd60e51b8352820152600360248201527f53544600000000000000000000000000000000000000000000000000000000006044820152fd5b805180159250889083156107ff575b50505038610676565b61080f9350820181019101610942565b3887816107f6565b602487604186634e487b7160e01b835252fd5b506060610670565b604185634e487b7160e01b6000525260246000fd5b606483602084519162461bcd60e51b8352820152602060248201527f416d6f756e74206d7573742062652067726561746572207468616e207a65726f6044820152fd5b9060038210156108a3576003600a808404810193060290565b634e487b7160e01b600052603260045260246000fd5b60609060031901126105ac576001600160a01b039060043582811681036105ac579160243590811681036105ac579060443590565b60e0810190811067ffffffffffffffff82111761090a57604052565b634e487b7160e01b600052604160045260246000fd5b90601f8019910116810190811067ffffffffffffffff82111761090a57604052565b908160209103126105ac575180151581036105ac5790565b1561096157565b606460405162461bcd60e51b815260206004820152600f60248201527f417070726f76616c206661696c656400000000000000000000000000000000006044820152fd5b6000906001600160a01b038060065416925b600380821015610aa5576109ca8261088a565b919062ffffff9283915490831b1c166040908151907f1698ee820000000000000000000000000000000000000000000000000000000082528688166004830152868a1660248301526044820152602080826064818c5afa928315610a9b575090869291600092610a5f575b505016610a465750506001016109b7565b945094509050610a56915061088a565b9054911b1c1690565b9080929350813d8311610a94575b610a778183610920565b810103126101055751908582168203610353575084903880610a35565b503d610a6d565b513d6000823e3d90fd5b505050505050600090565b919062ffffff80610ac183866109a5565b16928315610c4a57604094855160a081019080821067ffffffffffffffff83111761090a5760809360a4928952886001600160a01b03809781809716855281602086019a168a52828501938452606085019a8b528785019060009b8c9586845284806008541696519d8e9b8c9a7fc6a5026a000000000000000000000000000000000000000000000000000000008c52511660048b01525116602489015251604488015251166064860152511660848401525af191839083610bf3575b505050610bee576084825162461bcd60e51b815260206004820152603960248201527f51756f7465722063616c6c206661696c6564206f72206e6f20617661696c616260448201527f6c65206c697175696469747920666f72207468652070616972000000000000006064820152fd5b905090565b90919293506080813d608011610c42575b81610c1160809383610920565b81010312610105578051926020820151908116036101055784015163ffffffff811603610353575090388080610b7e565b3d9150610c04565b608460405162461bcd60e51b815260206004820152602660248201527f4e6f2076616c696420706f6f6c20666f756e6420666f722074686520746f6b6560448201527f6e207061697200000000000000000000000000000000000000000000000000006064820152fdfea264697066735822122052435efdf565e1d1ac5d5cec3f6b25758233f1ba84f502a9f4512c84173299fb64736f6c63430008180033",
  "linkReferences": {},
  "deployedLinkReferences": {}
}