{
  "_format": "hh-sol-artifact-1",
  "contractName": "MyFactory",
  "sourceName": "contracts/VortexFactory.sol",
  "abi": [
    {
      "inputs": [
        {
          "internalType": "address",
          "name": "_positionManager",
          "type": "address"
        },
        {
          "internalType": "address",
          "name": "_weth",
          "type": "address"
        },
        {
          "internalType": "address",
          "name": "_uniswapFactory",
          "type": "address"
        },
        {
          "internalType": "address",
          "name": "_swapRouter",
          "type": "address"
        },
        {
          "internalType": "address",
          "name": "_lockerAddress",
          "type": "address"
        },
        {
          "internalType": "address",
          "name": "_teamWallet",
          "type": "address"
        },
        {
          "internalType": "address",
          "name": "_quoterAddress",
          "type": "address"
        }
      ],
      "stateMutability": "nonpayable",
      "type": "constructor"
    },
    {
      "anonymous": false,
      "inputs": [
        {
          "indexed": false,
          "internalType": "uint256",
          "name": "tokenId",
          "type": "uint256"
        },
        {
          "indexed": false,
          "internalType": "uint256",
          "name": "amount0",
          "type": "uint256"
        },
        {
          "indexed": false,
          "internalType": "uint256",
          "name": "amount1",
          "type": "uint256"
        }
      ],
      "name": "FeesCollected",
      "type": "event"
    },
    {
      "anonymous": false,
      "inputs": [
        {
          "indexed": false,
          "internalType": "uint256",
          "name": "amountNeeded",
          "type": "uint256"
        }
      ],
      "name": "FundsRequested",
      "type": "event"
    },
    {
      "anonymous": false,
      "inputs": [
        {
          "indexed": false,
          "internalType": "uint256",
          "name": "amount",
          "type": "uint256"
        }
      ],
      "name": "FundsSent",
      "type": "event"
    },
    {
      "anonymous": false,
      "inputs": [
        {
          "indexed": false,
          "internalType": "uint256",
          "name": "tokenId",
          "type": "uint256"
        }
      ],
      "name": "LiquidityAdded",
      "type": "event"
    },
    {
      "anonymous": false,
      "inputs": [
        {
          "indexed": true,
          "internalType": "address",
          "name": "token",
          "type": "address"
        },
        {
          "indexed": true,
          "internalType": "address",
          "name": "pool",
          "type": "address"
        },
        {
          "indexed": false,
          "internalType": "uint256",
          "name": "tokenAmount",
          "type": "uint256"
        },
        {
          "indexed": false,
          "internalType": "uint256",
          "name": "wethAmount",
          "type": "uint256"
        },
        {
          "indexed": false,
          "internalType": "string",
          "name": "error",
          "type": "string"
        }
      ],
      "name": "LiquidityAdditionFailed",
      "type": "event"
    },
    {
      "anonymous": false,
      "inputs": [
        {
          "indexed": true,
          "internalType": "address",
          "name": "token",
          "type": "address"
        },
        {
          "indexed": false,
          "internalType": "uint256",
          "name": "tokenId",
          "type": "uint256"
        },
        {
          "indexed": false,
          "internalType": "uint256",
          "name": "amount0",
          "type": "uint256"
        },
        {
          "indexed": false,
          "internalType": "uint256",
          "name": "amount1",
          "type": "uint256"
        }
      ],
      "name": "LiquidityRemoved",
      "type": "event"
    },
    {
      "anonymous": false,
      "inputs": [
        {
          "indexed": true,
          "internalType": "address",
          "name": "token0",
          "type": "address"
        },
        {
          "indexed": true,
          "internalType": "address",
          "name": "poolAddress",
          "type": "address"
        }
      ],
      "name": "PoolCreated",
      "type": "event"
    },
    {
      "anonymous": false,
      "inputs": [
        {
          "indexed": true,
          "internalType": "address",
          "name": "poolAddress",
          "type": "address"
        },
        {
          "indexed": false,
          "internalType": "uint160",
          "name": "sqrtPriceX96",
          "type": "uint160"
        }
      ],
      "name": "PoolInitialized",
      "type": "event"
    },
    {
      "anonymous": false,
      "inputs": [
        {
          "indexed": false,
          "internalType": "uint256",
          "name": "tokenId",
          "type": "uint256"
        },
        {
          "indexed": false,
          "internalType": "bool",
          "name": "isTokenDead",
          "type": "bool"
        }
      ],
      "name": "ResetFeesDays",
      "type": "event"
    },
    {
      "anonymous": false,
      "inputs": [
        {
          "indexed": true,
          "internalType": "address",
          "name": "stakingAddress",
          "type": "address"
        },
        {
          "indexed": false,
          "internalType": "uint256",
          "name": "amount",
          "type": "uint256"
        }
      ],
      "name": "RewardsSent",
      "type": "event"
    },
    {
      "anonymous": false,
      "inputs": [
        {
          "indexed": true,
          "internalType": "address",
          "name": "token",
          "type": "address"
        },
        {
          "indexed": false,
          "internalType": "uint256",
          "name": "amountIn",
          "type": "uint256"
        },
        {
          "indexed": false,
          "internalType": "uint256",
          "name": "amountOut",
          "type": "uint256"
        }
      ],
      "name": "SwappedToWETH",
      "type": "event"
    },
    {
      "anonymous": false,
      "inputs": [
        {
          "indexed": true,
          "internalType": "address",
          "name": "teamWallet",
          "type": "address"
        },
        {
          "indexed": false,
          "internalType": "uint256",
          "name": "amount",
          "type": "uint256"
        }
      ],
      "name": "TeamFunded",
      "type": "event"
    },
    {
      "anonymous": false,
      "inputs": [
        {
          "indexed": true,
          "internalType": "address",
          "name": "tokenAddress",
          "type": "address"
        },
        {
          "indexed": true,
          "internalType": "address",
          "name": "poolAddress",
          "type": "address"
        }
      ],
      "name": "TokenApproved",
      "type": "event"
    },
    {
      "anonymous": false,
      "inputs": [
        {
          "indexed": true,
          "internalType": "address",
          "name": "tokenAddress",
          "type": "address"
        }
      ],
      "name": "TokenDeployed",
      "type": "event"
    },
    {
      "anonymous": false,
      "inputs": [
        {
          "indexed": false,
          "internalType": "address",
          "name": "pool",
          "type": "address"
        },
        {
          "indexed": false,
          "internalType": "address",
          "name": "token",
          "type": "address"
        },
        {
          "indexed": false,
          "internalType": "uint256",
          "name": "tokenID",
          "type": "uint256"
        },
        {
          "indexed": false,
          "internalType": "uint256",
          "name": "lockID",
          "type": "uint256"
        }
      ],
      "name": "TokenLaunched",
      "type": "event"
    },
    {
      "anonymous": false,
      "inputs": [
        {
          "indexed": false,
          "internalType": "uint256",
          "name": "amount",
          "type": "uint256"
        }
      ],
      "name": "TokensSwapped",
      "type": "event"
    },
    {
      "anonymous": false,
      "inputs": [
        {
          "indexed": true,
          "internalType": "address",
          "name": "treasuryAddress",
          "type": "address"
        },
        {
          "indexed": false,
          "internalType": "uint256",
          "name": "amount",
          "type": "uint256"
        }
      ],
      "name": "TreasuryFunded",
      "type": "event"
    },
    {
      "anonymous": false,
      "inputs": [
        {
          "indexed": false,
          "internalType": "uint256",
          "name": "rewardAmount",
          "type": "uint256"
        }
      ],
      "name": "VortexEvent",
      "type": "event"
    },
    {
      "anonymous": false,
      "inputs": [
        {
          "indexed": false,
          "internalType": "uint256",
          "name": "tokenId",
          "type": "uint256"
        },
        {
          "indexed": false,
          "internalType": "bool",
          "name": "isTokenDead",
          "type": "bool"
        }
      ],
      "name": "ZeroFeesDays",
      "type": "event"
    },
    {
      "stateMutability": "payable",
      "type": "fallback"
    },
    {
      "inputs": [],
      "name": "activeTokenCount",
      "outputs": [
        {
          "internalType": "uint256",
          "name": "",
          "type": "uint256"
        }
      ],
      "stateMutability": "view",
      "type": "function"
    },
    {
      "inputs": [
        {
          "internalType": "uint256",
          "name": "amountToBuy",
          "type": "uint256"
        },
        {
          "internalType": "bool",
          "name": "userProvidedLiquidity",
          "type": "bool"
        },
        {
          "internalType": "string",
          "name": "_name",
          "type": "string"
        },
        {
          "internalType": "string",
          "name": "_symbol",
          "type": "string"
        },
        {
          "internalType": "uint256",
          "name": "_supply",
          "type": "uint256"
        }
      ],
      "name": "addLiquidityLockSwap",
      "outputs": [
        {
          "internalType": "address",
          "name": "poolAddress",
          "type": "address"
        },
        {
          "internalType": "address",
          "name": "tokenAddress",
          "type": "address"
        },
        {
          "internalType": "uint256",
          "name": "tokenId",
          "type": "uint256"
        },
        {
          "internalType": "uint256",
          "name": "lockID",
          "type": "uint256"
        }
      ],
      "stateMutability": "payable",
      "type": "function"
    },
    {
      "inputs": [
        {
          "internalType": "uint256",
          "name": "",
          "type": "uint256"
        }
      ],
      "name": "allTokens",
      "outputs": [
        {
          "internalType": "address",
          "name": "tokenAddress",
          "type": "address"
        },
        {
          "internalType": "address",
          "name": "poolAddress",
          "type": "address"
        },
        {
          "internalType": "address",
          "name": "tokenCreator",
          "type": "address"
        },
        {
          "internalType": "uint256",
          "name": "timeStamp",
          "type": "uint256"
        },
        {
          "internalType": "uint256",
          "name": "tokenId",
          "type": "uint256"
        },
        {
          "internalType": "bool",
          "name": "liquidityRemoved",
          "type": "bool"
        },
        {
          "internalType": "uint256",
          "name": "zerofeedays",
          "type": "uint256"
        },
        {
          "internalType": "bool",
          "name": "isInactive",
          "type": "bool"
        },
        {
          "internalType": "uint256",
          "name": "feeFromSwap",
          "type": "uint256"
        },
        {
          "internalType": "uint256",
          "name": "lockId",
          "type": "uint256"
        },
        {
          "internalType": "bool",
          "name": "isLocked",
          "type": "bool"
        },
        {
          "internalType": "uint256",
          "name": "unlockTime",
          "type": "uint256"
        },
        {
          "internalType": "bool",
          "name": "isDEAD",
          "type": "bool"
        },
        {
          "internalType": "bool",
          "name": "maxWalletEnabled",
          "type": "bool"
        },
        {
          "internalType": "bool",
          "name": "userLiquidity",
          "type": "bool"
        }
      ],
      "stateMutability": "view",
      "type": "function"
    },
    {
      "inputs": [
        {
          "internalType": "uint256",
          "name": "amount",
          "type": "uint256"
        }
      ],
      "name": "callAddRewards",
      "outputs": [],
      "stateMutability": "payable",
      "type": "function"
    },
    {
      "inputs": [
        {
          "internalType": "uint256",
          "name": "tokenId",
          "type": "uint256"
        },
        {
          "internalType": "address",
          "name": "tokenAddress",
          "type": "address"
        }
      ],
      "name": "collectFromLockerAndSwap",
      "outputs": [],
      "stateMutability": "nonpayable",
      "type": "function"
    },
    {
      "inputs": [],
      "name": "deadAddress",
      "outputs": [
        {
          "internalType": "address",
          "name": "",
          "type": "address"
        }
      ],
      "stateMutability": "view",
      "type": "function"
    },
    {
      "inputs": [
        {
          "internalType": "string",
          "name": "_name",
          "type": "string"
        },
        {
          "internalType": "string",
          "name": "_symbol",
          "type": "string"
        },
        {
          "internalType": "uint256",
          "name": "_supply",
          "type": "uint256"
        }
      ],
      "name": "deployToken",
      "outputs": [
        {
          "internalType": "address",
          "name": "",
          "type": "address"
        }
      ],
      "stateMutability": "nonpayable",
      "type": "function"
    },
    {
      "inputs": [],
      "name": "factoryHelper",
      "outputs": [
        {
          "internalType": "contract FactoryHelper",
          "name": "",
          "type": "address"
        }
      ],
      "stateMutability": "view",
      "type": "function"
    },
    {
      "inputs": [],
      "name": "getAllTokens",
      "outputs": [
        {
          "internalType": "address[]",
          "name": "addresses",
          "type": "address[]"
        },
        {
          "internalType": "address[]",
          "name": "tokenCreators",
          "type": "address[]"
        },
        {
          "internalType": "address[]",
          "name": "poolAddresses",
          "type": "address[]"
        },
        {
          "internalType": "uint256[]",
          "name": "tokenIds",
          "type": "uint256[]"
        },
        {
          "internalType": "uint256[]",
          "name": "timestamps",
          "type": "uint256[]"
        },
        {
          "internalType": "bool[]",
          "name": "liquidityRemovedStatus",
          "type": "bool[]"
        },
        {
          "internalType": "uint256[]",
          "name": "zerofeesdays",
          "type": "uint256[]"
        },
        {
          "internalType": "bool[]",
          "name": "inactive",
          "type": "bool[]"
        },
        {
          "internalType": "uint256[]",
          "name": "feefromswap",
          "type": "uint256[]"
        },
        {
          "internalType": "uint256[]",
          "name": "lockIds",
          "type": "uint256[]"
        },
        {
          "internalType": "bool[]",
          "name": "isTokenLocked",
          "type": "bool[]"
        },
        {
          "internalType": "uint256[]",
          "name": "unlockTimes",
          "type": "uint256[]"
        },
        {
          "internalType": "bool[]",
          "name": "isDead",
          "type": "bool[]"
        },
        {
          "internalType": "bool[]",
          "name": "maxWallet",
          "type": "bool[]"
        },
        {
          "internalType": "bool[]",
          "name": "isUserLiquidity",
          "type": "bool[]"
        }
      ],
      "stateMutability": "view",
      "type": "function"
    },
    {
      "inputs": [],
      "name": "getMetrics",
      "outputs": [
        {
          "internalType": "uint256",
          "name": "alltokens",
          "type": "uint256"
        },
        {
          "internalType": "uint256",
          "name": "allactivetokens",
          "type": "uint256"
        },
        {
          "internalType": "uint256",
          "name": "fees",
          "type": "uint256"
        }
      ],
      "stateMutability": "view",
      "type": "function"
    },
    {
      "inputs": [
        {
          "internalType": "address",
          "name": "tokenA",
          "type": "address"
        },
        {
          "internalType": "address",
          "name": "tokenB",
          "type": "address"
        },
        {
          "internalType": "uint24",
          "name": "fee",
          "type": "uint24"
        }
      ],
      "name": "get_Pool",
      "outputs": [
        {
          "internalType": "address",
          "name": "pool",
          "type": "address"
        }
      ],
      "stateMutability": "view",
      "type": "function"
    },
    {
      "inputs": [],
      "name": "lockTime1",
      "outputs": [
        {
          "internalType": "uint256",
          "name": "",
          "type": "uint256"
        }
      ],
      "stateMutability": "view",
      "type": "function"
    },
    {
      "inputs": [],
      "name": "lockTime2",
      "outputs": [
        {
          "internalType": "uint256",
          "name": "",
          "type": "uint256"
        }
      ],
      "stateMutability": "view",
      "type": "function"
    },
    {
      "inputs": [],
      "name": "locker",
      "outputs": [
        {
          "internalType": "contract ILiquidityLocker",
          "name": "",
          "type": "address"
        }
      ],
      "stateMutability": "view",
      "type": "function"
    },
    {
      "inputs": [],
      "name": "lockerAddress",
      "outputs": [
        {
          "internalType": "address",
          "name": "",
          "type": "address"
        }
      ],
      "stateMutability": "view",
      "type": "function"
    },
    {
      "inputs": [],
      "name": "maxZeroFeeDays",
      "outputs": [
        {
          "internalType": "uint256",
          "name": "",
          "type": "uint256"
        }
      ],
      "stateMutability": "view",
      "type": "function"
    },
    {
      "inputs": [
        {
          "internalType": "uint256",
          "name": "amount",
          "type": "uint256"
        }
      ],
      "name": "notifyFundsNeeded",
      "outputs": [],
      "stateMutability": "nonpayable",
      "type": "function"
    },
    {
      "inputs": [],
      "name": "owner",
      "outputs": [
        {
          "internalType": "address",
          "name": "",
          "type": "address"
        }
      ],
      "stateMutability": "view",
      "type": "function"
    },
    {
      "inputs": [],
      "name": "pendingFunds",
      "outputs": [
        {
          "internalType": "uint256",
          "name": "",
          "type": "uint256"
        }
      ],
      "stateMutability": "view",
      "type": "function"
    },
    {
      "inputs": [],
      "name": "positionManager",
      "outputs": [
        {
          "internalType": "contract INonfungiblePositionManager",
          "name": "",
          "type": "address"
        }
      ],
      "stateMutability": "view",
      "type": "function"
    },
    {
      "inputs": [
        {
          "internalType": "address",
          "name": "_stakingContract",
          "type": "address"
        },
        {
          "internalType": "uint256",
          "name": "amountRequested",
          "type": "uint256"
        }
      ],
      "name": "provideFundsIfNeeded",
      "outputs": [],
      "stateMutability": "nonpayable",
      "type": "function"
    },
    {
      "inputs": [],
      "name": "quoter",
      "outputs": [
        {
          "internalType": "contract IQuoterV2",
          "name": "",
          "type": "address"
        }
      ],
      "stateMutability": "view",
      "type": "function"
    },
    {
      "inputs": [
        {
          "internalType": "uint256",
          "name": "_tokenId",
          "type": "uint256"
        },
        {
          "internalType": "uint256",
          "name": "_lockID",
          "type": "uint256"
        }
      ],
      "name": "relock",
      "outputs": [
        {
          "internalType": "uint256",
          "name": "lockID",
          "type": "uint256"
        }
      ],
      "stateMutability": "nonpayable",
      "type": "function"
    },
    {
      "inputs": [
        {
          "internalType": "uint256",
          "name": "tokenId",
          "type": "uint256"
        },
        {
          "internalType": "uint256",
          "name": "lockId",
          "type": "uint256"
        }
      ],
      "name": "removeDeadLiquidity",
      "outputs": [],
      "stateMutability": "nonpayable",
      "type": "function"
    },
    {
      "inputs": [
        {
          "internalType": "uint256",
          "name": "tokenId",
          "type": "uint256"
        },
        {
          "internalType": "uint256",
          "name": "lockId",
          "type": "uint256"
        }
      ],
      "name": "removeInitialLiquidity",
      "outputs": [],
      "stateMutability": "nonpayable",
      "type": "function"
    },
    {
      "inputs": [
        {
          "internalType": "uint256",
          "name": "tokenId",
          "type": "uint256"
        },
        {
          "internalType": "uint256",
          "name": "lockId",
          "type": "uint256"
        }
      ],
      "name": "removeUserLiquidity",
      "outputs": [],
      "stateMutability": "nonpayable",
      "type": "function"
    },
    {
      "inputs": [
        {
          "internalType": "address payable",
          "name": "_stakingAddress",
          "type": "address"
        },
        {
          "internalType": "address",
          "name": "_treasuryAddress",
          "type": "address"
        },
        {
          "internalType": "address",
          "name": "_helperAddress",
          "type": "address"
        }
      ],
      "name": "setStakingAndTreasuryAddress",
      "outputs": [],
      "stateMutability": "nonpayable",
      "type": "function"
    },
    {
      "inputs": [],
      "name": "stakingAddress",
      "outputs": [
        {
          "internalType": "address payable",
          "name": "",
          "type": "address"
        }
      ],
      "stateMutability": "view",
      "type": "function"
    },
    {
      "inputs": [],
      "name": "swapRouter",
      "outputs": [
        {
          "internalType": "contract ISwapRouter",
          "name": "",
          "type": "address"
        }
      ],
      "stateMutability": "view",
      "type": "function"
    },
    {
      "inputs": [],
      "name": "tokenCount",
      "outputs": [
        {
          "internalType": "uint256",
          "name": "",
          "type": "uint256"
        }
      ],
      "stateMutability": "view",
      "type": "function"
    },
    {
      "inputs": [],
      "name": "totalFees",
      "outputs": [
        {
          "internalType": "uint256",
          "name": "",
          "type": "uint256"
        }
      ],
      "stateMutability": "view",
      "type": "function"
    },
    {
      "inputs": [
        {
          "internalType": "uint256",
          "name": "amount",
          "type": "uint256"
        }
      ],
      "name": "transferWETHToFactory",
      "outputs": [],
      "stateMutability": "nonpayable",
      "type": "function"
    },
    {
      "inputs": [],
      "name": "tryToSendFunds",
      "outputs": [],
      "stateMutability": "nonpayable",
      "type": "function"
    },
    {
      "inputs": [],
      "name": "uniswapFactory",
      "outputs": [
        {
          "internalType": "contract IUniswapV3Factory",
          "name": "",
          "type": "address"
        }
      ],
      "stateMutability": "view",
      "type": "function"
    },
    {
      "inputs": [],
      "name": "weth",
      "outputs": [
        {
          "internalType": "address",
          "name": "",
          "type": "address"
        }
      ],
      "stateMutability": "view",
      "type": "function"
    },
    {
      "stateMutability": "payable",
      "type": "receive"
    }
  ],
  "bytecode": "0x6080346200017457601f62005b3238819003918201601f19168301916001600160401b03831184841017620001795780849260e09460405283398101031262000174576200004d816200018f565b6200005b602083016200018f565b916200006a604082016200018f565b9062000079606082016200018f565b9062000088608082016200018f565b93620000a560c06200009d60a085016200018f565b93016200018f565b93600080556000600155600060025560018060a01b031996879261dead84600454161760045565048c273950006014556512309ce5400060155560056016556005601755600260185560018060a01b03978880978180968180961680996005541617600555168c6006541617600655168a600754161760075516928389600a541617600a5588600e541617600e55168660035416176003553386600b541617600b5585600d541617600d55168360105416176010551690600854161760085560405161598d9081620001a58239f35b600080fd5b634e487b7160e01b600052604160045260246000fd5b51906001600160a01b0382168203620001745756fe6102808060405260043610156200001d575b5036156200001b57005b005b600090813560e01c90816313114a9d14620036015750806327c8f83514620035d85780632a5c792a14620031455780633675f29b146200311c5780633a93babb14620030a35780633fc8cef3146200307a578063428c59b7146200234457806360b873c5146200209a578063634282af1462001f9f57806367125e1c1462001f7f5780636e9551d71462001e9c5780637606f7811462001e66578063791b98bc1462001e3d5780637c6bc9be1462001e1d5780638aa07e671462001d885780638b68e0381462001d685780638bdb2afa1462001d3f5780638c3a65a21462001ac45780638da5cb5b1462001a9b5780639f181b5e1462001a7c578063ad1b9e3214620019a9578063ae3b05d414620017df578063b2a788041462001128578063b2fb30cb1462000f48578063be5ef1761462000dac578063c31c9c071462000d83578063c6bbd5a71462000d5a578063d7b4be241462000d31578063d7b96d4e1462000d08578063db2561d41462000ce8578063db69bdd8146200079e578063f02e4e36146200077e578063fbcc3fcc146200048e578063fd53f53b14620004655763fe9655fc0362000011573462000462576020806003193601126200045e576004356001600160a01b03620001fa81600b5416331462003a87565b81156200041b578060035416916040516370a0823160e01b81523360048201528481602481875afa8015620004105782918791620003d4575b5010620003905760405163095ea7b360e01b81523060048201526024810182905285939092919085908490604490829088905af1918215620003855762000289620002c1938795879162000363575b5062003bec565b6003546040516323b872dd60e01b81523360048201523060248201526044810193909352919485939190921691839182906064820190565b03925af19081156200035857839162000324575b5015620002e0575080f35b6064906040519062461bcd60e51b82526004820152600f60248201527f5472616e73666572206661696c656400000000000000000000000000000000006044820152fd5b620003499150823d841162000350575b620003408183620037c6565b81019062003a6d565b38620002d5565b503d62000334565b6040513d85823e3d90fd5b6200037e9150863d88116200035057620003408183620037c6565b3862000282565b6040513d86823e3d90fd5b6064846040519062461bcd60e51b82526004820152601960248201527f496e73756666696369656e7420574554482062616c616e6365000000000000006044820152fd5b809250868092503d831162000408575b620003f08183620037c6565b8101031262000403578190513862000233565b600080fd5b503d620003e4565b6040513d88823e3d90fd5b6064836040519062461bcd60e51b825280600483015260248201527f416d6f756e74206d7573742062652067726561746572207468616e207a65726f6044820152fd5b5080fd5b80fd5b5034620004625780600319360112620004625760206001600160a01b0360095416604051908152f35b50346200046257620004a036620036fd565b826001600160a01b0391620004bb83600b5416331462003a87565b82600d5416803b156200076f5760405163318a457160e21b8152600481019290925230602483015282908290604490829084905af18015620007735762000757575b50508060055416604051809163133f757160e31b82528460048301528160246101809384935afa80156200074c5785928692879262000700575b505062000545908562003dbb565b600354909385169190851682036200067757505060405163095ea7b360e01b81523060048201526024810183905260209390929091821684846044818a855af19283156200066c57620005a68694620005e6968a9162000363575062003bec565b60045416876040518096819582946323b872dd60e01b845230600485016040919493929460608201956001600160a01b0380921683521660208201520152565b03925af18015620003855762000649575b50505b8152601a60205260408120546001548015620006355760001901600155600c90620006259062003714565b5001805460ff1916600117905580f35b602483634e487b7160e01b81526011600452fd5b816200066392903d106200035057620003408183620037c6565b503880620005f7565b6040513d89823e3d90fd5b60405163095ea7b360e01b81523060048201526024810182905260209590945092509084846044818a855af19283156200066c57620005a68694620006c4968a9162000363575062003bec565b03925af180156200038557620006dd575b5050620005fa565b81620006f792903d106200035057620003408183620037c6565b503880620006d5565b6200054594506200072e935080919250903d1062000744575b620007258183620037c6565b810190620039aa565b5050505096505050509391509291903862000537565b503d62000719565b6040513d87823e3d90fd5b620007629062003794565b6200076f578238620004fd565b8280fd5b6040513d84823e3d90fd5b503462000462578060031936011262000462576020601854604051908152f35b50346200046257620007b036620036fd565b6001600160a01b0380600b54163314801562000cde575b801562000cd0575b620007da9062003ad3565b8381600d5416803b156200045e5760405163318a457160e21b8152600481018590523060248201529082908290604490829084905af18015620007735762000cb4575b50506200082e601454928462003d72565b806005541690604051809263133f757160e31b82528560048301528160246101809384935afa9081156200041057620008ba948791889589918a9562000c7d575b5050600654604051630b4c774160e11b81526001600160a01b0380861660048301528816602482015262ffffff90921660448301526020978891839190881690829081906064820190565b03915afa90811562000c3157899162000c3c575b508685604481600954169360405194859384927f8be32a41000000000000000000000000000000000000000000000000000000008452166004830152600360248301525afa90811562000c3157899162000bfe575b50670de0b6b3a7640000908183028315928482041483171562000bea57906200094c9162003929565b80830292830414171562000bd45785926200097f62000994926fffffffffffffffffffffffffffffffff91829162003c38565b1690821681111562000bcc57505b8762003dbb565b6003549092851690851681810362000b2b57505050620009e7938360045416888560405180988196829563a9059cbb60e01b845260048401602090939291936001600160a01b0360408201951681520152565b0393165af19081156200074c5762000a6692849262000b09575b505b62000a1381600d541686620044a9565b6017549080600a541690600554169187604051809681958294630fe9a9f560e31b84528b3092600486019293606092959460808501966001600160a01b0380941686526020860152604085015216910152565b03925af19081156200038557849162000ad5575b5062000acf90601a600b9362000a93601754426200395f565b956000525260406000205490600962000aac8362003714565b500155600a62000abc8262003714565b5001805460ff1916600117905562003714565b50015580f35b90508181813d831162000b01575b62000aef8183620037c6565b81010312620004035751600b62000a7a565b503d62000ae3565b62000b2390833d85116200035057620003408183620037c6565b503862000a01565b91939585919350161462000b48575b50509062000a669162000a03565b9062000b87939183600454168860405180978195829463a9059cbb60e01b845260048401602090939291936001600160a01b0360408201951681520152565b03925af19081156200074c5762000a6692849262000baa575b8192935062000b3a565b62000bc490833d85116200035057620003408183620037c6565b503862000ba0565b90506200098d565b634e487b7160e01b600052601160045260246000fd5b60248b634e487b7160e01b81526011600452fd5b90508681813d831162000c29575b62000c188183620037c6565b810103126200040357513862000923565b503d62000c0c565b6040513d8b823e3d90fd5b90508681813d831162000c75575b62000c568183620037c6565b8101031262000c715762000c6a906200394a565b38620008ce565b8880fd5b503d62000c4a565b92965092505062000c9d9250803d106200074457620007258183620037c6565b50505050965050509591909250919438806200086f565b62000cbf9062003794565b62000ccc5783386200081d565b8380fd5b50600c5481163314620007cf565b50303314620007c7565b503462000462578060031936011262000462576020601754604051908152f35b5034620004625780600319360112620004625760206001600160a01b03600a5416604051908152f35b5034620004625780600319360112620004625760206001600160a01b03600c5416604051908152f35b5034620004625780600319360112620004625760206001600160a01b0360085416604051908152f35b5034620004625780600319360112620004625760206001600160a01b0360075416604051908152f35b50346200046257604036600319011262000462578062000dcb62003766565b602435906001600160a01b039081600b54163314801562000f3e575b801562000f30575b62000dfa9062003ad3565b8160035416604051906370a0823160e01b82523060048301526020918281602481855afa9081156200066c57879162000ef8575b5085111562000e3b578580f35b60405163a9059cbb60e01b81526001600160a01b038416600482015260248101869052908290829060449082908a905af18015620004105762000ed5575b50501690813b1562000ed1578291602483926040519485938492639b5ceb3560e01b845260048401525af18015620007735762000eb9575b808080808580f35b62000ec49062003794565b6200046257803862000eb1565b5050fd5b8162000eef92903d106200035057620003408183620037c6565b50388062000e79565b809750838092503d831162000f28575b62000f148183620037c6565b810103126200040357848796519062000e2e565b503d62000f08565b50600c548216331462000def565b5030331462000de7565b5034620004625762000f5a36620036fd565b6001600160a01b03929183600b5416331480156200111e575b801562001110575b62000f869062003ad3565b808352602093601a855260408420549281600d541690813b156200110c5760405163318a457160e21b815260048101919091523060248201529085908290604490829084905af180156200074c578692918691620010ef575b5050918262000ff76200104994600d541683620044a9565b6017548682600d541692600554169360405196879586948593630fe9a9f560e31b85523092600486019293606092959460808501966001600160a01b0380941686526020860152604085015216910152565b03925af1928315620010e35792620010ae575b508160096200106b8362003714565b500155600a6200107b8262003714565b5001600160ff19825416179055600b620010a36200109c601754426200395f565b9262003714565b500155604051908152f35b9091508281813d8311620010db575b620010c98183620037c6565b8101031262000403575190386200105c565b503d620010bd565b604051903d90823e3d90fd5b620010fd9192935062003794565b62000ccc578490843862000fdf565b8580fd5b50600c548416331462000f7b565b5030331462000f73565b5034620004625760403660031901126200046257600435906200114a6200377d565b916001600160a01b036200116481600b5416331462003a87565b6011838155828452601a6020908152604080862054600d5482517f51f3b4bd000000000000000000000000000000000000000000000000000000008152600481018890523060248201529198949594919288918490604490829085908a165af18015620017d4578893899162001798575b5060408051898152602081018690529081018290527fa54e6c2fc0861aa9c991b26891d71059d517983b9e84b91020f42609c452eb9d90606090a160035486168387161015620016f45783159283620016b0576200124e92916200123e620012449287620043c3565b6200395f565b908188556200395f565b9560086200125c8a62003714565b50015483116200169f5762001271906200429e565b81800460011417156200168c57600860646200128d8962003714565b5092049101555b7f455a40491d912862d7d0e0f06f4b988a4ecbfcb2e134b41b9600c81a782860ed81604051868152a18315958615620012dd575b85620012d786600f546200395f565b600f5580f35b601485029685880460141481171562001679576064879804846003541691823b1562000c715760405189817f2e1a7d4d00000000000000000000000000000000000000000000000000000000958682528560048301528160249e8f925af180156200166e57908a93929162001650575b50605089029089820460501417156200163e5791808080938960026200137b60646200139299049a62003714565b500154165af16200138b62003b36565b5062003b7a565b8360035416906040516370a0823160e01b815230600482015284818b81865afa90811562000c31579084918a9162001607575b50106200159e57813b156200159a578791898392604051948593849283528760048401525af180156200066c5790879162001582575b50508060031c93841585600f810204600f14811715620015705760198602928684046019148217156200155e577f3ffffffffffffffffffffffffffffffffffffffffffffffffffffffffffffffe9060021c1695860460021417156200154d575082600c5416803b156200154957869060046040518094819363014d6aed60e41b83525af1801562000410579086916200152d575b508080808686601254165af1620014a662003b36565b5015620014da5750838080809750620014cf94620012d79794601054165af16200138b62003b36565b8291388080620012c8565b6084906027876040519262461bcd60e51b845260048401528201527f4661696c656420746f2073656e642045544820746f20747265617375727920636044820152661bdb9d1c9858dd60ca1b6064820152fd5b620015389062003794565b6200154557843862001490565b8480fd5b8680fd5b634e487b7160e01b87526004528686fd5b898984634e487b7160e01b8252600452fd5b888883634e487b7160e01b8252600452fd5b6200158d9062003794565b6200110c578538620013fb565b8780fd5b60848460228b6040519262461bcd60e51b845260048401528201527f496e737566696369656e742062616c616e6365206f6e2074686520666163746f60448201527f72790000000000000000000000000000000000000000000000000000000000006064820152fd5b809250868092503d831162001636575b620016238183620037c6565b81010312620004035783905138620013c5565b503d62001617565b8a8389634e487b7160e01b8252600452fd5b6200165f909391929362003794565b62000c7157908891386200134d565b6040513d8c823e3d90fd5b60248786634e487b7160e01b8252600452fd5b60248685634e487b7160e01b8252600452fd5b620016aa906200434c565b62001271565b50969250620016d19150620016c78787546200395f565b908187556200395f565b9415620016e957620016e3906200434c565b62001294565b620016e3906200429e565b928315928362001770576200171492916200123e620012449287620043c3565b956008620017228a62003714565b50015483116200175f5762001737906200429e565b81800460011417156200168c5760086064620017538962003714565b50920491015562001294565b6200176a906200434c565b62001737565b509692505050620017838585546200395f565b8085559415620016e957620016e3906200434c565b9050620017c291935060403d604011620017cc575b620017b98183620037c6565b81019062003b1f565b92909238620011d5565b503d620017ad565b6040513d8a823e3d90fd5b503462000462578060031936011262000462576001600160a01b0380600b5416331480156200199f575b801562001991575b6200181c9062003ad3565b81816003541691604051926370a0823160e01b84523060048501526020938481602481855afa908115620003855784916200195a575b50601b54809110158062001950575b6200186a578380f35b8490604484600c541686604051958694859363a9059cbb60e01b8552600485015260248401525af1801562000358576200192e575b50600c5416601b54813b156200076f578291602483926040519485938492639b5ceb3560e01b845260048401525af18015620007735762001916575b50507f8ff98a7f9bedb57df86769d07998b067fba595272053e3690d3412aff560a82c90601b54604051908152a180601b5538818180808380f35b620019219062003794565b6200045e578138620018db565b6200194890843d86116200035057620003408183620037c6565b50386200189f565b5080151562001861565b809450858092503d831162001989575b620019768183620037c6565b8101031262000403578492513862001852565b503d6200196a565b50600c548116331462001811565b5030331462001809565b50602036600319011262000462576004356001600160a01b0390620019d482600b5416331462003a87565b341562001a385781620019f38285946003541683600c54169062004231565b600c5416803b1562000ed157829060046040518094819363014d6aed60e41b83525af18015620007735762001a255750f35b62001a309062003794565b620004625780f35b606460405162461bcd60e51b815260206004820152601160248201527f4e6f207265776172647320746f206164640000000000000000000000000000006044820152fd5b5034620004625780600319360112620004625760209054604051908152f35b5034620004625780600319360112620004625760206001600160a01b03600b5416604051908152f35b503462000462576020806003193601126200045e576004356001600160a01b039081600c5416803314801562001cd5579062001b5883927fd5e85995d9bdcdafb72531ec59faef29167c16780583ca2068587fe896170c478762001b2d8a9897601b546200395f565b9586601b55604051908152a184600b5416331490811562001cca575b811562001cc1575b5062003ad3565b8260035416916040516370a0823160e01b81523060048201528681602481875afa9081156200041057869162001c89575b508111158062001c7f575b62001b9d578480f35b6044869286604051958694859363a9059cbb60e01b8552600485015260248401525af18015620003585762001c5d575b50600c5416601b54813b156200076f578291602483926040519485938492639b5ceb3560e01b845260048401525af18015620007735762001c45575b50507f8ff98a7f9bedb57df86769d07998b067fba595272053e3690d3412aff560a82c90601b54604051908152a180601b553881818080808480f35b62001c509062003794565b6200045e57813862001c09565b62001c7790843d86116200035057620003408183620037c6565b503862001bcd565b5080151562001b94565b809650878092503d831162001cb9575b62001ca58183620037c6565b810103126200040357808795519062001b89565b503d62001c99565b90503862001b51565b333014915062001b49565b6084856040519062461bcd60e51b82526004820152602160248201527f4f6e6c79207374616b696e6720636f6e74726163742063616e206e6f7469667960448201527f2e000000000000000000000000000000000000000000000000000000000000006064820152fd5b5034620004625780600319360112620004625760206001600160a01b0360065416604051908152f35b503462000462578060031936011262000462576020600154604051908152f35b50346200046257606036600319011262000462576004356001600160a01b03908181168091036200076f5762001dbd6200377d565b9160443592818416809403620004035762001dde82600b5416331462003a87565b73ffffffffffffffffffffffffffffffffffffffff199283600c541617600c551681601254161760125581816013541617601355600954161760095580f35b503462000462578060031936011262000462576020601b54604051908152f35b5034620004625780600319360112620004625760206001600160a01b0360055416604051908152f35b5034620004625780600319360112620004625754600154600f5460408051938452602084019290925290820152606090f35b0390f35b503462000462576060366003190112620004625762001eba62003766565b9062001ec56200377d565b6044359262ffffff841684036200076f57600654604051630b4c774160e11b81526001600160a01b039283166004820152928216602484015262ffffff94909416604483015290926020908490606490829085165afa918215620010e357809262001f38575b6020838360405191168152f35b9091506020833d60201162001f76575b8162001f5760209383620037c6565b8101031262000462575062001f6e6020926200394a565b903862001f2b565b3d915062001f48565b503462000462578060031936011262000462576020601654604051908152f35b50346200046257602036600319011262000462576004359060195482101562000462576101e062001fd08362003714565b5060ff6001600160a01b03808354169281600182015416916002820154166003820154600483015485600585015416600685015487600787015416916008870154936009880154958a600a8a01541697600c600b8b01549a01549a60206040519e8f908152015260408d015260608c015260808b0152151560a08a015260c0890152151560e088015261010087015261012086015215156101408501526101608401528181161515610180840152818160081c1615156101a084015260101c1615156101c0820152f35b50346200046257620020ac36620036fd565b908083526002602092601a84526040852054620020c98162003714565b506001600160a01b0393849101541633036200230057620020ec600b9162003714565b500154421115620022bc578482600d5416803b156200045e5760405163318a457160e21b8152600481018490523060248201529082908290604490829084905af180156200077357620022a4575b505062002148908362003d72565b806005541660405192839163133f757160e31b83528160048401528260246101809485935afa908115620004105786948793889362002268575b505090620021909162003dbb565b60405163a9059cbb60e01b80825233600483015260248201939093529490929190879087908790604490829085908a165af19485156200225b576200220396889662002239575b5060405180978196829583523360048401602090939291936001600160a01b0360408201951681520152565b0393165af18015620003585762002218578280f35b816200223292903d106200035057620003408183620037c6565b5038808280f35b6200225390873d89116200035057620003408183620037c6565b5038620021d7565b50604051903d90823e3d90fd5b80919296506200219094506200228d9350903d106200074457620007258183620037c6565b505050509796505050509591509492913862002182565b620022af9062003794565b620015455784386200213a565b6064846040519062461bcd60e51b82526004820152601a60248201527f506c65617365207761697420666f7220756e6c6f636b54696d650000000000006044820152fd5b6064856040519062461bcd60e51b82526004820152601f60248201527f43616c6c6572206973206e6f742074686520746f6b656e2063726561746f72006044820152fd5b5060a03660031901126200046257602435908115158203620004625760443567ffffffffffffffff81116200045e5762002383903690600401620036cc565b9060643567ffffffffffffffff811162000ccc57620023a7903690600401620036cc565b9060155434106200301057620023c1936084359362003870565b9160145491604051916370a0823160e01b83523060048401526020836024816001600160a01b0389165afa9283156200077357829362002fd6575b50801562002f03575b60018115151462002e2c575b6001600160a01b036003541693846001600160a01b0387161060001462002e23578594935b670de0b6b3a764000080830290838204148315171562002dcb576200246082620024669262003929565b62003c38565b95868060601b046c01000000000000000000000000148715171562002dcb5760206001600160a01b0360648888836009541684633b9aca006040519e8f9788967f51246d6e000000000000000000000000000000000000000000000000000000008852818c16600489015216602487015260601b041660448401525af19687156200074c57859762002ddf575b506200250c826001600160a01b03600554168362003c98565b62002524836001600160a01b03600554168862003c98565b61012c4201421162002dcb57604051958661016081011067ffffffffffffffff6101608901111762002cbc576001600160a01b03809261016089016040521687521660208601526127106040860152620d899f196060860152620d89a0608086015260a085015260c08401528160e0840152816101008401523061012084015261012c420161014084015260806101406101646001600160a01b0360055416958560405197889485937f883164560000000000000000000000000000000000000000000000000000000085526001600160a01b0381511660048601526001600160a01b03602082015116602486015262ffffff6040820151166044860152606081015160020b60648601528781015160020b608486015260a081015160a486015260c081015160c486015260e081015160e48601526101008101516101048601526001600160a01b036101208201511661012486015201516101448401525af19283156200077357829362002d81575b506001600160a01b03600554166001600160a01b03600d5416813b1562000ccc5760405163095ea7b360e01b81526001600160a01b03919091166004820152602481018590529083908290604490829084905af18015620003585762002d69575b50600d54600554601654604051630fe9a9f560e31b81526001600160a01b03928316600482015260248101879052604481019190915230606482015294939291602091869160849183918791165af19384156200077357829462002d2f575b5062002763601654426200395f565b9060405191826101e081011067ffffffffffffffff6101e08501111762002cbc576101e083016040526001600160a01b03881683526001600160a01b03871660208401523360408401524260608401528460808401528360a08401528360c08401528360e0840152836101008401528561012084015260016101408401526101608301528261018083015260016101a083015215156101c08201526019546801000000000000000081101562002d1b5780600162002825920160195562003714565b62002d0857600c906001600160a01b0383511673ffffffffffffffffffffffffffffffffffffffff199081835416178255600182016001600160a01b036020860151168282541617905560028201906001600160a01b03604086015116908254161790556060830151600382015560808301516004820155620028bd60a08401511515600583019060ff801983541691151516179055565b60c08301516006820155620028e760e08401511515600783019060ff801983541691151516179055565b610100830151600882015561012083015160098201556200291e6101408401511515600a83019060ff801983541691151516179055565b610160830151600b8201550190620029496101808201511515839060ff801983541691151516179055565b6101a081015115159061ff0062ff00006101c08554930151151560101b169260081b169062ffff001916171790556019548060001981011162002cf457828252601a602052600019016040822055620029a381546200398b565b8155620029b26001546200398b565b600155818152601a6020526001600160a01b036001620029d6604084205462003714565b500154166001600160a01b0386163b156200045e57604051907f5edfd7ce00000000000000000000000000000000000000000000000000000000825260048201528181602481836001600160a01b038b165af18015620007735790829162002cdc575b505060043562002ac7575b50604080516001600160a01b038581168252861660208201529081018290526060810183905262001e989291907f44544dbdbe847d959c68c553784ced993cb50b30206bf5c01804879f69cc414090608090a160405194859485909260609295949360808301966001600160a01b03809216845216602083015260408201520152565b6004356003600435020460031460043515171562002c77576064600360043502048180808062002afa856004356200391b565b946001600160a01b036010541682821562002cd2575bf1156200225b5762002b2f81876001600160a01b03600354166200450b565b9081605f810204605f1482151715620006355762002b66816001600160a01b03600354166001600160a01b03600754169062004231565b6001600160a01b036003541691604051928360e081011067ffffffffffffffff60e08601111762002cbc57836020936064605f60c0956001600160a01b038e60e49760e0839c01604052875216888601526127106040860152336060860152836080860152020460a08301528684830152856007541660405196879586947f04e45aaf000000000000000000000000000000000000000000000000000000008652828151166004870152828982015116602487015262ffffff60408201511660448701528260608201511660648701526080810151608487015260a081015160a487015201511660c48401525af18015620007735762002c8b575b5060043560043504600114600435151762002a44575b80634e487b7160e01b602492526011600452fd5b602090813d831162002cb4575b62002ca48183620037c6565b8101031262000403573862002c61565b503d62002c98565b634e487b7160e01b600052604160045260246000fd5b506108fc62002b10565b62002ce79062003794565b6200046257803862002a39565b602482634e487b7160e01b81526011600452fd5b602483634e487b7160e01b815280600452fd5b602483634e487b7160e01b81526041600452fd5b9093506020813d60201162002d60575b8162002d4e60209383620037c6565b81010312620004035751923862002754565b3d915062002d3f565b62002d75839162003794565b6200045e5738620026f5565b9092506080813d60801162002dc2575b8162002da060809383620037c6565b810103126200045e5762002db96020825192016200396d565b50913862002694565b3d915062002d91565b602485634e487b7160e01b81526011600452fd5b9096506020813d60201162002e1a575b8162002dfe60209383620037c6565b81010312620015455762002e12906200394a565b9538620024f3565b3d915062002def565b92859362002436565b909250341562002ebf5762002e5262002e48600435346200391b565b601554906200391b565b926001600160a01b0360035416803b156200045e578185916004604051809481937fd0e30db00000000000000000000000000000000000000000000000000000000083525af18015620007735762002ead575b509062002411565b62002eb89062003794565b3862002ea5565b606460405162461bcd60e51b815260206004820152601860248201527f4d7573742073656e642045544820746f20636f6e7665727400000000000000006044820152fd5b602460206001600160a01b0360035416604051928380926370a0823160e01b82523060048301525afa9081156200035857908591849162002f9b575b5010156200240557608460405162461bcd60e51b815260206004820152602760248201527f4e6f7420656e6f756768205745544820696e2074686520666163746f727920636044820152661bdb9d1c9858dd60ca1b6064820152fd5b9150506020813d60201162002fcd575b8162002fba60209383620037c6565b810103126200076f578490513862002f3f565b3d915062002fab565b9092506020813d60201162003007575b8162002ff560209383620037c6565b810103126200045e57519138620023fc565b3d915062002fe6565b608460405162461bcd60e51b815260206004820152602c60248201527f496e73756666696369656e74204554482073656e742e2052657175697265643a60448201527f20302e30303031352045544800000000000000000000000000000000000000006064820152fd5b5034620004625780600319360112620004625760206001600160a01b0360035416604051908152f35b503462000462576060366003190112620004625767ffffffffffffffff6004358181116200076f57620030db903690600401620036cc565b919092602435918211620004625760206200310b8585620031003660048801620036cc565b916044359362003870565b6001600160a01b0360405191168152f35b5034620004625780600319360112620004625760206001600160a01b03600d5416604051908152f35b5034620004625780600319360112620004625760195460c0526200316b60c05162003802565b6080526200317b60c05162003802565b610240526200318c60c05162003802565b6101e0526200319d60c05162003802565b61010052620031ae60c05162003802565b61014052620031bf60c05162003802565b61026052620031d060c05162003802565b61018052620031e160c05162003802565b6101a052620031f260c05162003802565b610200526200320360c05162003802565b610220526200321460c05162003802565b6101c0526200322560c05162003802565b610160526200323660c05162003802565b610120526200324760c05162003802565b60e0526200325760c05162003802565b60a0525b60c0518110620033b9576040518062001e98620033a762003395620033826200336f6200335c6200334962003336620033246200331262003300620032ee620032dc8d620032c9620032b76101e080845283016080516200361f565b8281036020840152610240516200361f565b9060408183039101526101e0516200361f565b8d810360608f0152610100516200365e565b8c810360808e0152610140516200365e565b8b810360a08d01526102605162003694565b8a810360c08c0152610180516200365e565b89810360e08b01526101a05162003694565b8881036101008a0152610200516200365e565b878103610120890152610220516200365e565b8681036101408801526101c05162003694565b858103610160870152610160516200365e565b8481036101808601526101205162003694565b8381036101a085015260e05162003694565b8281036101c084015260a05162003694565b80620033c760019262003714565b506001600160a01b0380915416620033e2836080516200383a565b528083620033f08462003714565b500154166200340383610240516200383a565b526002620034118362003714565b5001541662003424826101e0516200383a565b526004620034328262003714565b5001546200344482610100516200383a565b526003620034528262003714565b5001546200346482610140516200383a565b526005620034728262003714565b5060ff9182910154166200348a83610260516200383a565b901515905260066200349c8362003714565b500154620034ae83610180516200383a565b52806007620034bd8462003714565b50015416620034d0836101a0516200383a565b9015159052620034e08262003714565b50600880910154620034f684610200516200383a565b526009620035048462003714565b5001546200351684610220516200383a565b5281600a620035258562003714565b5001541662003538846101c0516200383a565b9015159052600b6200354a8462003714565b5001546200355c84610160516200383a565b5281620035698462003714565b509181600c80940154166200358286610120516200383a565b901515905282620035938662003714565b500154901c16620035a78460e0516200383a565b9015159052620035b78362003714565b50015460101c16620035cc8260a0516200383a565b9015159052016200325b565b5034620004625780600319360112620004625760206001600160a01b0360045416604051908152f35b9050346200045e57816003193601126200045e576020906002548152f35b90815180825260208080930193019160005b82811062003640575050505090565b83516001600160a01b03168552938101939281019260010162003631565b90815180825260208080930193019160005b8281106200367f575050505090565b83518552938101939281019260010162003670565b90815180825260208080930193019160005b828110620036b5575050505090565b8351151585529381019392810192600101620036a6565b9181601f84011215620004035782359167ffffffffffffffff83116200040357602083818601950101116200040357565b604090600319011262000403576004359060243590565b6019548110156200375057600d906019600052027f944998273e477b495144fb8794c914197f3ccb46be2900f4698fd0ef743c96950190600090565b634e487b7160e01b600052603260045260246000fd5b600435906001600160a01b03821682036200040357565b602435906001600160a01b03821682036200040357565b67ffffffffffffffff811162002cbc57604052565b60a0810190811067ffffffffffffffff82111762002cbc57604052565b90601f8019910116810190811067ffffffffffffffff82111762002cbc57604052565b67ffffffffffffffff811162002cbc5760051b60200190565b906200380e82620037e9565b6200381d6040519182620037c6565b828152809262003830601f1991620037e9565b0190602036910137565b8051821015620037505760209160051b010190565b908060209392818452848401376000828201840152601f01601f1916010190565b929093919360405194611333928387019387851067ffffffffffffffff86111762002cbc578796620038c594620038b692620046258a396080875260808701916200384f565b9184830360208601526200384f565b91604082015260603091015203906000f080156200390f576001600160a01b0316807f91d24864a084ab70b268a1f865e757ca12006cf298d763b6be697302ef86498c600080a290565b6040513d6000823e3d90fd5b9190820391821162000bd457565b811562003934570490565b634e487b7160e01b600052601260045260246000fd5b51906001600160a01b03821682036200040357565b9190820180921162000bd457565b51906fffffffffffffffffffffffffffffffff821682036200040357565b600019811462000bd45760010190565b51908160020b82036200040357565b919082610180910312620004035781516bffffffffffffffffffffffff81168103620004035791620039df602082016200394a565b91620039ee604083016200394a565b91620039fd606082016200394a565b91608082015162ffffff8116810362000403579162003a1f60a082016200399b565b9162003a2e60c083016200399b565b9162003a3d60e082016200396d565b91610100820151916101208101519162003a6a61016062003a6261014085016200396d565b93016200396d565b90565b908160209103126200040357518015158103620004035790565b1562003a8f57565b606460405162461bcd60e51b815260206004820152601760248201527f43616c6c6572206973206e6f7420746865206f776e65720000000000000000006044820152fd5b1562003adb57565b606460405162461bcd60e51b815260206004820152601860248201527f43616c6c6572206973206e6f7420617574686f72697a656400000000000000006044820152fd5b919082604091031262000403576020825192015190565b3d1562003b75573d9067ffffffffffffffff821162002cbc576040519162003b69601f8201601f191660200184620037c6565b82523d6000602084013e565b606090565b1562003b8257565b608460405162461bcd60e51b815260206004820152602160248201527f4661696c656420746f2073656e642045544820746f207465616d2077616c6c6560448201527f74000000000000000000000000000000000000000000000000000000000000006064820152fd5b1562003bf457565b606460405162461bcd60e51b815260206004820152600f60248201527f417070726f76616c206661696c656400000000000000000000000000000000006044820152fd5b906000600383111562003c8a5750816001908060011c6001810180911162000bd45791905b84831062003c6b575050505b565b9091935062003c80846200123e818462003929565b821c919062003c5d565b9162003c9257565b60019150565b60405163095ea7b360e01b602082019081526001600160a01b03939093166024820152604480820194909452928352600092839290839062003cdc606482620037c6565b51925af162003cea62003b36565b8162003d3e575b501562003cfa57565b606460405162461bcd60e51b815260206004820152600260248201527f53410000000000000000000000000000000000000000000000000000000000006044820152fd5b805180159250821562003d55575b50503862003cf1565b62003d6a925060208091830101910162003a6d565b388062003d4c565b62003db6600092600b928452601a602052604084205490600962003d968362003714565b500155600a62003da68262003714565b5001805460ff1916905562003714565b500155565b9190600090838252601a60205260408220549360ff600562003ddd8762003714565b50015416620041ed576001600160a01b036005541660406fffffffffffffffffffffffffffffffff60a482519562003e1587620037a9565b85875282602088019116815287848801958187526060890182815260808a0190428252875198899788967f0c49ccbe0000000000000000000000000000000000000000000000000000000088526004809e5190890152511660248701525160448601525160648501525160848401525af180156200038557620041ca575b506001600160a01b0360055416604051906080820182811067ffffffffffffffff821117620041b7576084869594936fffffffffffffffffffffffffffffffff976040946060948652868352306020840152898684015289858401528551998a9586947ffc6f786500000000000000000000000000000000000000000000000000000000865280518b8701526001600160a01b036020820151166024870152828982015116604487015201511660648401525af195861562000358578394849762004184575b5062003f6760059162003714565b5001805460ff191660011790556040805191825260208201859052810186905233907f1dc8bb69df2b8e91fbdcbfcf93d951b3f0000f085a95fe3f7946d6161439245d90606090a26001600160a01b03600b5416331480156200417a575b80156200415f575b62003fd89062003ad3565b6001600160a01b03600354166040516370a0823160e01b81523083820152602081602481855afa9081156200038557849162004127575b50601b5480911015806200411d575b6200402c575b505050509190565b60209060446001600160a01b03600c541686604051958694859363a9059cbb60e01b85528985015260248401525af180156200035857620040f9575b506001600160a01b03600c541690601b5490823b1562000ccc579060248492836040519586948593639b5ceb3560e01b85528401525af180156200077357620040e7575b507f8ff98a7f9bedb57df86769d07998b067fba595272053e3690d3412aff560a82c6020601b54604051908152a1601b553880808062004024565b620040f29062003794565b38620040ac565b620041159060203d6020116200035057620003408183620037c6565b503862004068565b508015156200401e565b90506020813d60201162004156575b816200414560209383620037c6565b8101031262000ccc5751386200400f565b3d915062004136565b5062003fd86001600160a01b03600c54163314905062003fcd565b5030331462003fc5565b600591975062003f679550620041ab9060403d604011620017cc57620017b98183620037c6565b95909597915062003f59565b602486604187634e487b7160e01b835252fd5b620041e69060403d604011620017cc57620017b98183620037c6565b5062003e93565b606460405162461bcd60e51b815260206004820152601960248201527f4c697175696469747920616c72656164792072656d6f766564000000000000006044820152fd5b60405163095ea7b360e01b81526001600160a01b039283166004820152602481019390935260209183916044918391600091165af180156200390f5762003c699160009162004281575062003bec565b6200037e915060203d6020116200035057620003408183620037c6565b6200431a60069180600052601a6020527f5b5116a6a7ed7078e6da121ce407eb49b9da5715f14154c54556529f996a4fb06040600020549184620042e28462003714565b50015460185411156200432c575b60ff6007620042ff8562003714565b5001546040805193845291161515602083015290a162003714565b50016200432881546200398b565b9055565b6007620043398462003714565b5001805460ff19166001179055620042f0565b600052601a6020527f6f3e068cb934f31cfea69b2f72e697abfe27982d58fe7fcabb327c96c89cd33a604060002054600060066200438a8362003714565b50015560ff6007620043ac6006620043a28562003714565b5001549362003714565b5001546040805193845291161515602083015290a1565b906001600160a01b03620043dd838260035416846200450b565b605f810290808204605f149015171562000bd457602092600060a4926200440a8786600754168562004231565b6064856009541691866003541698604051998a9889977f73d84e42000000000000000000000000000000000000000000000000000000008952166004880152602487015260448601520460648401523060848401525af19081156200390f5760009162004475575090565b90506020813d602011620044a0575b816200449360209383620037c6565b8101031262000403575190565b3d915062004484565b906001600160a01b03600e541691823b15620004035760405163095ea7b360e01b81526001600160a01b039290921660048301526024820152906000908290604490829084905af180156200390f57620045005750565b62003c699062003794565b608062ffffff9193929360a46040516200452581620037a9565b6001600160a01b03958680941682528360208301981688526040820190815260608201906127108252848684016000988994858352836008541694846040519e8f9b8c9a7fc6a5026a000000000000000000000000000000000000000000000000000000008c52511660048b01525116602489015251604488015251166064860152511660848401525af19283156200225b578193620045c6575b50505090565b909192506080813d6080116200461b575b81620045e660809383620037c6565b810103126200045e578051926020820151908116036200045e576040015163ffffffff811603620004625750388080620045c0565b3d9150620045d756fe60406080815234620006a35762001333803803806200001e81620006a8565b9283398101608082820312620006a35781516001600160401b0390818111620006a357826200004f918501620006ce565b6020928385015190838211620006a3576200006c918601620006ce565b8585015160609095015190926001600160a01b039182811690819003620006a3578351828111620005a35760038054916001968784811c9416801562000698575b8a85101462000682578190601f948581116200062c575b508a90858311600114620005c557600092620005b9575b505060001982841b1c191690871b1781555b865191848311620005a35760049788548881811c9116801562000598575b8b8210146200058357908183869594931162000529575b508a918411600114620004be57600093620004b2575b505082871b92600019911b1c19161785555b60018060a01b03199061dead8260085416176008556005600a5560ff19600c5416600c55670de0b6b3a76400009788810298818a0414811517156200049d57674563918244f4000002888104600514891517156200049d576064900460055581600754161760075587519160608301908382109082111762000488578852308252858201916000835288810192308452600d546801000000000000000081101562000473578087620002009201600d5562000740565b9290926200045f5751825491516001600160a81b03199092169086161790151560a01b60ff60a01b1617815591519184018054909116918316919091179055600d5460001981019081116200044a5730600052600e855286600020553315620004335730600052600e84528560002054918060ff6200027f8562000740565b505460a01c16151514928362000422575b8362000413575b8362000402575b83620003f6575b83620003ec575b83620003ce575b50505062000317575b507fddf252ad1be2c89b69c2b068fc378daa952ba7f163c4a11628f55a4df523b3ef600091620002ef8460025462000776565b60025533835282815284832084815401905584519384523393a351610b9890816200079b8239f35b600254600a5490818102918183041490151715620003b9576064903360005260008452046200034b84866000205462000776565b1115620002bc5760849184519162461bcd60e51b8352820152603660248201527f4d79546f6b656e3a205472616e7366657220616d6f756e74206578636565647360448201527f20746865206d617820686f6c64696e67206c696d6974000000000000000000006064820152fd5b601182634e487b7160e01b6000525260246000fd5b620003dc9192935062000740565b50015416331415388080620002b3565b92508092620002ac565b333014159350620002a5565b92508160085416331415926200029e565b60075483161515935062000297565b925081600754163314159262000290565b855163ec442f0560e01b8152600081850152602490fd5b601184634e487b7160e01b6000525260246000fd5b600088634e487b7160e01b82525260246000fd5b604188634e487b7160e01b6000525260246000fd5b604186634e487b7160e01b6000525260246000fd5b601187634e487b7160e01b6000525260246000fd5b01519150388062000138565b9190889450601f198416928a6000528b6000209360005b8d828210620005125750508511620004f7575b50505050811b0185556200014a565b01519060f884600019921b161c1916905538808080620004e8565b8385015187558c98909601959384019301620004d5565b9091929350896000528a6000208380870160051c8201928d881062000579575b918b918897969594930160051c01915b8281106200056957505062000122565b600081558796508b910162000559565b9250819262000549565b60228a634e487b7160e01b6000525260246000fd5b90607f16906200010b565b634e487b7160e01b600052604160045260246000fd5b015190503880620000db565b60008581528c81208b9550929190601f198516908e5b828210620006145750508411620005fb575b505050811b018155620000ed565b015160001983861b60f8161c19169055388080620005ed565b8385015186558d979095019493840193018e620005db565b909150836000528a6000208580850160051c8201928d861062000678575b918b91869594930160051c01915b82811062000668575050620000c4565b600081558594508b910162000658565b925081926200064a565b634e487b7160e01b600052602260045260246000fd5b93607f1693620000ad565b600080fd5b6040519190601f01601f191682016001600160401b03811183821017620005a357604052565b919080601f84011215620006a35782516001600160401b038111620005a35760209062000704601f8201601f19168301620006a8565b92818452828287010111620006a35760005b8181106200072c57508260009394955001015290565b858101830151848201840152820162000716565b600d548110156200076057600d60005260206000209060011b0190600090565b634e487b7160e01b600052603260045260246000fd5b919082018092116200078457565b634e487b7160e01b600052601160045260246000fdfe608060408181526004918236101561001657600080fd5b600092833560e01c91826306647125146107d45750816306fdde03146106f8578163095ea7b31461065057816318160ddd1461063157816323b872dd1461052557816327c8f835146104fd578163313ce567146104e1578163333e6f06146104c25781635edfd7ce14610378578163634282af1461031a57816370a08231146102e457816395d89b41146101c357508063966dae0e1461019c578063a9059cbb1461016c578063aa4bde281461014e578063d045a3291461012b5763dd62ed3e146100e057600080fd5b34610127578060031936011261012757806020926100fc610839565b610104610854565b6001600160a01b0391821683526001865283832091168252845220549051908152f35b5080fd5b503461012757816003193601126101275760209060ff600c541690519015158152f35b5034610127578160031936011261012757602090600b549051908152f35b503461012757806003193601126101275760209061019561018b610839565b60243590336108e3565b5160018152f35b50346101275781600319360112610127576020906001600160a01b03600754169051908152f35b83833461012757816003193601126101275780519082845460018160011c90600183169283156102da575b60209384841081146102c7578388529081156102ab5750600114610256575b505050829003601f01601f191682019267ffffffffffffffff841183851017610243575082918261023f9252826107f0565b0390f35b80604186634e487b7160e01b6024945252fd5b8787529192508591837f8a35acfbc15ff81a39ae7d344fd709f28e8600b4aa8c65c6b64bfe7fe36bd19b5b838510610297575050505083010185808061020d565b805488860183015293019284908201610281565b60ff1916878501525050151560051b840101905085808061020d565b60248960228c634e487b7160e01b835252fd5b91607f16916101ee565b50503461012757602036600319011261012757806020926001600160a01b0361030b610839565b16815280845220549051908152f35b83915034610127576020366003190112610127573590600d548210156103755760606001846103488561086a565b509060ff8254926001600160a01b03948591015416928251948116855260a01c1615156020840152820152f35b80fd5b9050346104be5760203660031901126104be57610393610839565b916001600160a01b0391826007541633036104565750610406600191308652600e6020528520546103c38161086a565b50740100000000000000000000000000000000000000007fffffffffffffffffffffff00ffffffffffffffffffffffffffffffffffffffff82541617905561086a565b500191167fffffffffffffffffffffffff00000000000000000000000000000000000000008254161790556064610442600254600a54906108ba565b04600b55600160ff19600c541617600c5580f35b6020608492519162461bcd60e51b8352820152602d60248201527f43616c6c6572206973206e6f7420617574686f72697a656420746f20656e616260448201527f6c65206d61782077616c6c6574000000000000000000000000000000000000006064820152fd5b8280fd5b5050346101275781600319360112610127576020906005549051908152f35b5050346101275781600319360112610127576020905160128152f35b5050346101275781600319360112610127576020906001600160a01b03600854169051908152f35b9050823461037557606036600319011261037557610541610839565b610549610854565b91604435936001600160a01b038316808352600160205286832033845260205286832054916000198303610586575b6020886101958989896108e3565b8683106105ec5781156105d65733156105c05750825260016020908152868320338452815291869020908590039055829061019587610578565b60249084895191634a1406b160e11b8352820152fd5b6024908489519163e602df0560e01b8352820152fd5b87517ffb8f41b2000000000000000000000000000000000000000000000000000000008152339181019182526020820193909352604081018790528291506060010390fd5b5050346101275781600319360112610127576020906002549051908152f35b9050346104be57816003193601126104be5761066a610839565b6024359033156106e2576001600160a01b03169182156106cc57508083602095338152600187528181208582528752205582519081527f8c5be1e5ebec7d5bd14f71427d1e84f3dd0314c0f7b2291e5b200ac8c7c3b925843392a35160018152f35b60249085855191634a1406b160e11b8352820152fd5b6024838686519163e602df0560e01b8352820152fd5b8383346101275781600319360112610127578051908260035460018160011c90600183169283156107ca575b60209384841081146102c7578388529081156102ab575060011461077457505050829003601f01601f191682019267ffffffffffffffff841183851017610243575082918261023f9252826107f0565b600387529192508591837fc2575a0e9e593c00f959f8c92f12db2869c3395a3b0502d05e2516446f71f85b5b8385106107b6575050505083010185808061020d565b8054888601830152930192849082016107a0565b91607f1691610724565b849034610127578160031936011261012757602090600a548152f35b6020808252825181830181905290939260005b82811061082557505060409293506000838284010152601f8019910116010190565b818101860151848201604001528501610803565b600435906001600160a01b038216820361084f57565b600080fd5b602435906001600160a01b038216820361084f57565b600d548110156108a457600d60005260011b7fd7b6990105719101dabeb77144f2a3385c8033acd3af97e9423a695e81ad1eb50190600090565b634e487b7160e01b600052603260045260246000fd5b818102929181159184041417156108cd57565b634e487b7160e01b600052601160045260246000fd5b9291906001600160a01b03808516918215610b31578116928315610b0057600091308352602092600e84526040918282205490600160ff6109238461086a565b505460a01c161515149182610af1575b82610ae2575b82610ad3575b82610ac8575b82610abd575b82610aa1575b50506109f8575b84815280845281812054978389106109af57508083869798997fddf252ad1be2c89b69c2b068fc378daa952ba7f163c4a11628f55a4df523b3ef9785945282875203828220558781522082815401905551908152a3565b82517fe450d38c0000000000000000000000000000000000000000000000000000000081526001600160a01b039190911660048201526024810189905260448101849052606490fd5b6064610a09600254600a54906108ba565b0486825281855282822054848101809111610a8d5711156109585760848483519062461bcd60e51b82526004820152603660248201527f4d79546f6b656e3a205472616e7366657220616d6f756e74206578636565647360448201527f20746865206d617820686f6c64696e67206c696d6974000000000000000000006064820152fd5b602483634e487b7160e01b81526011600452fd5b6001919250610aaf9061086a565b500154168614153880610951565b87891415925061094b565b308914159250610945565b6008548216891415925061093f565b60075482168814159250610939565b60075482168914159250610933565b60246040517fec442f0500000000000000000000000000000000000000000000000000000000815260006004820152fd5b60246040517f96c6fd1e00000000000000000000000000000000000000000000000000000000815260006004820152fdfea2646970667358221220741e1f177a41be94b6c53b93befb7ffe49223e4dccc60144888e02d9feaaf35964736f6c63430008180033a2646970667358221220227bfa318a3340ee93815c2d7814597f650bf9d459197d37d2cb5b47d7c5d2ad64736f6c63430008180033",
  "linkReferences": {},
  "deployedLinkReferences": {}
}